{
  "_format": "hh-sol-artifact-1",
  "contractName": "NudeNFT",
  "sourceName": "contracts/NudeNFT.sol",
  "abi": [
    {
      "inputs": [],
      "stateMutability": "nonpayable",
      "type": "constructor"
    },
    {
      "anonymous": false,
      "inputs": [
        {
          "indexed": true,
          "internalType": "address",
          "name": "owner",
          "type": "address"
        },
        {
          "indexed": true,
          "internalType": "address",
          "name": "approved",
          "type": "address"
        },
        {
          "indexed": true,
          "internalType": "uint256",
          "name": "tokenId",
          "type": "uint256"
        }
      ],
      "name": "Approval",
      "type": "event"
    },
    {
      "anonymous": false,
      "inputs": [
        {
          "indexed": true,
          "internalType": "address",
          "name": "owner",
          "type": "address"
        },
        {
          "indexed": true,
          "internalType": "address",
          "name": "operator",
          "type": "address"
        },
        {
          "indexed": false,
          "internalType": "bool",
          "name": "approved",
          "type": "bool"
        }
      ],
      "name": "ApprovalForAll",
      "type": "event"
    },
    {
      "anonymous": false,
      "inputs": [
        {
          "indexed": false,
          "internalType": "uint256",
          "name": "tokenId",
          "type": "uint256"
        },
        {
          "indexed": false,
          "internalType": "address",
          "name": "buyer",
          "type": "address"
        },
        {
          "indexed": false,
          "internalType": "address",
          "name": "seller",
          "type": "address"
        },
        {
          "indexed": false,
          "internalType": "uint256",
          "name": "price",
          "type": "uint256"
        }
      ],
      "name": "BuyNFT",
      "type": "event"
    },
    {
      "anonymous": false,
      "inputs": [
        {
          "indexed": false,
          "internalType": "address",
          "name": "recipient",
          "type": "address"
        },
        {
          "indexed": false,
          "internalType": "uint256",
          "name": "tokenId",
          "type": "uint256"
        },
        {
          "indexed": false,
          "internalType": "string",
          "name": "tokenURI",
          "type": "string"
        },
        {
          "indexed": false,
          "internalType": "uint256",
          "name": "price",
          "type": "uint256"
        }
      ],
      "name": "MintNFT",
      "type": "event"
    },
    {
      "anonymous": false,
      "inputs": [
        {
          "indexed": true,
          "internalType": "address",
          "name": "previousOwner",
          "type": "address"
        },
        {
          "indexed": true,
          "internalType": "address",
          "name": "newOwner",
          "type": "address"
        }
      ],
      "name": "OwnershipTransferred",
      "type": "event"
    },
    {
      "anonymous": false,
      "inputs": [
        {
          "indexed": true,
          "internalType": "address",
          "name": "from",
          "type": "address"
        },
        {
          "indexed": true,
          "internalType": "address",
          "name": "to",
          "type": "address"
        },
        {
          "indexed": true,
          "internalType": "uint256",
          "name": "tokenId",
          "type": "uint256"
        }
      ],
      "name": "Transfer",
      "type": "event"
    },
    {
      "inputs": [
        {
          "internalType": "address",
          "name": "to",
          "type": "address"
        },
        {
          "internalType": "uint256",
          "name": "tokenId",
          "type": "uint256"
        }
      ],
      "name": "approve",
      "outputs": [],
      "stateMutability": "nonpayable",
      "type": "function"
    },
    {
      "inputs": [
        {
          "internalType": "address",
          "name": "owner",
          "type": "address"
        }
      ],
      "name": "balanceOf",
      "outputs": [
        {
          "internalType": "uint256",
          "name": "",
          "type": "uint256"
        }
      ],
      "stateMutability": "view",
      "type": "function"
    },
    {
      "inputs": [
        {
          "internalType": "uint256",
          "name": "tokenId",
          "type": "uint256"
        }
      ],
      "name": "buyNFT",
      "outputs": [],
      "stateMutability": "payable",
      "type": "function"
    },
    {
      "inputs": [
        {
          "internalType": "uint256",
          "name": "tokenId",
          "type": "uint256"
        }
      ],
      "name": "getApproved",
      "outputs": [
        {
          "internalType": "address",
          "name": "",
          "type": "address"
        }
      ],
      "stateMutability": "view",
      "type": "function"
    },
    {
      "inputs": [
        {
          "internalType": "uint256",
          "name": "tokenId",
          "type": "uint256"
        }
      ],
      "name": "getPrice",
      "outputs": [
        {
          "internalType": "uint256",
          "name": "",
          "type": "uint256"
        }
      ],
      "stateMutability": "view",
      "type": "function"
    },
    {
      "inputs": [
        {
          "internalType": "address",
          "name": "owner",
          "type": "address"
        },
        {
          "internalType": "address",
          "name": "operator",
          "type": "address"
        }
      ],
      "name": "isApprovedForAll",
      "outputs": [
        {
          "internalType": "bool",
          "name": "",
          "type": "bool"
        }
      ],
      "stateMutability": "view",
      "type": "function"
    },
    {
      "inputs": [
        {
          "internalType": "address",
          "name": "recipient",
          "type": "address"
        },
        {
          "internalType": "string",
          "name": "tokenURI",
          "type": "string"
        },
        {
          "internalType": "uint256",
          "name": "price",
          "type": "uint256"
        }
      ],
      "name": "mintNFT",
      "outputs": [
        {
          "internalType": "uint256",
          "name": "",
          "type": "uint256"
        }
      ],
      "stateMutability": "nonpayable",
      "type": "function"
    },
    {
      "inputs": [],
      "name": "name",
      "outputs": [
        {
          "internalType": "string",
          "name": "",
          "type": "string"
        }
      ],
      "stateMutability": "view",
      "type": "function"
    },
    {
      "inputs": [],
      "name": "owner",
      "outputs": [
        {
          "internalType": "address",
          "name": "",
          "type": "address"
        }
      ],
      "stateMutability": "view",
      "type": "function"
    },
    {
      "inputs": [
        {
          "internalType": "uint256",
          "name": "tokenId",
          "type": "uint256"
        }
      ],
      "name": "ownerOf",
      "outputs": [
        {
          "internalType": "address",
          "name": "",
          "type": "address"
        }
      ],
      "stateMutability": "view",
      "type": "function"
    },
    {
      "inputs": [],
      "name": "renounceOwnership",
      "outputs": [],
      "stateMutability": "nonpayable",
      "type": "function"
    },
    {
      "inputs": [
        {
          "internalType": "address",
          "name": "from",
          "type": "address"
        },
        {
          "internalType": "address",
          "name": "to",
          "type": "address"
        },
        {
          "internalType": "uint256",
          "name": "tokenId",
          "type": "uint256"
        }
      ],
      "name": "safeTransferFrom",
      "outputs": [],
      "stateMutability": "nonpayable",
      "type": "function"
    },
    {
      "inputs": [
        {
          "internalType": "address",
          "name": "from",
          "type": "address"
        },
        {
          "internalType": "address",
          "name": "to",
          "type": "address"
        },
        {
          "internalType": "uint256",
          "name": "tokenId",
          "type": "uint256"
        },
        {
          "internalType": "bytes",
          "name": "_data",
          "type": "bytes"
        }
      ],
      "name": "safeTransferFrom",
      "outputs": [],
      "stateMutability": "nonpayable",
      "type": "function"
    },
    {
      "inputs": [
        {
          "internalType": "address",
          "name": "operator",
          "type": "address"
        },
        {
          "internalType": "bool",
          "name": "approved",
          "type": "bool"
        }
      ],
      "name": "setApprovalForAll",
      "outputs": [],
      "stateMutability": "nonpayable",
      "type": "function"
    },
    {
      "inputs": [
        {
          "internalType": "bytes4",
          "name": "interfaceId",
          "type": "bytes4"
        }
      ],
      "name": "supportsInterface",
      "outputs": [
        {
          "internalType": "bool",
          "name": "",
          "type": "bool"
        }
      ],
      "stateMutability": "view",
      "type": "function"
    },
    {
      "inputs": [],
      "name": "symbol",
      "outputs": [
        {
          "internalType": "string",
          "name": "",
          "type": "string"
        }
      ],
      "stateMutability": "view",
      "type": "function"
    },
    {
      "inputs": [],
      "name": "tax",
      "outputs": [
        {
          "internalType": "uint8",
          "name": "",
          "type": "uint8"
        }
      ],
      "stateMutability": "view",
      "type": "function"
    },
    {
      "inputs": [
        {
          "internalType": "uint256",
          "name": "tokenId",
          "type": "uint256"
        }
      ],
      "name": "tokenURI",
      "outputs": [
        {
          "internalType": "string",
          "name": "",
          "type": "string"
        }
      ],
      "stateMutability": "view",
      "type": "function"
    },
    {
      "inputs": [
        {
          "internalType": "address",
          "name": "from",
          "type": "address"
        },
        {
          "internalType": "address",
          "name": "to",
          "type": "address"
        },
        {
          "internalType": "uint256",
          "name": "tokenId",
          "type": "uint256"
        }
      ],
      "name": "transferFrom",
      "outputs": [],
      "stateMutability": "nonpayable",
      "type": "function"
    },
    {
      "inputs": [
        {
          "internalType": "address",
          "name": "newOwner",
          "type": "address"
        }
      ],
      "name": "transferOwnership",
      "outputs": [],
      "stateMutability": "nonpayable",
      "type": "function"
    }
  ],
  "bytecode": "0x60806040526045600a60146101000a81548160ff021916908360ff1602179055503480156200002d57600080fd5b506040518060400160405280600781526020017f4e7564654e4654000000000000000000000000000000000000000000000000008152506040518060400160405280600781526020017f4e5544454e4654000000000000000000000000000000000000000000000000008152508160009080519060200190620000b292919062000203565b508060019080519060200190620000cb92919062000203565b505050620000ee620000e26200013560201b60201c565b6200013d60201b60201c565b33600a60006101000a81548173ffffffffffffffffffffffffffffffffffffffff021916908373ffffffffffffffffffffffffffffffffffffffff16021790555062000318565b600033905090565b6000600760009054906101000a900473ffffffffffffffffffffffffffffffffffffffff16905081600760006101000a81548173ffffffffffffffffffffffffffffffffffffffff021916908373ffffffffffffffffffffffffffffffffffffffff1602179055508173ffffffffffffffffffffffffffffffffffffffff168173ffffffffffffffffffffffffffffffffffffffff167f8be0079c531659141344cd1fd0a4f28419497f9722a3daafe3b4186f6b6457e060405160405180910390a35050565b8280546200021190620002e2565b90600052602060002090601f01602090048101928262000235576000855562000281565b82601f106200025057805160ff191683800117855562000281565b8280016001018555821562000281579182015b828111156200028057825182559160200191906001019062000263565b5b50905062000290919062000294565b5090565b5b80821115620002af57600081600090555060010162000295565b5090565b7f4e487b7100000000000000000000000000000000000000000000000000000000600052602260045260246000fd5b60006002820490506001821680620002fb57607f821691505b60208210811415620003125762000311620002b3565b5b50919050565b61378d80620003286000396000f3fe60806040526004361061011f5760003560e01c8063715018a6116100a0578063b88d4fde11610064578063b88d4fde146103d8578063c87b56dd14610401578063e75722301461043e578063e985e9c51461047b578063f2fde38b146104b85761011f565b8063715018a6146103175780638da5cb5b1461032e57806395d89b411461035957806399c8d55614610384578063a22cb465146103af5761011f565b806323b872dd116100e757806323b872dd1461022f57806342842e0e1461025857806351ed8288146102815780636352211e1461029d57806370a08231146102da5761011f565b806301ffc9a71461012457806306fdde0314610161578063081812fc1461018c57806308598df0146101c9578063095ea7b314610206575b600080fd5b34801561013057600080fd5b5061014b600480360381019061014691906120cd565b6104e1565b6040516101589190612115565b60405180910390f35b34801561016d57600080fd5b506101766105c3565b60405161018391906121c9565b60405180910390f35b34801561019857600080fd5b506101b360048036038101906101ae9190612221565b610655565b6040516101c0919061228f565b60405180910390f35b3480156101d557600080fd5b506101f060048036038101906101eb919061240b565b6106da565b6040516101fd9190612489565b60405180910390f35b34801561021257600080fd5b5061022d600480360381019061022891906124a4565b6107aa565b005b34801561023b57600080fd5b50610256600480360381019061025191906124e4565b6108c2565b005b34801561026457600080fd5b5061027f600480360381019061027a91906124e4565b610922565b005b61029b60048036038101906102969190612221565b610942565b005b3480156102a957600080fd5b506102c460048036038101906102bf9190612221565b610af8565b6040516102d1919061228f565b60405180910390f35b3480156102e657600080fd5b5061030160048036038101906102fc9190612537565b610baa565b60405161030e9190612489565b60405180910390f35b34801561032357600080fd5b5061032c610c62565b005b34801561033a57600080fd5b50610343610cea565b604051610350919061228f565b60405180910390f35b34801561036557600080fd5b5061036e610d14565b60405161037b91906121c9565b60405180910390f35b34801561039057600080fd5b50610399610da6565b6040516103a69190612580565b60405180910390f35b3480156103bb57600080fd5b506103d660048036038101906103d191906125c7565b610db9565b005b3480156103e457600080fd5b506103ff60048036038101906103fa91906126a8565b610dcf565b005b34801561040d57600080fd5b5061042860048036038101906104239190612221565b610e31565b60405161043591906121c9565b60405180910390f35b34801561044a57600080fd5b5061046560048036038101906104609190612221565b610e43565b6040516104729190612489565b60405180910390f35b34801561048757600080fd5b506104a2600480360381019061049d919061272b565b610eb6565b6040516104af9190612115565b60405180910390f35b3480156104c457600080fd5b506104df60048036038101906104da9190612537565b610f4a565b005b60007f80ac58cd000000000000000000000000000000000000000000000000000000007bffffffffffffffffffffffffffffffffffffffffffffffffffffffff1916827bffffffffffffffffffffffffffffffffffffffffffffffffffffffff191614806105ac57507f5b5e139f000000000000000000000000000000000000000000000000000000007bffffffffffffffffffffffffffffffffffffffffffffffffffffffff1916827bffffffffffffffffffffffffffffffffffffffffffffffffffffffff1916145b806105bc57506105bb82611042565b5b9050919050565b6060600080546105d29061279a565b80601f01602080910402602001604051908101604052809291908181526020018280546105fe9061279a565b801561064b5780601f106106205761010080835404028352916020019161064b565b820191906000526020600020905b81548152906001019060200180831161062e57829003601f168201915b5050505050905090565b6000610660826110ac565b61069f576040517f08c379a00000000000000000000000000000000000000000000000000000000081526004016106969061283e565b60405180910390fd5b6004600083815260200190815260200160002060009054906101000a900473ffffffffffffffffffffffffffffffffffffffff169050919050565b600080821161071e576040517f08c379a0000000000000000000000000000000000000000000000000000000008152600401610715906128aa565b60405180910390fd5b6107286008611118565b6000610734600861112e565b9050610740858261113c565b61074a818561115a565b8260096000838152602001908152602001600020819055507f3fead86277f7a7b9bd5a10401873b6a897c726b075cb36a531f20985fcc898f28582868660405161079794939291906128ca565b60405180910390a1809150509392505050565b60006107b582610af8565b90508073ffffffffffffffffffffffffffffffffffffffff168373ffffffffffffffffffffffffffffffffffffffff161415610826576040517f08c379a000000000000000000000000000000000000000000000000000000000815260040161081d90612988565b60405180910390fd5b8073ffffffffffffffffffffffffffffffffffffffff166108456111ce565b73ffffffffffffffffffffffffffffffffffffffff16148061087457506108738161086e6111ce565b610eb6565b5b6108b3576040517f08c379a00000000000000000000000000000000000000000000000000000000081526004016108aa90612a1a565b60405180910390fd5b6108bd83836111d6565b505050565b6108d36108cd6111ce565b8261128f565b610912576040517f08c379a000000000000000000000000000000000000000000000000000000000815260040161090990612aac565b60405180910390fd5b61091d83838361136d565b505050565b61093d83838360405180602001604052806000815250610dcf565b505050565b6009600082815260200190815260200160002054341015610998576040517f08c379a000000000000000000000000000000000000000000000000000000000815260040161098f90612b18565b60405180910390fd5b6109a181610af8565b73ffffffffffffffffffffffffffffffffffffffff163373ffffffffffffffffffffffffffffffffffffffff161415610a0f576040517f08c379a0000000000000000000000000000000000000000000000000000000008152600401610a0690612b84565b60405180910390fd5b6000610a1a82610af8565b9050610a2f610a2883610af8565b3384610922565b610a3882610af8565b73ffffffffffffffffffffffffffffffffffffffff166108fc6103e8600a60149054906101000a900460ff1660ff16610a719190612c10565b61ffff1634610a809190612c41565b34610a8b9190612c9b565b9081150290604051600060405180830381858888f19350505050158015610ab6573d6000803e3d6000fd5b507f8fbb312813b34e3ab8dadf410f0cfe0d221cb7dff6eb3def72f03dee5bef7d9082338334604051610aec9493929190612ccf565b60405180910390a15050565b6000806002600084815260200190815260200160002060009054906101000a900473ffffffffffffffffffffffffffffffffffffffff169050600073ffffffffffffffffffffffffffffffffffffffff168173ffffffffffffffffffffffffffffffffffffffff161415610ba1576040517f08c379a0000000000000000000000000000000000000000000000000000000008152600401610b9890612d86565b60405180910390fd5b80915050919050565b60008073ffffffffffffffffffffffffffffffffffffffff168273ffffffffffffffffffffffffffffffffffffffff161415610c1b576040517f08c379a0000000000000000000000000000000000000000000000000000000008152600401610c1290612e18565b60405180910390fd5b600360008373ffffffffffffffffffffffffffffffffffffffff1673ffffffffffffffffffffffffffffffffffffffff168152602001908152602001600020549050919050565b610c6a6111ce565b73ffffffffffffffffffffffffffffffffffffffff16610c88610cea565b73ffffffffffffffffffffffffffffffffffffffff1614610cde576040517f08c379a0000000000000000000000000000000000000000000000000000000008152600401610cd590612e84565b60405180910390fd5b610ce860006115d4565b565b6000600760009054906101000a900473ffffffffffffffffffffffffffffffffffffffff16905090565b606060018054610d239061279a565b80601f0160208091040260200160405190810160405280929190818152602001828054610d4f9061279a565b8015610d9c5780601f10610d7157610100808354040283529160200191610d9c565b820191906000526020600020905b815481529060010190602001808311610d7f57829003601f168201915b5050505050905090565b600a60149054906101000a900460ff1681565b610dcb610dc46111ce565b838361169a565b5050565b610de0610dda6111ce565b8361128f565b610e1f576040517f08c379a0000000000000000000000000000000000000000000000000000000008152600401610e1690612aac565b60405180910390fd5b610e2b84848484611807565b50505050565b6060610e3c82611863565b9050919050565b60008060096000848152602001908152602001600020541415610e9b576040517f08c379a0000000000000000000000000000000000000000000000000000000008152600401610e9290612ef0565b60405180910390fd5b60096000838152602001908152602001600020549050919050565b6000600560008473ffffffffffffffffffffffffffffffffffffffff1673ffffffffffffffffffffffffffffffffffffffff16815260200190815260200160002060008373ffffffffffffffffffffffffffffffffffffffff1673ffffffffffffffffffffffffffffffffffffffff16815260200190815260200160002060009054906101000a900460ff16905092915050565b610f526111ce565b73ffffffffffffffffffffffffffffffffffffffff16610f70610cea565b73ffffffffffffffffffffffffffffffffffffffff1614610fc6576040517f08c379a0000000000000000000000000000000000000000000000000000000008152600401610fbd90612e84565b60405180910390fd5b600073ffffffffffffffffffffffffffffffffffffffff168173ffffffffffffffffffffffffffffffffffffffff161415611036576040517f08c379a000000000000000000000000000000000000000000000000000000000815260040161102d90612f82565b60405180910390fd5b61103f816115d4565b50565b60007f01ffc9a7000000000000000000000000000000000000000000000000000000007bffffffffffffffffffffffffffffffffffffffffffffffffffffffff1916827bffffffffffffffffffffffffffffffffffffffffffffffffffffffff1916149050919050565b60008073ffffffffffffffffffffffffffffffffffffffff166002600084815260200190815260200160002060009054906101000a900473ffffffffffffffffffffffffffffffffffffffff1673ffffffffffffffffffffffffffffffffffffffff1614159050919050565b6001816000016000828254019250508190555050565b600081600001549050919050565b6111568282604051806020016040528060008152506119b5565b5050565b611163826110ac565b6111a2576040517f08c379a000000000000000000000000000000000000000000000000000000000815260040161119990613014565b60405180910390fd5b806006600084815260200190815260200160002090805190602001906111c9929190611fbe565b505050565b600033905090565b816004600083815260200190815260200160002060006101000a81548173ffffffffffffffffffffffffffffffffffffffff021916908373ffffffffffffffffffffffffffffffffffffffff160217905550808273ffffffffffffffffffffffffffffffffffffffff1661124983610af8565b73ffffffffffffffffffffffffffffffffffffffff167f8c5be1e5ebec7d5bd14f71427d1e84f3dd0314c0f7b2291e5b200ac8c7c3b92560405160405180910390a45050565b600061129a826110ac565b6112d9576040517f08c379a00000000000000000000000000000000000000000000000000000000081526004016112d0906130a6565b60405180910390fd5b60006112e483610af8565b90508073ffffffffffffffffffffffffffffffffffffffff168473ffffffffffffffffffffffffffffffffffffffff16148061135357508373ffffffffffffffffffffffffffffffffffffffff1661133b84610655565b73ffffffffffffffffffffffffffffffffffffffff16145b8061136457506113638185610eb6565b5b91505092915050565b8273ffffffffffffffffffffffffffffffffffffffff1661138d82610af8565b73ffffffffffffffffffffffffffffffffffffffff16146113e3576040517f08c379a00000000000000000000000000000000000000000000000000000000081526004016113da90613138565b60405180910390fd5b600073ffffffffffffffffffffffffffffffffffffffff168273ffffffffffffffffffffffffffffffffffffffff161415611453576040517f08c379a000000000000000000000000000000000000000000000000000000000815260040161144a906131ca565b60405180910390fd5b61145e838383611a10565b6114696000826111d6565b6001600360008573ffffffffffffffffffffffffffffffffffffffff1673ffffffffffffffffffffffffffffffffffffffff16815260200190815260200160002060008282546114b99190612c9b565b925050819055506001600360008473ffffffffffffffffffffffffffffffffffffffff1673ffffffffffffffffffffffffffffffffffffffff168152602001908152602001600020600082825461151091906131ea565b92505081905550816002600083815260200190815260200160002060006101000a81548173ffffffffffffffffffffffffffffffffffffffff021916908373ffffffffffffffffffffffffffffffffffffffff160217905550808273ffffffffffffffffffffffffffffffffffffffff168473ffffffffffffffffffffffffffffffffffffffff167fddf252ad1be2c89b69c2b068fc378daa952ba7f163c4a11628f55a4df523b3ef60405160405180910390a46115cf838383611a15565b505050565b6000600760009054906101000a900473ffffffffffffffffffffffffffffffffffffffff16905081600760006101000a81548173ffffffffffffffffffffffffffffffffffffffff021916908373ffffffffffffffffffffffffffffffffffffffff1602179055508173ffffffffffffffffffffffffffffffffffffffff168173ffffffffffffffffffffffffffffffffffffffff167f8be0079c531659141344cd1fd0a4f28419497f9722a3daafe3b4186f6b6457e060405160405180910390a35050565b8173ffffffffffffffffffffffffffffffffffffffff168373ffffffffffffffffffffffffffffffffffffffff161415611709576040517f08c379a00000000000000000000000000000000000000000000000000000000081526004016117009061328c565b60405180910390fd5b80600560008573ffffffffffffffffffffffffffffffffffffffff1673ffffffffffffffffffffffffffffffffffffffff16815260200190815260200160002060008473ffffffffffffffffffffffffffffffffffffffff1673ffffffffffffffffffffffffffffffffffffffff16815260200190815260200160002060006101000a81548160ff0219169083151502179055508173ffffffffffffffffffffffffffffffffffffffff168373ffffffffffffffffffffffffffffffffffffffff167f17307eab39ab6107e8899845ad3d59bd9653f200f220920489ca2b5937696c31836040516117fa9190612115565b60405180910390a3505050565b61181284848461136d565b61181e84848484611a1a565b61185d576040517f08c379a00000000000000000000000000000000000000000000000000000000081526004016118549061331e565b60405180910390fd5b50505050565b606061186e826110ac565b6118ad576040517f08c379a00000000000000000000000000000000000000000000000000000000081526004016118a4906133b0565b60405180910390fd5b60006006600084815260200190815260200160002080546118cd9061279a565b80601f01602080910402602001604051908101604052809291908181526020018280546118f99061279a565b80156119465780601f1061191b57610100808354040283529160200191611946565b820191906000526020600020905b81548152906001019060200180831161192957829003601f168201915b505050505090506000611957611ba2565b905060008151141561196d5781925050506119b0565b6000825111156119a257808260405160200161198a92919061340c565b604051602081830303815290604052925050506119b0565b6119ab84611bb9565b925050505b919050565b6119bf8383611c60565b6119cc6000848484611a1a565b611a0b576040517f08c379a0000000000000000000000000000000000000000000000000000000008152600401611a029061331e565b60405180910390fd5b505050565b505050565b505050565b6000611a3b8473ffffffffffffffffffffffffffffffffffffffff16611e3a565b15611b95578373ffffffffffffffffffffffffffffffffffffffff1663150b7a02611a646111ce565b8786866040518563ffffffff1660e01b8152600401611a869493929190613485565b6020604051808303816000875af1925050508015611ac257506040513d601f19601f82011682018060405250810190611abf91906134e6565b60015b611b45573d8060008114611af2576040519150601f19603f3d011682016040523d82523d6000602084013e611af7565b606091505b50600081511415611b3d576040517f08c379a0000000000000000000000000000000000000000000000000000000008152600401611b349061331e565b60405180910390fd5b805181602001fd5b63150b7a0260e01b7bffffffffffffffffffffffffffffffffffffffffffffffffffffffff1916817bffffffffffffffffffffffffffffffffffffffffffffffffffffffff191614915050611b9a565b600190505b949350505050565b606060405180602001604052806000815250905090565b6060611bc4826110ac565b611c03576040517f08c379a0000000000000000000000000000000000000000000000000000000008152600401611bfa90613585565b60405180910390fd5b6000611c0d611ba2565b90506000815111611c2d5760405180602001604052806000815250611c58565b80611c3784611e5d565b604051602001611c4892919061340c565b6040516020818303038152906040525b915050919050565b600073ffffffffffffffffffffffffffffffffffffffff168273ffffffffffffffffffffffffffffffffffffffff161415611cd0576040517f08c379a0000000000000000000000000000000000000000000000000000000008152600401611cc7906135f1565b60405180910390fd5b611cd9816110ac565b15611d19576040517f08c379a0000000000000000000000000000000000000000000000000000000008152600401611d109061365d565b60405180910390fd5b611d2560008383611a10565b6001600360008473ffffffffffffffffffffffffffffffffffffffff1673ffffffffffffffffffffffffffffffffffffffff1681526020019081526020016000206000828254611d7591906131ea565b92505081905550816002600083815260200190815260200160002060006101000a81548173ffffffffffffffffffffffffffffffffffffffff021916908373ffffffffffffffffffffffffffffffffffffffff160217905550808273ffffffffffffffffffffffffffffffffffffffff16600073ffffffffffffffffffffffffffffffffffffffff167fddf252ad1be2c89b69c2b068fc378daa952ba7f163c4a11628f55a4df523b3ef60405160405180910390a4611e3660008383611a15565b5050565b6000808273ffffffffffffffffffffffffffffffffffffffff163b119050919050565b60606000821415611ea5576040518060400160405280600181526020017f30000000000000000000000000000000000000000000000000000000000000008152509050611fb9565b600082905060005b60008214611ed7578080611ec09061367d565b915050600a82611ed091906136c6565b9150611ead565b60008167ffffffffffffffff811115611ef357611ef26122e0565b5b6040519080825280601f01601f191660200182016040528015611f255781602001600182028036833780820191505090505b5090505b60008514611fb257600182611f3e9190612c9b565b9150600a85611f4d91906136f7565b6030611f5991906131ea565b60f81b818381518110611f6f57611f6e613728565b5b60200101907effffffffffffffffffffffffffffffffffffffffffffffffffffffffffffff1916908160001a905350600a85611fab91906136c6565b9450611f29565b8093505050505b919050565b828054611fca9061279a565b90600052602060002090601f016020900481019282611fec5760008555612033565b82601f1061200557805160ff1916838001178555612033565b82800160010185558215612033579182015b82811115612032578251825591602001919060010190612017565b5b5090506120409190612044565b5090565b5b8082111561205d576000816000905550600101612045565b5090565b6000604051905090565b600080fd5b600080fd5b60007fffffffff0000000000000000000000000000000000000000000000000000000082169050919050565b6120aa81612075565b81146120b557600080fd5b50565b6000813590506120c7816120a1565b92915050565b6000602082840312156120e3576120e261206b565b5b60006120f1848285016120b8565b91505092915050565b60008115159050919050565b61210f816120fa565b82525050565b600060208201905061212a6000830184612106565b92915050565b600081519050919050565b600082825260208201905092915050565b60005b8381101561216a57808201518184015260208101905061214f565b83811115612179576000848401525b50505050565b6000601f19601f8301169050919050565b600061219b82612130565b6121a5818561213b565b93506121b581856020860161214c565b6121be8161217f565b840191505092915050565b600060208201905081810360008301526121e38184612190565b905092915050565b6000819050919050565b6121fe816121eb565b811461220957600080fd5b50565b60008135905061221b816121f5565b92915050565b6000602082840312156122375761223661206b565b5b60006122458482850161220c565b91505092915050565b600073ffffffffffffffffffffffffffffffffffffffff82169050919050565b60006122798261224e565b9050919050565b6122898161226e565b82525050565b60006020820190506122a46000830184612280565b92915050565b6122b38161226e565b81146122be57600080fd5b50565b6000813590506122d0816122aa565b92915050565b600080fd5b600080fd5b7f4e487b7100000000000000000000000000000000000000000000000000000000600052604160045260246000fd5b6123188261217f565b810181811067ffffffffffffffff82111715612337576123366122e0565b5b80604052505050565b600061234a612061565b9050612356828261230f565b919050565b600067ffffffffffffffff821115612376576123756122e0565b5b61237f8261217f565b9050602081019050919050565b82818337600083830152505050565b60006123ae6123a98461235b565b612340565b9050828152602081018484840111156123ca576123c96122db565b5b6123d584828561238c565b509392505050565b600082601f8301126123f2576123f16122d6565b5b813561240284826020860161239b565b91505092915050565b6000806000606084860312156124245761242361206b565b5b6000612432868287016122c1565b935050602084013567ffffffffffffffff81111561245357612452612070565b5b61245f868287016123dd565b92505060406124708682870161220c565b9150509250925092565b612483816121eb565b82525050565b600060208201905061249e600083018461247a565b92915050565b600080604083850312156124bb576124ba61206b565b5b60006124c9858286016122c1565b92505060206124da8582860161220c565b9150509250929050565b6000806000606084860312156124fd576124fc61206b565b5b600061250b868287016122c1565b935050602061251c868287016122c1565b925050604061252d8682870161220c565b9150509250925092565b60006020828403121561254d5761254c61206b565b5b600061255b848285016122c1565b91505092915050565b600060ff82169050919050565b61257a81612564565b82525050565b60006020820190506125956000830184612571565b92915050565b6125a4816120fa565b81146125af57600080fd5b50565b6000813590506125c18161259b565b92915050565b600080604083850312156125de576125dd61206b565b5b60006125ec858286016122c1565b92505060206125fd858286016125b2565b9150509250929050565b600067ffffffffffffffff821115612622576126216122e0565b5b61262b8261217f565b9050602081019050919050565b600061264b61264684612607565b612340565b905082815260208101848484011115612667576126666122db565b5b61267284828561238c565b509392505050565b600082601f83011261268f5761268e6122d6565b5b813561269f848260208601612638565b91505092915050565b600080600080608085870312156126c2576126c161206b565b5b60006126d0878288016122c1565b94505060206126e1878288016122c1565b93505060406126f28782880161220c565b925050606085013567ffffffffffffffff81111561271357612712612070565b5b61271f8782880161267a565b91505092959194509250565b600080604083850312156127425761274161206b565b5b6000612750858286016122c1565b9250506020612761858286016122c1565b9150509250929050565b7f4e487b7100000000000000000000000000000000000000000000000000000000600052602260045260246000fd5b600060028204905060018216806127b257607f821691505b602082108114156127c6576127c561276b565b5b50919050565b7f4552433732313a20617070726f76656420717565727920666f72206e6f6e657860008201527f697374656e7420746f6b656e0000000000000000000000000000000000000000602082015250565b6000612828602c8361213b565b9150612833826127cc565b604082019050919050565b600060208201905081810360008301526128578161281b565b9050919050565b7f5072696365206d7573742062652067726561746572207468616e203000000000600082015250565b6000612894601c8361213b565b915061289f8261285e565b602082019050919050565b600060208201905081810360008301526128c381612887565b9050919050565b60006080820190506128df6000830187612280565b6128ec602083018661247a565b81810360408301526128fe8185612190565b905061290d606083018461247a565b95945050505050565b7f4552433732313a20617070726f76616c20746f2063757272656e74206f776e6560008201527f7200000000000000000000000000000000000000000000000000000000000000602082015250565b600061297260218361213b565b915061297d82612916565b604082019050919050565b600060208201905081810360008301526129a181612965565b9050919050565b7f4552433732313a20617070726f76652063616c6c6572206973206e6f74206f7760008201527f6e6572206e6f7220617070726f76656420666f7220616c6c0000000000000000602082015250565b6000612a0460388361213b565b9150612a0f826129a8565b604082019050919050565b60006020820190508181036000830152612a33816129f7565b9050919050565b7f4552433732313a207472616e736665722063616c6c6572206973206e6f74206f60008201527f776e6572206e6f7220617070726f766564000000000000000000000000000000602082015250565b6000612a9660318361213b565b9150612aa182612a3a565b604082019050919050565b60006020820190508181036000830152612ac581612a89565b9050919050565b7f496e73756666696369656e74206777656920666f722070757263686173650000600082015250565b6000612b02601e8361213b565b9150612b0d82612acc565b602082019050919050565b60006020820190508181036000830152612b3181612af5565b9050919050565b7f596f752063616e6e6f742062757920796f7572206f776e204e46540000000000600082015250565b6000612b6e601b8361213b565b9150612b7982612b38565b602082019050919050565b60006020820190508181036000830152612b9d81612b61565b9050919050565b600061ffff82169050919050565b7f4e487b7100000000000000000000000000000000000000000000000000000000600052601260045260246000fd5b7f4e487b7100000000000000000000000000000000000000000000000000000000600052601160045260246000fd5b6000612c1b82612ba4565b9150612c2683612ba4565b925082612c3657612c35612bb2565b5b828204905092915050565b6000612c4c826121eb565b9150612c57836121eb565b9250817fffffffffffffffffffffffffffffffffffffffffffffffffffffffffffffffff0483118215151615612c9057612c8f612be1565b5b828202905092915050565b6000612ca6826121eb565b9150612cb1836121eb565b925082821015612cc457612cc3612be1565b5b828203905092915050565b6000608082019050612ce4600083018761247a565b612cf16020830186612280565b612cfe6040830185612280565b612d0b606083018461247a565b95945050505050565b7f4552433732313a206f776e657220717565727920666f72206e6f6e657869737460008201527f656e7420746f6b656e0000000000000000000000000000000000000000000000602082015250565b6000612d7060298361213b565b9150612d7b82612d14565b604082019050919050565b60006020820190508181036000830152612d9f81612d63565b9050919050565b7f4552433732313a2062616c616e636520717565727920666f7220746865207a6560008201527f726f206164647265737300000000000000000000000000000000000000000000602082015250565b6000612e02602a8361213b565b9150612e0d82612da6565b604082019050919050565b60006020820190508181036000830152612e3181612df5565b9050919050565b7f4f776e61626c653a2063616c6c6572206973206e6f7420746865206f776e6572600082015250565b6000612e6e60208361213b565b9150612e7982612e38565b602082019050919050565b60006020820190508181036000830152612e9d81612e61565b9050919050565b7f546f6b656e20707269636520646f6573206e6f74206578697374000000000000600082015250565b6000612eda601a8361213b565b9150612ee582612ea4565b602082019050919050565b60006020820190508181036000830152612f0981612ecd565b9050919050565b7f4f776e61626c653a206e6577206f776e657220697320746865207a65726f206160008201527f6464726573730000000000000000000000000000000000000000000000000000602082015250565b6000612f6c60268361213b565b9150612f7782612f10565b604082019050919050565b60006020820190508181036000830152612f9b81612f5f565b9050919050565b7f45524337323155524953746f726167653a2055524920736574206f66206e6f6e60008201527f6578697374656e7420746f6b656e000000000000000000000000000000000000602082015250565b6000612ffe602e8361213b565b915061300982612fa2565b604082019050919050565b6000602082019050818103600083015261302d81612ff1565b9050919050565b7f4552433732313a206f70657261746f7220717565727920666f72206e6f6e657860008201527f697374656e7420746f6b656e0000000000000000000000000000000000000000602082015250565b6000613090602c8361213b565b915061309b82613034565b604082019050919050565b600060208201905081810360008301526130bf81613083565b9050919050565b7f4552433732313a207472616e736665722066726f6d20696e636f72726563742060008201527f6f776e6572000000000000000000000000000000000000000000000000000000602082015250565b600061312260258361213b565b915061312d826130c6565b604082019050919050565b6000602082019050818103600083015261315181613115565b9050919050565b7f4552433732313a207472616e7366657220746f20746865207a65726f2061646460008201527f7265737300000000000000000000000000000000000000000000000000000000602082015250565b60006131b460248361213b565b91506131bf82613158565b604082019050919050565b600060208201905081810360008301526131e3816131a7565b9050919050565b60006131f5826121eb565b9150613200836121eb565b9250827fffffffffffffffffffffffffffffffffffffffffffffffffffffffffffffffff0382111561323557613234612be1565b5b828201905092915050565b7f4552433732313a20617070726f766520746f2063616c6c657200000000000000600082015250565b600061327660198361213b565b915061328182613240565b602082019050919050565b600060208201905081810360008301526132a581613269565b9050919050565b7f4552433732313a207472616e7366657220746f206e6f6e20455243373231526560008201527f63656976657220696d706c656d656e7465720000000000000000000000000000602082015250565b600061330860328361213b565b9150613313826132ac565b604082019050919050565b60006020820190508181036000830152613337816132fb565b9050919050565b7f45524337323155524953746f726167653a2055524920717565727920666f722060008201527f6e6f6e6578697374656e7420746f6b656e000000000000000000000000000000602082015250565b600061339a60318361213b565b91506133a58261333e565b604082019050919050565b600060208201905081810360008301526133c98161338d565b9050919050565b600081905092915050565b60006133e682612130565b6133f081856133d0565b935061340081856020860161214c565b80840191505092915050565b600061341882856133db565b915061342482846133db565b91508190509392505050565b600081519050919050565b600082825260208201905092915050565b600061345782613430565b613461818561343b565b935061347181856020860161214c565b61347a8161217f565b840191505092915050565b600060808201905061349a6000830187612280565b6134a76020830186612280565b6134b4604083018561247a565b81810360608301526134c6818461344c565b905095945050505050565b6000815190506134e0816120a1565b92915050565b6000602082840312156134fc576134fb61206b565b5b600061350a848285016134d1565b91505092915050565b7f4552433732314d657461646174613a2055524920717565727920666f72206e6f60008201527f6e6578697374656e7420746f6b656e0000000000000000000000000000000000602082015250565b600061356f602f8361213b565b915061357a82613513565b604082019050919050565b6000602082019050818103600083015261359e81613562565b9050919050565b7f4552433732313a206d696e7420746f20746865207a65726f2061646472657373600082015250565b60006135db60208361213b565b91506135e6826135a5565b602082019050919050565b6000602082019050818103600083015261360a816135ce565b9050919050565b7f4552433732313a20746f6b656e20616c7265616479206d696e74656400000000600082015250565b6000613647601c8361213b565b915061365282613611565b602082019050919050565b600060208201905081810360008301526136768161363a565b9050919050565b6000613688826121eb565b91507fffffffffffffffffffffffffffffffffffffffffffffffffffffffffffffffff8214156136bb576136ba612be1565b5b600182019050919050565b60006136d1826121eb565b91506136dc836121eb565b9250826136ec576136eb612bb2565b5b828204905092915050565b6000613702826121eb565b915061370d836121eb565b92508261371d5761371c612bb2565b5b828206905092915050565b7f4e487b7100000000000000000000000000000000000000000000000000000000600052603260045260246000fdfea2646970667358221220eb31f8b4264e29a1fdf88585817692520eaba2c8149ec904aaf785634d03a65464736f6c634300080b0033",
  "linkReferences": {},
  "deployedLinkReferences": {}
}