{
  "_format": "hh-sol-artifact-1",
  "contractName": "NudeNFT",
  "sourceName": "contracts/NudeNFT.sol",
  "abi": [
    {
      "inputs": [],
      "stateMutability": "nonpayable",
      "type": "constructor"
    },
    {
      "anonymous": false,
      "inputs": [
        {
          "indexed": true,
          "internalType": "address",
          "name": "owner",
          "type": "address"
        },
        {
          "indexed": true,
          "internalType": "address",
          "name": "approved",
          "type": "address"
        },
        {
          "indexed": true,
          "internalType": "uint256",
          "name": "tokenId",
          "type": "uint256"
        }
      ],
      "name": "Approval",
      "type": "event"
    },
    {
      "anonymous": false,
      "inputs": [
        {
          "indexed": true,
          "internalType": "address",
          "name": "owner",
          "type": "address"
        },
        {
          "indexed": true,
          "internalType": "address",
          "name": "operator",
          "type": "address"
        },
        {
          "indexed": false,
          "internalType": "bool",
          "name": "approved",
          "type": "bool"
        }
      ],
      "name": "ApprovalForAll",
      "type": "event"
    },
    {
      "anonymous": false,
      "inputs": [
        {
          "indexed": true,
          "internalType": "address",
          "name": "previousOwner",
          "type": "address"
        },
        {
          "indexed": true,
          "internalType": "address",
          "name": "newOwner",
          "type": "address"
        }
      ],
      "name": "OwnershipTransferred",
      "type": "event"
    },
    {
      "anonymous": false,
      "inputs": [
        {
          "indexed": true,
          "internalType": "address",
          "name": "from",
          "type": "address"
        },
        {
          "indexed": true,
          "internalType": "address",
          "name": "to",
          "type": "address"
        },
        {
          "indexed": true,
          "internalType": "uint256",
          "name": "tokenId",
          "type": "uint256"
        }
      ],
      "name": "Transfer",
      "type": "event"
    },
    {
      "anonymous": false,
      "inputs": [
        {
          "indexed": false,
          "internalType": "address",
          "name": "recipient",
          "type": "address"
        },
        {
          "indexed": false,
          "internalType": "uint256",
          "name": "tokenId",
          "type": "uint256"
        },
        {
          "indexed": false,
          "internalType": "string",
          "name": "tokenURI",
          "type": "string"
        },
        {
          "indexed": false,
          "internalType": "uint256",
          "name": "price",
          "type": "uint256"
        }
      ],
      "name": "newNFTMinted",
      "type": "event"
    },
    {
      "inputs": [
        {
          "internalType": "address",
          "name": "to",
          "type": "address"
        },
        {
          "internalType": "uint256",
          "name": "tokenId",
          "type": "uint256"
        }
      ],
      "name": "approve",
      "outputs": [],
      "stateMutability": "nonpayable",
      "type": "function"
    },
    {
      "inputs": [
        {
          "internalType": "address",
          "name": "owner",
          "type": "address"
        }
      ],
      "name": "balanceOf",
      "outputs": [
        {
          "internalType": "uint256",
          "name": "",
          "type": "uint256"
        }
      ],
      "stateMutability": "view",
      "type": "function"
    },
    {
      "inputs": [
        {
          "internalType": "uint256",
          "name": "tokenId",
          "type": "uint256"
        }
      ],
      "name": "buyNFT",
      "outputs": [],
      "stateMutability": "payable",
      "type": "function"
    },
    {
      "inputs": [
        {
          "internalType": "uint256",
          "name": "tokenId",
          "type": "uint256"
        }
      ],
      "name": "getApproved",
      "outputs": [
        {
          "internalType": "address",
          "name": "",
          "type": "address"
        }
      ],
      "stateMutability": "view",
      "type": "function"
    },
    {
      "inputs": [
        {
          "internalType": "address",
          "name": "owner",
          "type": "address"
        },
        {
          "internalType": "address",
          "name": "operator",
          "type": "address"
        }
      ],
      "name": "isApprovedForAll",
      "outputs": [
        {
          "internalType": "bool",
          "name": "",
          "type": "bool"
        }
      ],
      "stateMutability": "view",
      "type": "function"
    },
    {
      "inputs": [
        {
          "internalType": "address",
          "name": "recipient",
          "type": "address"
        },
        {
          "internalType": "string",
          "name": "tokenURI",
          "type": "string"
        },
        {
          "internalType": "uint256",
          "name": "price",
          "type": "uint256"
        }
      ],
      "name": "mintNFT",
      "outputs": [
        {
          "internalType": "uint256",
          "name": "",
          "type": "uint256"
        }
      ],
      "stateMutability": "nonpayable",
      "type": "function"
    },
    {
      "inputs": [],
      "name": "name",
      "outputs": [
        {
          "internalType": "string",
          "name": "",
          "type": "string"
        }
      ],
      "stateMutability": "view",
      "type": "function"
    },
    {
      "inputs": [],
      "name": "owner",
      "outputs": [
        {
          "internalType": "address",
          "name": "",
          "type": "address"
        }
      ],
      "stateMutability": "view",
      "type": "function"
    },
    {
      "inputs": [
        {
          "internalType": "uint256",
          "name": "tokenId",
          "type": "uint256"
        }
      ],
      "name": "ownerOf",
      "outputs": [
        {
          "internalType": "address",
          "name": "",
          "type": "address"
        }
      ],
      "stateMutability": "view",
      "type": "function"
    },
    {
      "inputs": [],
      "name": "renounceOwnership",
      "outputs": [],
      "stateMutability": "nonpayable",
      "type": "function"
    },
    {
      "inputs": [
        {
          "internalType": "address",
          "name": "from",
          "type": "address"
        },
        {
          "internalType": "address",
          "name": "to",
          "type": "address"
        },
        {
          "internalType": "uint256",
          "name": "tokenId",
          "type": "uint256"
        }
      ],
      "name": "safeTransferFrom",
      "outputs": [],
      "stateMutability": "nonpayable",
      "type": "function"
    },
    {
      "inputs": [
        {
          "internalType": "address",
          "name": "from",
          "type": "address"
        },
        {
          "internalType": "address",
          "name": "to",
          "type": "address"
        },
        {
          "internalType": "uint256",
          "name": "tokenId",
          "type": "uint256"
        },
        {
          "internalType": "bytes",
          "name": "_data",
          "type": "bytes"
        }
      ],
      "name": "safeTransferFrom",
      "outputs": [],
      "stateMutability": "nonpayable",
      "type": "function"
    },
    {
      "inputs": [
        {
          "internalType": "address",
          "name": "operator",
          "type": "address"
        },
        {
          "internalType": "bool",
          "name": "approved",
          "type": "bool"
        }
      ],
      "name": "setApprovalForAll",
      "outputs": [],
      "stateMutability": "nonpayable",
      "type": "function"
    },
    {
      "inputs": [
        {
          "internalType": "bytes4",
          "name": "interfaceId",
          "type": "bytes4"
        }
      ],
      "name": "supportsInterface",
      "outputs": [
        {
          "internalType": "bool",
          "name": "",
          "type": "bool"
        }
      ],
      "stateMutability": "view",
      "type": "function"
    },
    {
      "inputs": [],
      "name": "symbol",
      "outputs": [
        {
          "internalType": "string",
          "name": "",
          "type": "string"
        }
      ],
      "stateMutability": "view",
      "type": "function"
    },
    {
      "inputs": [
        {
          "internalType": "uint256",
          "name": "tokenId",
          "type": "uint256"
        }
      ],
      "name": "tokenURI",
      "outputs": [
        {
          "internalType": "string",
          "name": "",
          "type": "string"
        }
      ],
      "stateMutability": "view",
      "type": "function"
    },
    {
      "inputs": [
        {
          "internalType": "address",
          "name": "from",
          "type": "address"
        },
        {
          "internalType": "address",
          "name": "to",
          "type": "address"
        },
        {
          "internalType": "uint256",
          "name": "tokenId",
          "type": "uint256"
        }
      ],
      "name": "transferFrom",
      "outputs": [],
      "stateMutability": "nonpayable",
      "type": "function"
    },
    {
      "inputs": [
        {
          "internalType": "address",
          "name": "newOwner",
          "type": "address"
        }
      ],
      "name": "transferOwnership",
      "outputs": [],
      "stateMutability": "nonpayable",
      "type": "function"
    }
  ],
  "bytecode": "0x60806040523480156200001157600080fd5b506040518060400160405280600781526020017f4e7564654e4654000000000000000000000000000000000000000000000000008152506040518060400160405280600781526020017f4e5544454e465400000000000000000000000000000000000000000000000000815250816000908051906020019062000096929190620001a6565b508060019080519060200190620000af929190620001a6565b505050620000d2620000c6620000d860201b60201c565b620000e060201b60201c565b620002bb565b600033905090565b6000600760009054906101000a900473ffffffffffffffffffffffffffffffffffffffff16905081600760006101000a81548173ffffffffffffffffffffffffffffffffffffffff021916908373ffffffffffffffffffffffffffffffffffffffff1602179055508173ffffffffffffffffffffffffffffffffffffffff168173ffffffffffffffffffffffffffffffffffffffff167f8be0079c531659141344cd1fd0a4f28419497f9722a3daafe3b4186f6b6457e060405160405180910390a35050565b828054620001b49062000285565b90600052602060002090601f016020900481019282620001d8576000855562000224565b82601f10620001f357805160ff191683800117855562000224565b8280016001018555821562000224579182015b828111156200022357825182559160200191906001019062000206565b5b50905062000233919062000237565b5090565b5b808211156200025257600081600090555060010162000238565b5090565b7f4e487b7100000000000000000000000000000000000000000000000000000000600052602260045260246000fd5b600060028204905060018216806200029e57607f821691505b60208210811415620002b557620002b462000256565b5b50919050565b61335280620002cb6000396000f3fe6080604052600436106101095760003560e01c806370a0823111610095578063a22cb46511610064578063a22cb4651461036e578063b88d4fde14610397578063c87b56dd146103c0578063e985e9c5146103fd578063f2fde38b1461043a57610109565b806370a08231146102c4578063715018a6146103015780638da5cb5b1461031857806395d89b411461034357610109565b8063095ea7b3116100dc578063095ea7b3146101f057806323b872dd1461021957806342842e0e1461024257806351ed82881461026b5780636352211e1461028757610109565b806301ffc9a71461010e57806306fdde031461014b578063081812fc1461017657806308598df0146101b3575b600080fd5b34801561011a57600080fd5b5061013560048036038101906101309190611e7f565b610463565b6040516101429190611ec7565b60405180910390f35b34801561015757600080fd5b50610160610545565b60405161016d9190611f7b565b60405180910390f35b34801561018257600080fd5b5061019d60048036038101906101989190611fd3565b6105d7565b6040516101aa9190612041565b60405180910390f35b3480156101bf57600080fd5b506101da60048036038101906101d591906121bd565b61065c565b6040516101e7919061223b565b60405180910390f35b3480156101fc57600080fd5b5061021760048036038101906102129190612256565b61072c565b005b34801561022557600080fd5b50610240600480360381019061023b9190612296565b610844565b005b34801561024e57600080fd5b5061026960048036038101906102649190612296565b6108a4565b005b61028560048036038101906102809190611fd3565b6108c4565b005b34801561029357600080fd5b506102ae60048036038101906102a99190611fd3565b610930565b6040516102bb9190612041565b60405180910390f35b3480156102d057600080fd5b506102eb60048036038101906102e691906122e9565b6109e2565b6040516102f8919061223b565b60405180910390f35b34801561030d57600080fd5b50610316610a9a565b005b34801561032457600080fd5b5061032d610b22565b60405161033a9190612041565b60405180910390f35b34801561034f57600080fd5b50610358610b4c565b6040516103659190611f7b565b60405180910390f35b34801561037a57600080fd5b5061039560048036038101906103909190612342565b610bde565b005b3480156103a357600080fd5b506103be60048036038101906103b99190612423565b610bf4565b005b3480156103cc57600080fd5b506103e760048036038101906103e29190611fd3565b610c56565b6040516103f49190611f7b565b60405180910390f35b34801561040957600080fd5b50610424600480360381019061041f91906124a6565b610c68565b6040516104319190611ec7565b60405180910390f35b34801561044657600080fd5b50610461600480360381019061045c91906122e9565b610cfc565b005b60007f80ac58cd000000000000000000000000000000000000000000000000000000007bffffffffffffffffffffffffffffffffffffffffffffffffffffffff1916827bffffffffffffffffffffffffffffffffffffffffffffffffffffffff1916148061052e57507f5b5e139f000000000000000000000000000000000000000000000000000000007bffffffffffffffffffffffffffffffffffffffffffffffffffffffff1916827bffffffffffffffffffffffffffffffffffffffffffffffffffffffff1916145b8061053e575061053d82610df4565b5b9050919050565b60606000805461055490612515565b80601f016020809104026020016040519081016040528092919081815260200182805461058090612515565b80156105cd5780601f106105a2576101008083540402835291602001916105cd565b820191906000526020600020905b8154815290600101906020018083116105b057829003601f168201915b5050505050905090565b60006105e282610e5e565b610621576040517f08c379a0000000000000000000000000000000000000000000000000000000008152600401610618906125b9565b60405180910390fd5b6004600083815260200190815260200160002060009054906101000a900473ffffffffffffffffffffffffffffffffffffffff169050919050565b60008082116106a0576040517f08c379a000000000000000000000000000000000000000000000000000000000815260040161069790612625565b60405180910390fd5b6106aa6008610eca565b60006106b66008610ee0565b90506106c28582610eee565b6106cc8185610f0c565b8260096000838152602001908152602001600020819055507f7ad3b13b7c3746750560e47a50427c59add26e172574ed9eae86be47839170a3858286866040516107199493929190612645565b60405180910390a1809150509392505050565b600061073782610930565b90508073ffffffffffffffffffffffffffffffffffffffff168373ffffffffffffffffffffffffffffffffffffffff1614156107a8576040517f08c379a000000000000000000000000000000000000000000000000000000000815260040161079f90612703565b60405180910390fd5b8073ffffffffffffffffffffffffffffffffffffffff166107c7610f80565b73ffffffffffffffffffffffffffffffffffffffff1614806107f657506107f5816107f0610f80565b610c68565b5b610835576040517f08c379a000000000000000000000000000000000000000000000000000000000815260040161082c90612795565b60405180910390fd5b61083f8383610f88565b505050565b61085561084f610f80565b82611041565b610894576040517f08c379a000000000000000000000000000000000000000000000000000000000815260040161088b90612827565b60405180910390fd5b61089f83838361111f565b505050565b6108bf83838360405180602001604052806000815250610bf4565b505050565b600960008281526020019081526020016000205434101561091a576040517f08c379a000000000000000000000000000000000000000000000000000000000815260040161091190612893565b60405180910390fd5b61092d61092682610930565b33836108a4565b50565b6000806002600084815260200190815260200160002060009054906101000a900473ffffffffffffffffffffffffffffffffffffffff169050600073ffffffffffffffffffffffffffffffffffffffff168173ffffffffffffffffffffffffffffffffffffffff1614156109d9576040517f08c379a00000000000000000000000000000000000000000000000000000000081526004016109d090612925565b60405180910390fd5b80915050919050565b60008073ffffffffffffffffffffffffffffffffffffffff168273ffffffffffffffffffffffffffffffffffffffff161415610a53576040517f08c379a0000000000000000000000000000000000000000000000000000000008152600401610a4a906129b7565b60405180910390fd5b600360008373ffffffffffffffffffffffffffffffffffffffff1673ffffffffffffffffffffffffffffffffffffffff168152602001908152602001600020549050919050565b610aa2610f80565b73ffffffffffffffffffffffffffffffffffffffff16610ac0610b22565b73ffffffffffffffffffffffffffffffffffffffff1614610b16576040517f08c379a0000000000000000000000000000000000000000000000000000000008152600401610b0d90612a23565b60405180910390fd5b610b206000611386565b565b6000600760009054906101000a900473ffffffffffffffffffffffffffffffffffffffff16905090565b606060018054610b5b90612515565b80601f0160208091040260200160405190810160405280929190818152602001828054610b8790612515565b8015610bd45780601f10610ba957610100808354040283529160200191610bd4565b820191906000526020600020905b815481529060010190602001808311610bb757829003601f168201915b5050505050905090565b610bf0610be9610f80565b838361144c565b5050565b610c05610bff610f80565b83611041565b610c44576040517f08c379a0000000000000000000000000000000000000000000000000000000008152600401610c3b90612827565b60405180910390fd5b610c50848484846115b9565b50505050565b6060610c6182611615565b9050919050565b6000600560008473ffffffffffffffffffffffffffffffffffffffff1673ffffffffffffffffffffffffffffffffffffffff16815260200190815260200160002060008373ffffffffffffffffffffffffffffffffffffffff1673ffffffffffffffffffffffffffffffffffffffff16815260200190815260200160002060009054906101000a900460ff16905092915050565b610d04610f80565b73ffffffffffffffffffffffffffffffffffffffff16610d22610b22565b73ffffffffffffffffffffffffffffffffffffffff1614610d78576040517f08c379a0000000000000000000000000000000000000000000000000000000008152600401610d6f90612a23565b60405180910390fd5b600073ffffffffffffffffffffffffffffffffffffffff168173ffffffffffffffffffffffffffffffffffffffff161415610de8576040517f08c379a0000000000000000000000000000000000000000000000000000000008152600401610ddf90612ab5565b60405180910390fd5b610df181611386565b50565b60007f01ffc9a7000000000000000000000000000000000000000000000000000000007bffffffffffffffffffffffffffffffffffffffffffffffffffffffff1916827bffffffffffffffffffffffffffffffffffffffffffffffffffffffff1916149050919050565b60008073ffffffffffffffffffffffffffffffffffffffff166002600084815260200190815260200160002060009054906101000a900473ffffffffffffffffffffffffffffffffffffffff1673ffffffffffffffffffffffffffffffffffffffff1614159050919050565b6001816000016000828254019250508190555050565b600081600001549050919050565b610f08828260405180602001604052806000815250611767565b5050565b610f1582610e5e565b610f54576040517f08c379a0000000000000000000000000000000000000000000000000000000008152600401610f4b90612b47565b60405180910390fd5b80600660008481526020019081526020016000209080519060200190610f7b929190611d70565b505050565b600033905090565b816004600083815260200190815260200160002060006101000a81548173ffffffffffffffffffffffffffffffffffffffff021916908373ffffffffffffffffffffffffffffffffffffffff160217905550808273ffffffffffffffffffffffffffffffffffffffff16610ffb83610930565b73ffffffffffffffffffffffffffffffffffffffff167f8c5be1e5ebec7d5bd14f71427d1e84f3dd0314c0f7b2291e5b200ac8c7c3b92560405160405180910390a45050565b600061104c82610e5e565b61108b576040517f08c379a000000000000000000000000000000000000000000000000000000000815260040161108290612bd9565b60405180910390fd5b600061109683610930565b90508073ffffffffffffffffffffffffffffffffffffffff168473ffffffffffffffffffffffffffffffffffffffff16148061110557508373ffffffffffffffffffffffffffffffffffffffff166110ed846105d7565b73ffffffffffffffffffffffffffffffffffffffff16145b8061111657506111158185610c68565b5b91505092915050565b8273ffffffffffffffffffffffffffffffffffffffff1661113f82610930565b73ffffffffffffffffffffffffffffffffffffffff1614611195576040517f08c379a000000000000000000000000000000000000000000000000000000000815260040161118c90612c6b565b60405180910390fd5b600073ffffffffffffffffffffffffffffffffffffffff168273ffffffffffffffffffffffffffffffffffffffff161415611205576040517f08c379a00000000000000000000000000000000000000000000000000000000081526004016111fc90612cfd565b60405180910390fd5b6112108383836117c2565b61121b600082610f88565b6001600360008573ffffffffffffffffffffffffffffffffffffffff1673ffffffffffffffffffffffffffffffffffffffff168152602001908152602001600020600082825461126b9190612d4c565b925050819055506001600360008473ffffffffffffffffffffffffffffffffffffffff1673ffffffffffffffffffffffffffffffffffffffff16815260200190815260200160002060008282546112c29190612d80565b92505081905550816002600083815260200190815260200160002060006101000a81548173ffffffffffffffffffffffffffffffffffffffff021916908373ffffffffffffffffffffffffffffffffffffffff160217905550808273ffffffffffffffffffffffffffffffffffffffff168473ffffffffffffffffffffffffffffffffffffffff167fddf252ad1be2c89b69c2b068fc378daa952ba7f163c4a11628f55a4df523b3ef60405160405180910390a46113818383836117c7565b505050565b6000600760009054906101000a900473ffffffffffffffffffffffffffffffffffffffff16905081600760006101000a81548173ffffffffffffffffffffffffffffffffffffffff021916908373ffffffffffffffffffffffffffffffffffffffff1602179055508173ffffffffffffffffffffffffffffffffffffffff168173ffffffffffffffffffffffffffffffffffffffff167f8be0079c531659141344cd1fd0a4f28419497f9722a3daafe3b4186f6b6457e060405160405180910390a35050565b8173ffffffffffffffffffffffffffffffffffffffff168373ffffffffffffffffffffffffffffffffffffffff1614156114bb576040517f08c379a00000000000000000000000000000000000000000000000000000000081526004016114b290612e22565b60405180910390fd5b80600560008573ffffffffffffffffffffffffffffffffffffffff1673ffffffffffffffffffffffffffffffffffffffff16815260200190815260200160002060008473ffffffffffffffffffffffffffffffffffffffff1673ffffffffffffffffffffffffffffffffffffffff16815260200190815260200160002060006101000a81548160ff0219169083151502179055508173ffffffffffffffffffffffffffffffffffffffff168373ffffffffffffffffffffffffffffffffffffffff167f17307eab39ab6107e8899845ad3d59bd9653f200f220920489ca2b5937696c31836040516115ac9190611ec7565b60405180910390a3505050565b6115c484848461111f565b6115d0848484846117cc565b61160f576040517f08c379a000000000000000000000000000000000000000000000000000000000815260040161160690612eb4565b60405180910390fd5b50505050565b606061162082610e5e565b61165f576040517f08c379a000000000000000000000000000000000000000000000000000000000815260040161165690612f46565b60405180910390fd5b600060066000848152602001908152602001600020805461167f90612515565b80601f01602080910402602001604051908101604052809291908181526020018280546116ab90612515565b80156116f85780601f106116cd576101008083540402835291602001916116f8565b820191906000526020600020905b8154815290600101906020018083116116db57829003601f168201915b505050505090506000611709611954565b905060008151141561171f578192505050611762565b60008251111561175457808260405160200161173c929190612fa2565b60405160208183030381529060405292505050611762565b61175d8461196b565b925050505b919050565b6117718383611a12565b61177e60008484846117cc565b6117bd576040517f08c379a00000000000000000000000000000000000000000000000000000000081526004016117b490612eb4565b60405180910390fd5b505050565b505050565b505050565b60006117ed8473ffffffffffffffffffffffffffffffffffffffff16611bec565b15611947578373ffffffffffffffffffffffffffffffffffffffff1663150b7a02611816610f80565b8786866040518563ffffffff1660e01b8152600401611838949392919061301b565b6020604051808303816000875af192505050801561187457506040513d601f19601f82011682018060405250810190611871919061307c565b60015b6118f7573d80600081146118a4576040519150601f19603f3d011682016040523d82523d6000602084013e6118a9565b606091505b506000815114156118ef576040517f08c379a00000000000000000000000000000000000000000000000000000000081526004016118e690612eb4565b60405180910390fd5b805181602001fd5b63150b7a0260e01b7bffffffffffffffffffffffffffffffffffffffffffffffffffffffff1916817bffffffffffffffffffffffffffffffffffffffffffffffffffffffff19161491505061194c565b600190505b949350505050565b606060405180602001604052806000815250905090565b606061197682610e5e565b6119b5576040517f08c379a00000000000000000000000000000000000000000000000000000000081526004016119ac9061311b565b60405180910390fd5b60006119bf611954565b905060008151116119df5760405180602001604052806000815250611a0a565b806119e984611c0f565b6040516020016119fa929190612fa2565b6040516020818303038152906040525b915050919050565b600073ffffffffffffffffffffffffffffffffffffffff168273ffffffffffffffffffffffffffffffffffffffff161415611a82576040517f08c379a0000000000000000000000000000000000000000000000000000000008152600401611a7990613187565b60405180910390fd5b611a8b81610e5e565b15611acb576040517f08c379a0000000000000000000000000000000000000000000000000000000008152600401611ac2906131f3565b60405180910390fd5b611ad7600083836117c2565b6001600360008473ffffffffffffffffffffffffffffffffffffffff1673ffffffffffffffffffffffffffffffffffffffff1681526020019081526020016000206000828254611b279190612d80565b92505081905550816002600083815260200190815260200160002060006101000a81548173ffffffffffffffffffffffffffffffffffffffff021916908373ffffffffffffffffffffffffffffffffffffffff160217905550808273ffffffffffffffffffffffffffffffffffffffff16600073ffffffffffffffffffffffffffffffffffffffff167fddf252ad1be2c89b69c2b068fc378daa952ba7f163c4a11628f55a4df523b3ef60405160405180910390a4611be8600083836117c7565b5050565b6000808273ffffffffffffffffffffffffffffffffffffffff163b119050919050565b60606000821415611c57576040518060400160405280600181526020017f30000000000000000000000000000000000000000000000000000000000000008152509050611d6b565b600082905060005b60008214611c89578080611c7290613213565b915050600a82611c82919061328b565b9150611c5f565b60008167ffffffffffffffff811115611ca557611ca4612092565b5b6040519080825280601f01601f191660200182016040528015611cd75781602001600182028036833780820191505090505b5090505b60008514611d6457600182611cf09190612d4c565b9150600a85611cff91906132bc565b6030611d0b9190612d80565b60f81b818381518110611d2157611d206132ed565b5b60200101907effffffffffffffffffffffffffffffffffffffffffffffffffffffffffffff1916908160001a905350600a85611d5d919061328b565b9450611cdb565b8093505050505b919050565b828054611d7c90612515565b90600052602060002090601f016020900481019282611d9e5760008555611de5565b82601f10611db757805160ff1916838001178555611de5565b82800160010185558215611de5579182015b82811115611de4578251825591602001919060010190611dc9565b5b509050611df29190611df6565b5090565b5b80821115611e0f576000816000905550600101611df7565b5090565b6000604051905090565b600080fd5b600080fd5b60007fffffffff0000000000000000000000000000000000000000000000000000000082169050919050565b611e5c81611e27565b8114611e6757600080fd5b50565b600081359050611e7981611e53565b92915050565b600060208284031215611e9557611e94611e1d565b5b6000611ea384828501611e6a565b91505092915050565b60008115159050919050565b611ec181611eac565b82525050565b6000602082019050611edc6000830184611eb8565b92915050565b600081519050919050565b600082825260208201905092915050565b60005b83811015611f1c578082015181840152602081019050611f01565b83811115611f2b576000848401525b50505050565b6000601f19601f8301169050919050565b6000611f4d82611ee2565b611f578185611eed565b9350611f67818560208601611efe565b611f7081611f31565b840191505092915050565b60006020820190508181036000830152611f958184611f42565b905092915050565b6000819050919050565b611fb081611f9d565b8114611fbb57600080fd5b50565b600081359050611fcd81611fa7565b92915050565b600060208284031215611fe957611fe8611e1d565b5b6000611ff784828501611fbe565b91505092915050565b600073ffffffffffffffffffffffffffffffffffffffff82169050919050565b600061202b82612000565b9050919050565b61203b81612020565b82525050565b60006020820190506120566000830184612032565b92915050565b61206581612020565b811461207057600080fd5b50565b6000813590506120828161205c565b92915050565b600080fd5b600080fd5b7f4e487b7100000000000000000000000000000000000000000000000000000000600052604160045260246000fd5b6120ca82611f31565b810181811067ffffffffffffffff821117156120e9576120e8612092565b5b80604052505050565b60006120fc611e13565b905061210882826120c1565b919050565b600067ffffffffffffffff82111561212857612127612092565b5b61213182611f31565b9050602081019050919050565b82818337600083830152505050565b600061216061215b8461210d565b6120f2565b90508281526020810184848401111561217c5761217b61208d565b5b61218784828561213e565b509392505050565b600082601f8301126121a4576121a3612088565b5b81356121b484826020860161214d565b91505092915050565b6000806000606084860312156121d6576121d5611e1d565b5b60006121e486828701612073565b935050602084013567ffffffffffffffff81111561220557612204611e22565b5b6122118682870161218f565b925050604061222286828701611fbe565b9150509250925092565b61223581611f9d565b82525050565b6000602082019050612250600083018461222c565b92915050565b6000806040838503121561226d5761226c611e1d565b5b600061227b85828601612073565b925050602061228c85828601611fbe565b9150509250929050565b6000806000606084860312156122af576122ae611e1d565b5b60006122bd86828701612073565b93505060206122ce86828701612073565b92505060406122df86828701611fbe565b9150509250925092565b6000602082840312156122ff576122fe611e1d565b5b600061230d84828501612073565b91505092915050565b61231f81611eac565b811461232a57600080fd5b50565b60008135905061233c81612316565b92915050565b6000806040838503121561235957612358611e1d565b5b600061236785828601612073565b92505060206123788582860161232d565b9150509250929050565b600067ffffffffffffffff82111561239d5761239c612092565b5b6123a682611f31565b9050602081019050919050565b60006123c66123c184612382565b6120f2565b9050828152602081018484840111156123e2576123e161208d565b5b6123ed84828561213e565b509392505050565b600082601f83011261240a57612409612088565b5b813561241a8482602086016123b3565b91505092915050565b6000806000806080858703121561243d5761243c611e1d565b5b600061244b87828801612073565b945050602061245c87828801612073565b935050604061246d87828801611fbe565b925050606085013567ffffffffffffffff81111561248e5761248d611e22565b5b61249a878288016123f5565b91505092959194509250565b600080604083850312156124bd576124bc611e1d565b5b60006124cb85828601612073565b92505060206124dc85828601612073565b9150509250929050565b7f4e487b7100000000000000000000000000000000000000000000000000000000600052602260045260246000fd5b6000600282049050600182168061252d57607f821691505b60208210811415612541576125406124e6565b5b50919050565b7f4552433732313a20617070726f76656420717565727920666f72206e6f6e657860008201527f697374656e7420746f6b656e0000000000000000000000000000000000000000602082015250565b60006125a3602c83611eed565b91506125ae82612547565b604082019050919050565b600060208201905081810360008301526125d281612596565b9050919050565b7f5072696365206d7573742062652067726561746572207468616e203000000000600082015250565b600061260f601c83611eed565b915061261a826125d9565b602082019050919050565b6000602082019050818103600083015261263e81612602565b9050919050565b600060808201905061265a6000830187612032565b612667602083018661222c565b81810360408301526126798185611f42565b9050612688606083018461222c565b95945050505050565b7f4552433732313a20617070726f76616c20746f2063757272656e74206f776e6560008201527f7200000000000000000000000000000000000000000000000000000000000000602082015250565b60006126ed602183611eed565b91506126f882612691565b604082019050919050565b6000602082019050818103600083015261271c816126e0565b9050919050565b7f4552433732313a20617070726f76652063616c6c6572206973206e6f74206f7760008201527f6e6572206e6f7220617070726f76656420666f7220616c6c0000000000000000602082015250565b600061277f603883611eed565b915061278a82612723565b604082019050919050565b600060208201905081810360008301526127ae81612772565b9050919050565b7f4552433732313a207472616e736665722063616c6c6572206973206e6f74206f60008201527f776e6572206e6f7220617070726f766564000000000000000000000000000000602082015250565b6000612811603183611eed565b915061281c826127b5565b604082019050919050565b6000602082019050818103600083015261284081612804565b9050919050565b7f496e73756666696369656e74206777656920666f722070757263686173650000600082015250565b600061287d601e83611eed565b915061288882612847565b602082019050919050565b600060208201905081810360008301526128ac81612870565b9050919050565b7f4552433732313a206f776e657220717565727920666f72206e6f6e657869737460008201527f656e7420746f6b656e0000000000000000000000000000000000000000000000602082015250565b600061290f602983611eed565b915061291a826128b3565b604082019050919050565b6000602082019050818103600083015261293e81612902565b9050919050565b7f4552433732313a2062616c616e636520717565727920666f7220746865207a6560008201527f726f206164647265737300000000000000000000000000000000000000000000602082015250565b60006129a1602a83611eed565b91506129ac82612945565b604082019050919050565b600060208201905081810360008301526129d081612994565b9050919050565b7f4f776e61626c653a2063616c6c6572206973206e6f7420746865206f776e6572600082015250565b6000612a0d602083611eed565b9150612a18826129d7565b602082019050919050565b60006020820190508181036000830152612a3c81612a00565b9050919050565b7f4f776e61626c653a206e6577206f776e657220697320746865207a65726f206160008201527f6464726573730000000000000000000000000000000000000000000000000000602082015250565b6000612a9f602683611eed565b9150612aaa82612a43565b604082019050919050565b60006020820190508181036000830152612ace81612a92565b9050919050565b7f45524337323155524953746f726167653a2055524920736574206f66206e6f6e60008201527f6578697374656e7420746f6b656e000000000000000000000000000000000000602082015250565b6000612b31602e83611eed565b9150612b3c82612ad5565b604082019050919050565b60006020820190508181036000830152612b6081612b24565b9050919050565b7f4552433732313a206f70657261746f7220717565727920666f72206e6f6e657860008201527f697374656e7420746f6b656e0000000000000000000000000000000000000000602082015250565b6000612bc3602c83611eed565b9150612bce82612b67565b604082019050919050565b60006020820190508181036000830152612bf281612bb6565b9050919050565b7f4552433732313a207472616e736665722066726f6d20696e636f72726563742060008201527f6f776e6572000000000000000000000000000000000000000000000000000000602082015250565b6000612c55602583611eed565b9150612c6082612bf9565b604082019050919050565b60006020820190508181036000830152612c8481612c48565b9050919050565b7f4552433732313a207472616e7366657220746f20746865207a65726f2061646460008201527f7265737300000000000000000000000000000000000000000000000000000000602082015250565b6000612ce7602483611eed565b9150612cf282612c8b565b604082019050919050565b60006020820190508181036000830152612d1681612cda565b9050919050565b7f4e487b7100000000000000000000000000000000000000000000000000000000600052601160045260246000fd5b6000612d5782611f9d565b9150612d6283611f9d565b925082821015612d7557612d74612d1d565b5b828203905092915050565b6000612d8b82611f9d565b9150612d9683611f9d565b9250827fffffffffffffffffffffffffffffffffffffffffffffffffffffffffffffffff03821115612dcb57612dca612d1d565b5b828201905092915050565b7f4552433732313a20617070726f766520746f2063616c6c657200000000000000600082015250565b6000612e0c601983611eed565b9150612e1782612dd6565b602082019050919050565b60006020820190508181036000830152612e3b81612dff565b9050919050565b7f4552433732313a207472616e7366657220746f206e6f6e20455243373231526560008201527f63656976657220696d706c656d656e7465720000000000000000000000000000602082015250565b6000612e9e603283611eed565b9150612ea982612e42565b604082019050919050565b60006020820190508181036000830152612ecd81612e91565b9050919050565b7f45524337323155524953746f726167653a2055524920717565727920666f722060008201527f6e6f6e6578697374656e7420746f6b656e000000000000000000000000000000602082015250565b6000612f30603183611eed565b9150612f3b82612ed4565b604082019050919050565b60006020820190508181036000830152612f5f81612f23565b9050919050565b600081905092915050565b6000612f7c82611ee2565b612f868185612f66565b9350612f96818560208601611efe565b80840191505092915050565b6000612fae8285612f71565b9150612fba8284612f71565b91508190509392505050565b600081519050919050565b600082825260208201905092915050565b6000612fed82612fc6565b612ff78185612fd1565b9350613007818560208601611efe565b61301081611f31565b840191505092915050565b60006080820190506130306000830187612032565b61303d6020830186612032565b61304a604083018561222c565b818103606083015261305c8184612fe2565b905095945050505050565b60008151905061307681611e53565b92915050565b60006020828403121561309257613091611e1d565b5b60006130a084828501613067565b91505092915050565b7f4552433732314d657461646174613a2055524920717565727920666f72206e6f60008201527f6e6578697374656e7420746f6b656e0000000000000000000000000000000000602082015250565b6000613105602f83611eed565b9150613110826130a9565b604082019050919050565b60006020820190508181036000830152613134816130f8565b9050919050565b7f4552433732313a206d696e7420746f20746865207a65726f2061646472657373600082015250565b6000613171602083611eed565b915061317c8261313b565b602082019050919050565b600060208201905081810360008301526131a081613164565b9050919050565b7f4552433732313a20746f6b656e20616c7265616479206d696e74656400000000600082015250565b60006131dd601c83611eed565b91506131e8826131a7565b602082019050919050565b6000602082019050818103600083015261320c816131d0565b9050919050565b600061321e82611f9d565b91507fffffffffffffffffffffffffffffffffffffffffffffffffffffffffffffffff82141561325157613250612d1d565b5b600182019050919050565b7f4e487b7100000000000000000000000000000000000000000000000000000000600052601260045260246000fd5b600061329682611f9d565b91506132a183611f9d565b9250826132b1576132b061325c565b5b828204905092915050565b60006132c782611f9d565b91506132d283611f9d565b9250826132e2576132e161325c565b5b828206905092915050565b7f4e487b7100000000000000000000000000000000000000000000000000000000600052603260045260246000fdfea26469706673582212200a0ae886751f663e20ca867be2c9f090ed7d7096bffc5b09f10338b1cf2bba9464736f6c634300080b0033",
  "linkReferences": {},
  "deployedLinkReferences": {}
}