{
  "_format": "hh-sol-artifact-1",
  "contractName": "NudeNFT",
  "sourceName": "contracts/NudeNFT.sol",
  "abi": [
    {
      "inputs": [
        {
          "internalType": "address",
          "name": "_nude",
          "type": "address"
        }
      ],
      "stateMutability": "nonpayable",
      "type": "constructor"
    },
    {
      "anonymous": false,
      "inputs": [
        {
          "indexed": true,
          "internalType": "address",
          "name": "owner",
          "type": "address"
        },
        {
          "indexed": true,
          "internalType": "address",
          "name": "approved",
          "type": "address"
        },
        {
          "indexed": true,
          "internalType": "uint256",
          "name": "tokenId",
          "type": "uint256"
        }
      ],
      "name": "Approval",
      "type": "event"
    },
    {
      "anonymous": false,
      "inputs": [
        {
          "indexed": true,
          "internalType": "address",
          "name": "owner",
          "type": "address"
        },
        {
          "indexed": true,
          "internalType": "address",
          "name": "operator",
          "type": "address"
        },
        {
          "indexed": false,
          "internalType": "bool",
          "name": "approved",
          "type": "bool"
        }
      ],
      "name": "ApprovalForAll",
      "type": "event"
    },
    {
      "anonymous": false,
      "inputs": [
        {
          "indexed": false,
          "internalType": "uint256",
          "name": "tokenId",
          "type": "uint256"
        },
        {
          "indexed": false,
          "internalType": "address",
          "name": "buyer",
          "type": "address"
        },
        {
          "indexed": false,
          "internalType": "address",
          "name": "seller",
          "type": "address"
        },
        {
          "indexed": false,
          "internalType": "uint256",
          "name": "price",
          "type": "uint256"
        }
      ],
      "name": "BuyNFT",
      "type": "event"
    },
    {
      "anonymous": false,
      "inputs": [
        {
          "indexed": false,
          "internalType": "uint256",
          "name": "tokenId",
          "type": "uint256"
        },
        {
          "indexed": false,
          "internalType": "address",
          "name": "buyer",
          "type": "address"
        },
        {
          "indexed": false,
          "internalType": "address",
          "name": "seller",
          "type": "address"
        },
        {
          "indexed": false,
          "internalType": "uint256",
          "name": "price",
          "type": "uint256"
        }
      ],
      "name": "BuyNFTwithToken",
      "type": "event"
    },
    {
      "anonymous": false,
      "inputs": [
        {
          "indexed": false,
          "internalType": "address",
          "name": "recipient",
          "type": "address"
        },
        {
          "indexed": false,
          "internalType": "uint256",
          "name": "tokenId",
          "type": "uint256"
        },
        {
          "indexed": false,
          "internalType": "string",
          "name": "tokenURI",
          "type": "string"
        },
        {
          "indexed": false,
          "internalType": "uint256",
          "name": "price",
          "type": "uint256"
        }
      ],
      "name": "MintNFT",
      "type": "event"
    },
    {
      "anonymous": false,
      "inputs": [
        {
          "indexed": true,
          "internalType": "address",
          "name": "previousOwner",
          "type": "address"
        },
        {
          "indexed": true,
          "internalType": "address",
          "name": "newOwner",
          "type": "address"
        }
      ],
      "name": "OwnershipTransferred",
      "type": "event"
    },
    {
      "anonymous": false,
      "inputs": [
        {
          "indexed": true,
          "internalType": "address",
          "name": "from",
          "type": "address"
        },
        {
          "indexed": true,
          "internalType": "address",
          "name": "to",
          "type": "address"
        },
        {
          "indexed": true,
          "internalType": "uint256",
          "name": "tokenId",
          "type": "uint256"
        }
      ],
      "name": "Transfer",
      "type": "event"
    },
    {
      "inputs": [
        {
          "internalType": "address",
          "name": "to",
          "type": "address"
        },
        {
          "internalType": "uint256",
          "name": "tokenId",
          "type": "uint256"
        }
      ],
      "name": "approve",
      "outputs": [],
      "stateMutability": "nonpayable",
      "type": "function"
    },
    {
      "inputs": [
        {
          "internalType": "address",
          "name": "owner",
          "type": "address"
        }
      ],
      "name": "balanceOf",
      "outputs": [
        {
          "internalType": "uint256",
          "name": "",
          "type": "uint256"
        }
      ],
      "stateMutability": "view",
      "type": "function"
    },
    {
      "inputs": [
        {
          "internalType": "uint256",
          "name": "tokenId",
          "type": "uint256"
        }
      ],
      "name": "buyNFT",
      "outputs": [],
      "stateMutability": "payable",
      "type": "function"
    },
    {
      "inputs": [
        {
          "internalType": "uint256",
          "name": "tokenId",
          "type": "uint256"
        }
      ],
      "name": "buyNFTwithToken",
      "outputs": [],
      "stateMutability": "nonpayable",
      "type": "function"
    },
    {
      "inputs": [
        {
          "internalType": "uint256",
          "name": "tokenId",
          "type": "uint256"
        }
      ],
      "name": "getApproved",
      "outputs": [
        {
          "internalType": "address",
          "name": "",
          "type": "address"
        }
      ],
      "stateMutability": "view",
      "type": "function"
    },
    {
      "inputs": [
        {
          "internalType": "uint256",
          "name": "tokenId",
          "type": "uint256"
        }
      ],
      "name": "getPrice",
      "outputs": [
        {
          "internalType": "uint256",
          "name": "",
          "type": "uint256"
        }
      ],
      "stateMutability": "view",
      "type": "function"
    },
    {
      "inputs": [
        {
          "internalType": "address",
          "name": "owner",
          "type": "address"
        },
        {
          "internalType": "address",
          "name": "operator",
          "type": "address"
        }
      ],
      "name": "isApprovedForAll",
      "outputs": [
        {
          "internalType": "bool",
          "name": "",
          "type": "bool"
        }
      ],
      "stateMutability": "view",
      "type": "function"
    },
    {
      "inputs": [
        {
          "internalType": "address",
          "name": "recipient",
          "type": "address"
        },
        {
          "internalType": "string",
          "name": "tokenURI",
          "type": "string"
        },
        {
          "internalType": "uint256",
          "name": "price",
          "type": "uint256"
        }
      ],
      "name": "mintNFT",
      "outputs": [
        {
          "internalType": "uint256",
          "name": "",
          "type": "uint256"
        }
      ],
      "stateMutability": "nonpayable",
      "type": "function"
    },
    {
      "inputs": [],
      "name": "name",
      "outputs": [
        {
          "internalType": "string",
          "name": "",
          "type": "string"
        }
      ],
      "stateMutability": "view",
      "type": "function"
    },
    {
      "inputs": [],
      "name": "owner",
      "outputs": [
        {
          "internalType": "address",
          "name": "",
          "type": "address"
        }
      ],
      "stateMutability": "view",
      "type": "function"
    },
    {
      "inputs": [
        {
          "internalType": "uint256",
          "name": "tokenId",
          "type": "uint256"
        }
      ],
      "name": "ownerOf",
      "outputs": [
        {
          "internalType": "address",
          "name": "",
          "type": "address"
        }
      ],
      "stateMutability": "view",
      "type": "function"
    },
    {
      "inputs": [],
      "name": "renounceOwnership",
      "outputs": [],
      "stateMutability": "nonpayable",
      "type": "function"
    },
    {
      "inputs": [
        {
          "internalType": "address",
          "name": "from",
          "type": "address"
        },
        {
          "internalType": "address",
          "name": "to",
          "type": "address"
        },
        {
          "internalType": "uint256",
          "name": "tokenId",
          "type": "uint256"
        }
      ],
      "name": "safeTransferFrom",
      "outputs": [],
      "stateMutability": "nonpayable",
      "type": "function"
    },
    {
      "inputs": [
        {
          "internalType": "address",
          "name": "from",
          "type": "address"
        },
        {
          "internalType": "address",
          "name": "to",
          "type": "address"
        },
        {
          "internalType": "uint256",
          "name": "tokenId",
          "type": "uint256"
        },
        {
          "internalType": "bytes",
          "name": "_data",
          "type": "bytes"
        }
      ],
      "name": "safeTransferFrom",
      "outputs": [],
      "stateMutability": "nonpayable",
      "type": "function"
    },
    {
      "inputs": [
        {
          "internalType": "address",
          "name": "operator",
          "type": "address"
        },
        {
          "internalType": "bool",
          "name": "approved",
          "type": "bool"
        }
      ],
      "name": "setApprovalForAll",
      "outputs": [],
      "stateMutability": "nonpayable",
      "type": "function"
    },
    {
      "inputs": [
        {
          "internalType": "bytes4",
          "name": "interfaceId",
          "type": "bytes4"
        }
      ],
      "name": "supportsInterface",
      "outputs": [
        {
          "internalType": "bool",
          "name": "",
          "type": "bool"
        }
      ],
      "stateMutability": "view",
      "type": "function"
    },
    {
      "inputs": [],
      "name": "symbol",
      "outputs": [
        {
          "internalType": "string",
          "name": "",
          "type": "string"
        }
      ],
      "stateMutability": "view",
      "type": "function"
    },
    {
      "inputs": [],
      "name": "tax",
      "outputs": [
        {
          "internalType": "uint8",
          "name": "",
          "type": "uint8"
        }
      ],
      "stateMutability": "view",
      "type": "function"
    },
    {
      "inputs": [
        {
          "internalType": "uint256",
          "name": "tokenId",
          "type": "uint256"
        }
      ],
      "name": "tokenURI",
      "outputs": [
        {
          "internalType": "string",
          "name": "",
          "type": "string"
        }
      ],
      "stateMutability": "view",
      "type": "function"
    },
    {
      "inputs": [
        {
          "internalType": "address",
          "name": "from",
          "type": "address"
        },
        {
          "internalType": "address",
          "name": "to",
          "type": "address"
        },
        {
          "internalType": "uint256",
          "name": "tokenId",
          "type": "uint256"
        }
      ],
      "name": "transferFrom",
      "outputs": [],
      "stateMutability": "nonpayable",
      "type": "function"
    },
    {
      "inputs": [
        {
          "internalType": "address",
          "name": "newOwner",
          "type": "address"
        }
      ],
      "name": "transferOwnership",
      "outputs": [],
      "stateMutability": "nonpayable",
      "type": "function"
    }
  ],
  "bytecode": "0x60806040526045600a60146101000a81548160ff021916908360ff1602179055503480156200002d57600080fd5b5060405162003f3c38038062003f3c833981810160405281019062000053919062000384565b6040518060400160405280600781526020017f4e7564654e4654000000000000000000000000000000000000000000000000008152506040518060400160405280600781526020017f4e5544454e4654000000000000000000000000000000000000000000000000008152508160009080519060200190620000d79291906200026a565b508060019080519060200190620000f09291906200026a565b50505062000113620001076200019c60201b60201c565b620001a460201b60201c565b80600b60006101000a81548173ffffffffffffffffffffffffffffffffffffffff021916908373ffffffffffffffffffffffffffffffffffffffff16021790555033600a60006101000a81548173ffffffffffffffffffffffffffffffffffffffff021916908373ffffffffffffffffffffffffffffffffffffffff160217905550506200041b565b600033905090565b6000600760009054906101000a900473ffffffffffffffffffffffffffffffffffffffff16905081600760006101000a81548173ffffffffffffffffffffffffffffffffffffffff021916908373ffffffffffffffffffffffffffffffffffffffff1602179055508173ffffffffffffffffffffffffffffffffffffffff168173ffffffffffffffffffffffffffffffffffffffff167f8be0079c531659141344cd1fd0a4f28419497f9722a3daafe3b4186f6b6457e060405160405180910390a35050565b8280546200027890620003e5565b90600052602060002090601f0160209004810192826200029c5760008555620002e8565b82601f10620002b757805160ff1916838001178555620002e8565b82800160010185558215620002e8579182015b82811115620002e7578251825591602001919060010190620002ca565b5b509050620002f79190620002fb565b5090565b5b8082111562000316576000816000905550600101620002fc565b5090565b600080fd5b600073ffffffffffffffffffffffffffffffffffffffff82169050919050565b60006200034c826200031f565b9050919050565b6200035e816200033f565b81146200036a57600080fd5b50565b6000815190506200037e8162000353565b92915050565b6000602082840312156200039d576200039c6200031a565b5b6000620003ad848285016200036d565b91505092915050565b7f4e487b7100000000000000000000000000000000000000000000000000000000600052602260045260246000fd5b60006002820490506001821680620003fe57607f821691505b60208210811415620004155762000414620003b6565b5b50919050565b613b11806200042b6000396000f3fe60806040526004361061012a5760003560e01c8063715018a6116100ab578063a22cb4651161006f578063a22cb465146103e3578063b88d4fde1461040c578063c87b56dd14610435578063e757223014610472578063e985e9c5146104af578063f2fde38b146104ec5761012a565b8063715018a61461032257806379610b43146103395780638da5cb5b1461036257806395d89b411461038d57806399c8d556146103b85761012a565b806323b872dd116100f257806323b872dd1461023a57806342842e0e1461026357806351ed82881461028c5780636352211e146102a857806370a08231146102e55761012a565b806301ffc9a71461012f57806306fdde031461016c578063081812fc1461019757806308598df0146101d4578063095ea7b314610211575b600080fd5b34801561013b57600080fd5b506101566004803603810190610151919061236c565b610515565b60405161016391906123b4565b60405180910390f35b34801561017857600080fd5b506101816105f7565b60405161018e9190612468565b60405180910390f35b3480156101a357600080fd5b506101be60048036038101906101b991906124c0565b610689565b6040516101cb919061252e565b60405180910390f35b3480156101e057600080fd5b506101fb60048036038101906101f691906126aa565b61070e565b6040516102089190612728565b60405180910390f35b34801561021d57600080fd5b5061023860048036038101906102339190612743565b6107de565b005b34801561024657600080fd5b50610261600480360381019061025c9190612783565b6108f6565b005b34801561026f57600080fd5b5061028a60048036038101906102859190612783565b610956565b005b6102a660048036038101906102a191906124c0565b610976565b005b3480156102b457600080fd5b506102cf60048036038101906102ca91906124c0565b610b2c565b6040516102dc919061252e565b60405180910390f35b3480156102f157600080fd5b5061030c600480360381019061030791906127d6565b610bde565b6040516103199190612728565b60405180910390f35b34801561032e57600080fd5b50610337610c96565b005b34801561034557600080fd5b50610360600480360381019061035b91906124c0565b610d1e565b005b34801561036e57600080fd5b50610377610f89565b604051610384919061252e565b60405180910390f35b34801561039957600080fd5b506103a2610fb3565b6040516103af9190612468565b60405180910390f35b3480156103c457600080fd5b506103cd611045565b6040516103da919061281f565b60405180910390f35b3480156103ef57600080fd5b5061040a60048036038101906104059190612866565b611058565b005b34801561041857600080fd5b50610433600480360381019061042e9190612947565b61106e565b005b34801561044157600080fd5b5061045c600480360381019061045791906124c0565b6110d0565b6040516104699190612468565b60405180910390f35b34801561047e57600080fd5b50610499600480360381019061049491906124c0565b6110e2565b6040516104a69190612728565b60405180910390f35b3480156104bb57600080fd5b506104d660048036038101906104d191906129ca565b611155565b6040516104e391906123b4565b60405180910390f35b3480156104f857600080fd5b50610513600480360381019061050e91906127d6565b6111e9565b005b60007f80ac58cd000000000000000000000000000000000000000000000000000000007bffffffffffffffffffffffffffffffffffffffffffffffffffffffff1916827bffffffffffffffffffffffffffffffffffffffffffffffffffffffff191614806105e057507f5b5e139f000000000000000000000000000000000000000000000000000000007bffffffffffffffffffffffffffffffffffffffffffffffffffffffff1916827bffffffffffffffffffffffffffffffffffffffffffffffffffffffff1916145b806105f057506105ef826112e1565b5b9050919050565b60606000805461060690612a39565b80601f016020809104026020016040519081016040528092919081815260200182805461063290612a39565b801561067f5780601f106106545761010080835404028352916020019161067f565b820191906000526020600020905b81548152906001019060200180831161066257829003601f168201915b5050505050905090565b60006106948261134b565b6106d3576040517f08c379a00000000000000000000000000000000000000000000000000000000081526004016106ca90612add565b60405180910390fd5b6004600083815260200190815260200160002060009054906101000a900473ffffffffffffffffffffffffffffffffffffffff169050919050565b6000808211610752576040517f08c379a000000000000000000000000000000000000000000000000000000000815260040161074990612b49565b60405180910390fd5b61075c60086113b7565b600061076860086113cd565b905061077485826113db565b61077e81856113f9565b8260096000838152602001908152602001600020819055507f3fead86277f7a7b9bd5a10401873b6a897c726b075cb36a531f20985fcc898f2858286866040516107cb9493929190612b69565b60405180910390a1809150509392505050565b60006107e982610b2c565b90508073ffffffffffffffffffffffffffffffffffffffff168373ffffffffffffffffffffffffffffffffffffffff16141561085a576040517f08c379a000000000000000000000000000000000000000000000000000000000815260040161085190612c27565b60405180910390fd5b8073ffffffffffffffffffffffffffffffffffffffff1661087961146d565b73ffffffffffffffffffffffffffffffffffffffff1614806108a857506108a7816108a261146d565b611155565b5b6108e7576040517f08c379a00000000000000000000000000000000000000000000000000000000081526004016108de90612cb9565b60405180910390fd5b6108f18383611475565b505050565b61090761090161146d565b8261152e565b610946576040517f08c379a000000000000000000000000000000000000000000000000000000000815260040161093d90612d4b565b60405180910390fd5b61095183838361160c565b505050565b6109718383836040518060200160405280600081525061106e565b505050565b60096000828152602001908152602001600020543410156109cc576040517f08c379a00000000000000000000000000000000000000000000000000000000081526004016109c390612db7565b60405180910390fd5b6109d581610b2c565b73ffffffffffffffffffffffffffffffffffffffff163373ffffffffffffffffffffffffffffffffffffffff161415610a43576040517f08c379a0000000000000000000000000000000000000000000000000000000008152600401610a3a90612e23565b60405180910390fd5b6000610a4e82610b2c565b9050610a63610a5c83610b2c565b3384610956565b610a6c82610b2c565b73ffffffffffffffffffffffffffffffffffffffff166108fc6103e8600a60149054906101000a900460ff1660ff16610aa59190612eaf565b61ffff1634610ab49190612ee0565b34610abf9190612f3a565b9081150290604051600060405180830381858888f19350505050158015610aea573d6000803e3d6000fd5b507f8fbb312813b34e3ab8dadf410f0cfe0d221cb7dff6eb3def72f03dee5bef7d9082338334604051610b209493929190612f6e565b60405180910390a15050565b6000806002600084815260200190815260200160002060009054906101000a900473ffffffffffffffffffffffffffffffffffffffff169050600073ffffffffffffffffffffffffffffffffffffffff168173ffffffffffffffffffffffffffffffffffffffff161415610bd5576040517f08c379a0000000000000000000000000000000000000000000000000000000008152600401610bcc90613025565b60405180910390fd5b80915050919050565b60008073ffffffffffffffffffffffffffffffffffffffff168273ffffffffffffffffffffffffffffffffffffffff161415610c4f576040517f08c379a0000000000000000000000000000000000000000000000000000000008152600401610c46906130b7565b60405180910390fd5b600360008373ffffffffffffffffffffffffffffffffffffffff1673ffffffffffffffffffffffffffffffffffffffff168152602001908152602001600020549050919050565b610c9e61146d565b73ffffffffffffffffffffffffffffffffffffffff16610cbc610f89565b73ffffffffffffffffffffffffffffffffffffffff1614610d12576040517f08c379a0000000000000000000000000000000000000000000000000000000008152600401610d0990613123565b60405180910390fd5b610d1c6000611873565b565b610d2781610b2c565b73ffffffffffffffffffffffffffffffffffffffff163373ffffffffffffffffffffffffffffffffffffffff161415610d95576040517f08c379a0000000000000000000000000000000000000000000000000000000008152600401610d8c90612e23565b60405180910390fd5b6009600082815260200190815260200160002054600b60009054906101000a900473ffffffffffffffffffffffffffffffffffffffff1673ffffffffffffffffffffffffffffffffffffffff166370a08231336040518263ffffffff1660e01b8152600401610e04919061252e565b602060405180830381865afa158015610e21573d6000803e3d6000fd5b505050506040513d601f19601f82011682018060405250810190610e459190613158565b1015610e86576040517f08c379a0000000000000000000000000000000000000000000000000000000008152600401610e7d906131d1565b60405180910390fd5b6000610e9182610b2c565b9050600060096000848152602001908152602001600020549050600b60009054906101000a900473ffffffffffffffffffffffffffffffffffffffff1673ffffffffffffffffffffffffffffffffffffffff1663a64b6e5f3384846040518463ffffffff1660e01b8152600401610f0a939291906131f1565b600060405180830381600087803b158015610f2457600080fd5b505af1158015610f38573d6000803e3d6000fd5b50505050610f47823385610956565b7f8773e845e2b8a76d512a219d11dd5f511d7d16f2a15ff08bc3ceb4c250ae3eea83338484604051610f7c9493929190612f6e565b60405180910390a1505050565b6000600760009054906101000a900473ffffffffffffffffffffffffffffffffffffffff16905090565b606060018054610fc290612a39565b80601f0160208091040260200160405190810160405280929190818152602001828054610fee90612a39565b801561103b5780601f106110105761010080835404028352916020019161103b565b820191906000526020600020905b81548152906001019060200180831161101e57829003601f168201915b5050505050905090565b600a60149054906101000a900460ff1681565b61106a61106361146d565b8383611939565b5050565b61107f61107961146d565b8361152e565b6110be576040517f08c379a00000000000000000000000000000000000000000000000000000000081526004016110b590612d4b565b60405180910390fd5b6110ca84848484611aa6565b50505050565b60606110db82611b02565b9050919050565b6000806009600084815260200190815260200160002054141561113a576040517f08c379a000000000000000000000000000000000000000000000000000000000815260040161113190613274565b60405180910390fd5b60096000838152602001908152602001600020549050919050565b6000600560008473ffffffffffffffffffffffffffffffffffffffff1673ffffffffffffffffffffffffffffffffffffffff16815260200190815260200160002060008373ffffffffffffffffffffffffffffffffffffffff1673ffffffffffffffffffffffffffffffffffffffff16815260200190815260200160002060009054906101000a900460ff16905092915050565b6111f161146d565b73ffffffffffffffffffffffffffffffffffffffff1661120f610f89565b73ffffffffffffffffffffffffffffffffffffffff1614611265576040517f08c379a000000000000000000000000000000000000000000000000000000000815260040161125c90613123565b60405180910390fd5b600073ffffffffffffffffffffffffffffffffffffffff168173ffffffffffffffffffffffffffffffffffffffff1614156112d5576040517f08c379a00000000000000000000000000000000000000000000000000000000081526004016112cc90613306565b60405180910390fd5b6112de81611873565b50565b60007f01ffc9a7000000000000000000000000000000000000000000000000000000007bffffffffffffffffffffffffffffffffffffffffffffffffffffffff1916827bffffffffffffffffffffffffffffffffffffffffffffffffffffffff1916149050919050565b60008073ffffffffffffffffffffffffffffffffffffffff166002600084815260200190815260200160002060009054906101000a900473ffffffffffffffffffffffffffffffffffffffff1673ffffffffffffffffffffffffffffffffffffffff1614159050919050565b6001816000016000828254019250508190555050565b600081600001549050919050565b6113f5828260405180602001604052806000815250611c54565b5050565b6114028261134b565b611441576040517f08c379a000000000000000000000000000000000000000000000000000000000815260040161143890613398565b60405180910390fd5b8060066000848152602001908152602001600020908051906020019061146892919061225d565b505050565b600033905090565b816004600083815260200190815260200160002060006101000a81548173ffffffffffffffffffffffffffffffffffffffff021916908373ffffffffffffffffffffffffffffffffffffffff160217905550808273ffffffffffffffffffffffffffffffffffffffff166114e883610b2c565b73ffffffffffffffffffffffffffffffffffffffff167f8c5be1e5ebec7d5bd14f71427d1e84f3dd0314c0f7b2291e5b200ac8c7c3b92560405160405180910390a45050565b60006115398261134b565b611578576040517f08c379a000000000000000000000000000000000000000000000000000000000815260040161156f9061342a565b60405180910390fd5b600061158383610b2c565b90508073ffffffffffffffffffffffffffffffffffffffff168473ffffffffffffffffffffffffffffffffffffffff1614806115f257508373ffffffffffffffffffffffffffffffffffffffff166115da84610689565b73ffffffffffffffffffffffffffffffffffffffff16145b8061160357506116028185611155565b5b91505092915050565b8273ffffffffffffffffffffffffffffffffffffffff1661162c82610b2c565b73ffffffffffffffffffffffffffffffffffffffff1614611682576040517f08c379a0000000000000000000000000000000000000000000000000000000008152600401611679906134bc565b60405180910390fd5b600073ffffffffffffffffffffffffffffffffffffffff168273ffffffffffffffffffffffffffffffffffffffff1614156116f2576040517f08c379a00000000000000000000000000000000000000000000000000000000081526004016116e99061354e565b60405180910390fd5b6116fd838383611caf565b611708600082611475565b6001600360008573ffffffffffffffffffffffffffffffffffffffff1673ffffffffffffffffffffffffffffffffffffffff16815260200190815260200160002060008282546117589190612f3a565b925050819055506001600360008473ffffffffffffffffffffffffffffffffffffffff1673ffffffffffffffffffffffffffffffffffffffff16815260200190815260200160002060008282546117af919061356e565b92505081905550816002600083815260200190815260200160002060006101000a81548173ffffffffffffffffffffffffffffffffffffffff021916908373ffffffffffffffffffffffffffffffffffffffff160217905550808273ffffffffffffffffffffffffffffffffffffffff168473ffffffffffffffffffffffffffffffffffffffff167fddf252ad1be2c89b69c2b068fc378daa952ba7f163c4a11628f55a4df523b3ef60405160405180910390a461186e838383611cb4565b505050565b6000600760009054906101000a900473ffffffffffffffffffffffffffffffffffffffff16905081600760006101000a81548173ffffffffffffffffffffffffffffffffffffffff021916908373ffffffffffffffffffffffffffffffffffffffff1602179055508173ffffffffffffffffffffffffffffffffffffffff168173ffffffffffffffffffffffffffffffffffffffff167f8be0079c531659141344cd1fd0a4f28419497f9722a3daafe3b4186f6b6457e060405160405180910390a35050565b8173ffffffffffffffffffffffffffffffffffffffff168373ffffffffffffffffffffffffffffffffffffffff1614156119a8576040517f08c379a000000000000000000000000000000000000000000000000000000000815260040161199f90613610565b60405180910390fd5b80600560008573ffffffffffffffffffffffffffffffffffffffff1673ffffffffffffffffffffffffffffffffffffffff16815260200190815260200160002060008473ffffffffffffffffffffffffffffffffffffffff1673ffffffffffffffffffffffffffffffffffffffff16815260200190815260200160002060006101000a81548160ff0219169083151502179055508173ffffffffffffffffffffffffffffffffffffffff168373ffffffffffffffffffffffffffffffffffffffff167f17307eab39ab6107e8899845ad3d59bd9653f200f220920489ca2b5937696c3183604051611a9991906123b4565b60405180910390a3505050565b611ab184848461160c565b611abd84848484611cb9565b611afc576040517f08c379a0000000000000000000000000000000000000000000000000000000008152600401611af3906136a2565b60405180910390fd5b50505050565b6060611b0d8261134b565b611b4c576040517f08c379a0000000000000000000000000000000000000000000000000000000008152600401611b4390613734565b60405180910390fd5b6000600660008481526020019081526020016000208054611b6c90612a39565b80601f0160208091040260200160405190810160405280929190818152602001828054611b9890612a39565b8015611be55780601f10611bba57610100808354040283529160200191611be5565b820191906000526020600020905b815481529060010190602001808311611bc857829003601f168201915b505050505090506000611bf6611e41565b9050600081511415611c0c578192505050611c4f565b600082511115611c41578082604051602001611c29929190613790565b60405160208183030381529060405292505050611c4f565b611c4a84611e58565b925050505b919050565b611c5e8383611eff565b611c6b6000848484611cb9565b611caa576040517f08c379a0000000000000000000000000000000000000000000000000000000008152600401611ca1906136a2565b60405180910390fd5b505050565b505050565b505050565b6000611cda8473ffffffffffffffffffffffffffffffffffffffff166120d9565b15611e34578373ffffffffffffffffffffffffffffffffffffffff1663150b7a02611d0361146d565b8786866040518563ffffffff1660e01b8152600401611d259493929190613809565b6020604051808303816000875af1925050508015611d6157506040513d601f19601f82011682018060405250810190611d5e919061386a565b60015b611de4573d8060008114611d91576040519150601f19603f3d011682016040523d82523d6000602084013e611d96565b606091505b50600081511415611ddc576040517f08c379a0000000000000000000000000000000000000000000000000000000008152600401611dd3906136a2565b60405180910390fd5b805181602001fd5b63150b7a0260e01b7bffffffffffffffffffffffffffffffffffffffffffffffffffffffff1916817bffffffffffffffffffffffffffffffffffffffffffffffffffffffff191614915050611e39565b600190505b949350505050565b606060405180602001604052806000815250905090565b6060611e638261134b565b611ea2576040517f08c379a0000000000000000000000000000000000000000000000000000000008152600401611e9990613909565b60405180910390fd5b6000611eac611e41565b90506000815111611ecc5760405180602001604052806000815250611ef7565b80611ed6846120fc565b604051602001611ee7929190613790565b6040516020818303038152906040525b915050919050565b600073ffffffffffffffffffffffffffffffffffffffff168273ffffffffffffffffffffffffffffffffffffffff161415611f6f576040517f08c379a0000000000000000000000000000000000000000000000000000000008152600401611f6690613975565b60405180910390fd5b611f788161134b565b15611fb8576040517f08c379a0000000000000000000000000000000000000000000000000000000008152600401611faf906139e1565b60405180910390fd5b611fc460008383611caf565b6001600360008473ffffffffffffffffffffffffffffffffffffffff1673ffffffffffffffffffffffffffffffffffffffff1681526020019081526020016000206000828254612014919061356e565b92505081905550816002600083815260200190815260200160002060006101000a81548173ffffffffffffffffffffffffffffffffffffffff021916908373ffffffffffffffffffffffffffffffffffffffff160217905550808273ffffffffffffffffffffffffffffffffffffffff16600073ffffffffffffffffffffffffffffffffffffffff167fddf252ad1be2c89b69c2b068fc378daa952ba7f163c4a11628f55a4df523b3ef60405160405180910390a46120d560008383611cb4565b5050565b6000808273ffffffffffffffffffffffffffffffffffffffff163b119050919050565b60606000821415612144576040518060400160405280600181526020017f30000000000000000000000000000000000000000000000000000000000000008152509050612258565b600082905060005b6000821461217657808061215f90613a01565b915050600a8261216f9190613a4a565b915061214c565b60008167ffffffffffffffff8111156121925761219161257f565b5b6040519080825280601f01601f1916602001820160405280156121c45781602001600182028036833780820191505090505b5090505b60008514612251576001826121dd9190612f3a565b9150600a856121ec9190613a7b565b60306121f8919061356e565b60f81b81838151811061220e5761220d613aac565b5b60200101907effffffffffffffffffffffffffffffffffffffffffffffffffffffffffffff1916908160001a905350600a8561224a9190613a4a565b94506121c8565b8093505050505b919050565b82805461226990612a39565b90600052602060002090601f01602090048101928261228b57600085556122d2565b82601f106122a457805160ff19168380011785556122d2565b828001600101855582156122d2579182015b828111156122d15782518255916020019190600101906122b6565b5b5090506122df91906122e3565b5090565b5b808211156122fc5760008160009055506001016122e4565b5090565b6000604051905090565b600080fd5b600080fd5b60007fffffffff0000000000000000000000000000000000000000000000000000000082169050919050565b61234981612314565b811461235457600080fd5b50565b60008135905061236681612340565b92915050565b6000602082840312156123825761238161230a565b5b600061239084828501612357565b91505092915050565b60008115159050919050565b6123ae81612399565b82525050565b60006020820190506123c960008301846123a5565b92915050565b600081519050919050565b600082825260208201905092915050565b60005b838110156124095780820151818401526020810190506123ee565b83811115612418576000848401525b50505050565b6000601f19601f8301169050919050565b600061243a826123cf565b61244481856123da565b93506124548185602086016123eb565b61245d8161241e565b840191505092915050565b60006020820190508181036000830152612482818461242f565b905092915050565b6000819050919050565b61249d8161248a565b81146124a857600080fd5b50565b6000813590506124ba81612494565b92915050565b6000602082840312156124d6576124d561230a565b5b60006124e4848285016124ab565b91505092915050565b600073ffffffffffffffffffffffffffffffffffffffff82169050919050565b6000612518826124ed565b9050919050565b6125288161250d565b82525050565b6000602082019050612543600083018461251f565b92915050565b6125528161250d565b811461255d57600080fd5b50565b60008135905061256f81612549565b92915050565b600080fd5b600080fd5b7f4e487b7100000000000000000000000000000000000000000000000000000000600052604160045260246000fd5b6125b78261241e565b810181811067ffffffffffffffff821117156125d6576125d561257f565b5b80604052505050565b60006125e9612300565b90506125f582826125ae565b919050565b600067ffffffffffffffff8211156126155761261461257f565b5b61261e8261241e565b9050602081019050919050565b82818337600083830152505050565b600061264d612648846125fa565b6125df565b9050828152602081018484840111156126695761266861257a565b5b61267484828561262b565b509392505050565b600082601f83011261269157612690612575565b5b81356126a184826020860161263a565b91505092915050565b6000806000606084860312156126c3576126c261230a565b5b60006126d186828701612560565b935050602084013567ffffffffffffffff8111156126f2576126f161230f565b5b6126fe8682870161267c565b925050604061270f868287016124ab565b9150509250925092565b6127228161248a565b82525050565b600060208201905061273d6000830184612719565b92915050565b6000806040838503121561275a5761275961230a565b5b600061276885828601612560565b9250506020612779858286016124ab565b9150509250929050565b60008060006060848603121561279c5761279b61230a565b5b60006127aa86828701612560565b93505060206127bb86828701612560565b92505060406127cc868287016124ab565b9150509250925092565b6000602082840312156127ec576127eb61230a565b5b60006127fa84828501612560565b91505092915050565b600060ff82169050919050565b61281981612803565b82525050565b60006020820190506128346000830184612810565b92915050565b61284381612399565b811461284e57600080fd5b50565b6000813590506128608161283a565b92915050565b6000806040838503121561287d5761287c61230a565b5b600061288b85828601612560565b925050602061289c85828601612851565b9150509250929050565b600067ffffffffffffffff8211156128c1576128c061257f565b5b6128ca8261241e565b9050602081019050919050565b60006128ea6128e5846128a6565b6125df565b9050828152602081018484840111156129065761290561257a565b5b61291184828561262b565b509392505050565b600082601f83011261292e5761292d612575565b5b813561293e8482602086016128d7565b91505092915050565b600080600080608085870312156129615761296061230a565b5b600061296f87828801612560565b945050602061298087828801612560565b9350506040612991878288016124ab565b925050606085013567ffffffffffffffff8111156129b2576129b161230f565b5b6129be87828801612919565b91505092959194509250565b600080604083850312156129e1576129e061230a565b5b60006129ef85828601612560565b9250506020612a0085828601612560565b9150509250929050565b7f4e487b7100000000000000000000000000000000000000000000000000000000600052602260045260246000fd5b60006002820490506001821680612a5157607f821691505b60208210811415612a6557612a64612a0a565b5b50919050565b7f4552433732313a20617070726f76656420717565727920666f72206e6f6e657860008201527f697374656e7420746f6b656e0000000000000000000000000000000000000000602082015250565b6000612ac7602c836123da565b9150612ad282612a6b565b604082019050919050565b60006020820190508181036000830152612af681612aba565b9050919050565b7f5072696365206d7573742062652067726561746572207468616e203000000000600082015250565b6000612b33601c836123da565b9150612b3e82612afd565b602082019050919050565b60006020820190508181036000830152612b6281612b26565b9050919050565b6000608082019050612b7e600083018761251f565b612b8b6020830186612719565b8181036040830152612b9d818561242f565b9050612bac6060830184612719565b95945050505050565b7f4552433732313a20617070726f76616c20746f2063757272656e74206f776e6560008201527f7200000000000000000000000000000000000000000000000000000000000000602082015250565b6000612c116021836123da565b9150612c1c82612bb5565b604082019050919050565b60006020820190508181036000830152612c4081612c04565b9050919050565b7f4552433732313a20617070726f76652063616c6c6572206973206e6f74206f7760008201527f6e6572206e6f7220617070726f76656420666f7220616c6c0000000000000000602082015250565b6000612ca36038836123da565b9150612cae82612c47565b604082019050919050565b60006020820190508181036000830152612cd281612c96565b9050919050565b7f4552433732313a207472616e736665722063616c6c6572206973206e6f74206f60008201527f776e6572206e6f7220617070726f766564000000000000000000000000000000602082015250565b6000612d356031836123da565b9150612d4082612cd9565b604082019050919050565b60006020820190508181036000830152612d6481612d28565b9050919050565b7f496e73756666696369656e74206777656920666f722070757263686173650000600082015250565b6000612da1601e836123da565b9150612dac82612d6b565b602082019050919050565b60006020820190508181036000830152612dd081612d94565b9050919050565b7f596f752063616e6e6f742062757920796f7572206f776e204e46540000000000600082015250565b6000612e0d601b836123da565b9150612e1882612dd7565b602082019050919050565b60006020820190508181036000830152612e3c81612e00565b9050919050565b600061ffff82169050919050565b7f4e487b7100000000000000000000000000000000000000000000000000000000600052601260045260246000fd5b7f4e487b7100000000000000000000000000000000000000000000000000000000600052601160045260246000fd5b6000612eba82612e43565b9150612ec583612e43565b925082612ed557612ed4612e51565b5b828204905092915050565b6000612eeb8261248a565b9150612ef68361248a565b9250817fffffffffffffffffffffffffffffffffffffffffffffffffffffffffffffffff0483118215151615612f2f57612f2e612e80565b5b828202905092915050565b6000612f458261248a565b9150612f508361248a565b925082821015612f6357612f62612e80565b5b828203905092915050565b6000608082019050612f836000830187612719565b612f90602083018661251f565b612f9d604083018561251f565b612faa6060830184612719565b95945050505050565b7f4552433732313a206f776e657220717565727920666f72206e6f6e657869737460008201527f656e7420746f6b656e0000000000000000000000000000000000000000000000602082015250565b600061300f6029836123da565b915061301a82612fb3565b604082019050919050565b6000602082019050818103600083015261303e81613002565b9050919050565b7f4552433732313a2062616c616e636520717565727920666f7220746865207a6560008201527f726f206164647265737300000000000000000000000000000000000000000000602082015250565b60006130a1602a836123da565b91506130ac82613045565b604082019050919050565b600060208201905081810360008301526130d081613094565b9050919050565b7f4f776e61626c653a2063616c6c6572206973206e6f7420746865206f776e6572600082015250565b600061310d6020836123da565b9150613118826130d7565b602082019050919050565b6000602082019050818103600083015261313c81613100565b9050919050565b60008151905061315281612494565b92915050565b60006020828403121561316e5761316d61230a565b5b600061317c84828501613143565b91505092915050565b7f496e73756666696369656e74204e55444520666f722070757263686173650000600082015250565b60006131bb601e836123da565b91506131c682613185565b602082019050919050565b600060208201905081810360008301526131ea816131ae565b9050919050565b6000606082019050613206600083018661251f565b613213602083018561251f565b6132206040830184612719565b949350505050565b7f546f6b656e20707269636520646f6573206e6f74206578697374000000000000600082015250565b600061325e601a836123da565b915061326982613228565b602082019050919050565b6000602082019050818103600083015261328d81613251565b9050919050565b7f4f776e61626c653a206e6577206f776e657220697320746865207a65726f206160008201527f6464726573730000000000000000000000000000000000000000000000000000602082015250565b60006132f06026836123da565b91506132fb82613294565b604082019050919050565b6000602082019050818103600083015261331f816132e3565b9050919050565b7f45524337323155524953746f726167653a2055524920736574206f66206e6f6e60008201527f6578697374656e7420746f6b656e000000000000000000000000000000000000602082015250565b6000613382602e836123da565b915061338d82613326565b604082019050919050565b600060208201905081810360008301526133b181613375565b9050919050565b7f4552433732313a206f70657261746f7220717565727920666f72206e6f6e657860008201527f697374656e7420746f6b656e0000000000000000000000000000000000000000602082015250565b6000613414602c836123da565b915061341f826133b8565b604082019050919050565b6000602082019050818103600083015261344381613407565b9050919050565b7f4552433732313a207472616e736665722066726f6d20696e636f72726563742060008201527f6f776e6572000000000000000000000000000000000000000000000000000000602082015250565b60006134a66025836123da565b91506134b18261344a565b604082019050919050565b600060208201905081810360008301526134d581613499565b9050919050565b7f4552433732313a207472616e7366657220746f20746865207a65726f2061646460008201527f7265737300000000000000000000000000000000000000000000000000000000602082015250565b60006135386024836123da565b9150613543826134dc565b604082019050919050565b600060208201905081810360008301526135678161352b565b9050919050565b60006135798261248a565b91506135848361248a565b9250827fffffffffffffffffffffffffffffffffffffffffffffffffffffffffffffffff038211156135b9576135b8612e80565b5b828201905092915050565b7f4552433732313a20617070726f766520746f2063616c6c657200000000000000600082015250565b60006135fa6019836123da565b9150613605826135c4565b602082019050919050565b60006020820190508181036000830152613629816135ed565b9050919050565b7f4552433732313a207472616e7366657220746f206e6f6e20455243373231526560008201527f63656976657220696d706c656d656e7465720000000000000000000000000000602082015250565b600061368c6032836123da565b915061369782613630565b604082019050919050565b600060208201905081810360008301526136bb8161367f565b9050919050565b7f45524337323155524953746f726167653a2055524920717565727920666f722060008201527f6e6f6e6578697374656e7420746f6b656e000000000000000000000000000000602082015250565b600061371e6031836123da565b9150613729826136c2565b604082019050919050565b6000602082019050818103600083015261374d81613711565b9050919050565b600081905092915050565b600061376a826123cf565b6137748185613754565b93506137848185602086016123eb565b80840191505092915050565b600061379c828561375f565b91506137a8828461375f565b91508190509392505050565b600081519050919050565b600082825260208201905092915050565b60006137db826137b4565b6137e581856137bf565b93506137f58185602086016123eb565b6137fe8161241e565b840191505092915050565b600060808201905061381e600083018761251f565b61382b602083018661251f565b6138386040830185612719565b818103606083015261384a81846137d0565b905095945050505050565b60008151905061386481612340565b92915050565b6000602082840312156138805761387f61230a565b5b600061388e84828501613855565b91505092915050565b7f4552433732314d657461646174613a2055524920717565727920666f72206e6f60008201527f6e6578697374656e7420746f6b656e0000000000000000000000000000000000602082015250565b60006138f3602f836123da565b91506138fe82613897565b604082019050919050565b60006020820190508181036000830152613922816138e6565b9050919050565b7f4552433732313a206d696e7420746f20746865207a65726f2061646472657373600082015250565b600061395f6020836123da565b915061396a82613929565b602082019050919050565b6000602082019050818103600083015261398e81613952565b9050919050565b7f4552433732313a20746f6b656e20616c7265616479206d696e74656400000000600082015250565b60006139cb601c836123da565b91506139d682613995565b602082019050919050565b600060208201905081810360008301526139fa816139be565b9050919050565b6000613a0c8261248a565b91507fffffffffffffffffffffffffffffffffffffffffffffffffffffffffffffffff821415613a3f57613a3e612e80565b5b600182019050919050565b6000613a558261248a565b9150613a608361248a565b925082613a7057613a6f612e51565b5b828204905092915050565b6000613a868261248a565b9150613a918361248a565b925082613aa157613aa0612e51565b5b828206905092915050565b7f4e487b7100000000000000000000000000000000000000000000000000000000600052603260045260246000fdfea2646970667358221220daf7219953af77334997abaa86ba886784da6e41740b7a741833c9bf82f7a1d164736f6c634300080b0033",
  "linkReferences": {},
  "deployedLinkReferences": {}
}