{
  "_format": "hh-sol-artifact-1",
  "contractName": "NudeNFT",
  "sourceName": "contracts/NudeNFT.sol",
  "abi": [
    {
      "inputs": [],
      "stateMutability": "nonpayable",
      "type": "constructor"
    },
    {
      "anonymous": false,
      "inputs": [
        {
          "indexed": true,
          "internalType": "address",
          "name": "owner",
          "type": "address"
        },
        {
          "indexed": true,
          "internalType": "address",
          "name": "approved",
          "type": "address"
        },
        {
          "indexed": true,
          "internalType": "uint256",
          "name": "tokenId",
          "type": "uint256"
        }
      ],
      "name": "Approval",
      "type": "event"
    },
    {
      "anonymous": false,
      "inputs": [
        {
          "indexed": true,
          "internalType": "address",
          "name": "owner",
          "type": "address"
        },
        {
          "indexed": true,
          "internalType": "address",
          "name": "operator",
          "type": "address"
        },
        {
          "indexed": false,
          "internalType": "bool",
          "name": "approved",
          "type": "bool"
        }
      ],
      "name": "ApprovalForAll",
      "type": "event"
    },
    {
      "anonymous": false,
      "inputs": [
        {
          "indexed": true,
          "internalType": "address",
          "name": "previousOwner",
          "type": "address"
        },
        {
          "indexed": true,
          "internalType": "address",
          "name": "newOwner",
          "type": "address"
        }
      ],
      "name": "OwnershipTransferred",
      "type": "event"
    },
    {
      "anonymous": false,
      "inputs": [
        {
          "indexed": true,
          "internalType": "address",
          "name": "from",
          "type": "address"
        },
        {
          "indexed": true,
          "internalType": "address",
          "name": "to",
          "type": "address"
        },
        {
          "indexed": true,
          "internalType": "uint256",
          "name": "tokenId",
          "type": "uint256"
        }
      ],
      "name": "Transfer",
      "type": "event"
    },
    {
      "anonymous": false,
      "inputs": [
        {
          "indexed": false,
          "internalType": "uint256",
          "name": "tokenId",
          "type": "uint256"
        },
        {
          "indexed": false,
          "internalType": "address",
          "name": "buyer",
          "type": "address"
        },
        {
          "indexed": false,
          "internalType": "address",
          "name": "seller",
          "type": "address"
        },
        {
          "indexed": false,
          "internalType": "uint256",
          "name": "price",
          "type": "uint256"
        }
      ],
      "name": "newNFTBuy",
      "type": "event"
    },
    {
      "anonymous": false,
      "inputs": [
        {
          "indexed": false,
          "internalType": "address",
          "name": "recipient",
          "type": "address"
        },
        {
          "indexed": false,
          "internalType": "uint256",
          "name": "tokenId",
          "type": "uint256"
        },
        {
          "indexed": false,
          "internalType": "string",
          "name": "tokenURI",
          "type": "string"
        },
        {
          "indexed": false,
          "internalType": "uint256",
          "name": "price",
          "type": "uint256"
        }
      ],
      "name": "newNFTMinted",
      "type": "event"
    },
    {
      "inputs": [
        {
          "internalType": "address",
          "name": "to",
          "type": "address"
        },
        {
          "internalType": "uint256",
          "name": "tokenId",
          "type": "uint256"
        }
      ],
      "name": "approve",
      "outputs": [],
      "stateMutability": "nonpayable",
      "type": "function"
    },
    {
      "inputs": [
        {
          "internalType": "address",
          "name": "owner",
          "type": "address"
        }
      ],
      "name": "balanceOf",
      "outputs": [
        {
          "internalType": "uint256",
          "name": "",
          "type": "uint256"
        }
      ],
      "stateMutability": "view",
      "type": "function"
    },
    {
      "inputs": [
        {
          "internalType": "uint256",
          "name": "tokenId",
          "type": "uint256"
        }
      ],
      "name": "buyNFT",
      "outputs": [],
      "stateMutability": "payable",
      "type": "function"
    },
    {
      "inputs": [
        {
          "internalType": "uint256",
          "name": "tokenId",
          "type": "uint256"
        }
      ],
      "name": "getApproved",
      "outputs": [
        {
          "internalType": "address",
          "name": "",
          "type": "address"
        }
      ],
      "stateMutability": "view",
      "type": "function"
    },
    {
      "inputs": [
        {
          "internalType": "uint256",
          "name": "tokenId",
          "type": "uint256"
        }
      ],
      "name": "getPrice",
      "outputs": [
        {
          "internalType": "uint256",
          "name": "",
          "type": "uint256"
        }
      ],
      "stateMutability": "view",
      "type": "function"
    },
    {
      "inputs": [
        {
          "internalType": "address",
          "name": "owner",
          "type": "address"
        },
        {
          "internalType": "address",
          "name": "operator",
          "type": "address"
        }
      ],
      "name": "isApprovedForAll",
      "outputs": [
        {
          "internalType": "bool",
          "name": "",
          "type": "bool"
        }
      ],
      "stateMutability": "view",
      "type": "function"
    },
    {
      "inputs": [
        {
          "internalType": "address",
          "name": "recipient",
          "type": "address"
        },
        {
          "internalType": "string",
          "name": "tokenURI",
          "type": "string"
        },
        {
          "internalType": "uint256",
          "name": "price",
          "type": "uint256"
        }
      ],
      "name": "mintNFT",
      "outputs": [
        {
          "internalType": "uint256",
          "name": "",
          "type": "uint256"
        }
      ],
      "stateMutability": "nonpayable",
      "type": "function"
    },
    {
      "inputs": [],
      "name": "name",
      "outputs": [
        {
          "internalType": "string",
          "name": "",
          "type": "string"
        }
      ],
      "stateMutability": "view",
      "type": "function"
    },
    {
      "inputs": [],
      "name": "owner",
      "outputs": [
        {
          "internalType": "address",
          "name": "",
          "type": "address"
        }
      ],
      "stateMutability": "view",
      "type": "function"
    },
    {
      "inputs": [
        {
          "internalType": "uint256",
          "name": "tokenId",
          "type": "uint256"
        }
      ],
      "name": "ownerOf",
      "outputs": [
        {
          "internalType": "address",
          "name": "",
          "type": "address"
        }
      ],
      "stateMutability": "view",
      "type": "function"
    },
    {
      "inputs": [],
      "name": "renounceOwnership",
      "outputs": [],
      "stateMutability": "nonpayable",
      "type": "function"
    },
    {
      "inputs": [
        {
          "internalType": "address",
          "name": "from",
          "type": "address"
        },
        {
          "internalType": "address",
          "name": "to",
          "type": "address"
        },
        {
          "internalType": "uint256",
          "name": "tokenId",
          "type": "uint256"
        }
      ],
      "name": "safeTransferFrom",
      "outputs": [],
      "stateMutability": "nonpayable",
      "type": "function"
    },
    {
      "inputs": [
        {
          "internalType": "address",
          "name": "from",
          "type": "address"
        },
        {
          "internalType": "address",
          "name": "to",
          "type": "address"
        },
        {
          "internalType": "uint256",
          "name": "tokenId",
          "type": "uint256"
        },
        {
          "internalType": "bytes",
          "name": "_data",
          "type": "bytes"
        }
      ],
      "name": "safeTransferFrom",
      "outputs": [],
      "stateMutability": "nonpayable",
      "type": "function"
    },
    {
      "inputs": [
        {
          "internalType": "address",
          "name": "operator",
          "type": "address"
        },
        {
          "internalType": "bool",
          "name": "approved",
          "type": "bool"
        }
      ],
      "name": "setApprovalForAll",
      "outputs": [],
      "stateMutability": "nonpayable",
      "type": "function"
    },
    {
      "inputs": [
        {
          "internalType": "bytes4",
          "name": "interfaceId",
          "type": "bytes4"
        }
      ],
      "name": "supportsInterface",
      "outputs": [
        {
          "internalType": "bool",
          "name": "",
          "type": "bool"
        }
      ],
      "stateMutability": "view",
      "type": "function"
    },
    {
      "inputs": [],
      "name": "symbol",
      "outputs": [
        {
          "internalType": "string",
          "name": "",
          "type": "string"
        }
      ],
      "stateMutability": "view",
      "type": "function"
    },
    {
      "inputs": [
        {
          "internalType": "uint256",
          "name": "tokenId",
          "type": "uint256"
        }
      ],
      "name": "tokenURI",
      "outputs": [
        {
          "internalType": "string",
          "name": "",
          "type": "string"
        }
      ],
      "stateMutability": "view",
      "type": "function"
    },
    {
      "inputs": [
        {
          "internalType": "address",
          "name": "from",
          "type": "address"
        },
        {
          "internalType": "address",
          "name": "to",
          "type": "address"
        },
        {
          "internalType": "uint256",
          "name": "tokenId",
          "type": "uint256"
        }
      ],
      "name": "transferFrom",
      "outputs": [],
      "stateMutability": "nonpayable",
      "type": "function"
    },
    {
      "inputs": [
        {
          "internalType": "address",
          "name": "newOwner",
          "type": "address"
        }
      ],
      "name": "transferOwnership",
      "outputs": [],
      "stateMutability": "nonpayable",
      "type": "function"
    }
  ],
  "bytecode": "0x60806040523480156200001157600080fd5b506040518060400160405280600781526020017f4e7564654e4654000000000000000000000000000000000000000000000000008152506040518060400160405280600781526020017f4e5544454e465400000000000000000000000000000000000000000000000000815250816000908051906020019062000096929190620001a6565b508060019080519060200190620000af929190620001a6565b505050620000d2620000c6620000d860201b60201c565b620000e060201b60201c565b620002bb565b600033905090565b6000600760009054906101000a900473ffffffffffffffffffffffffffffffffffffffff16905081600760006101000a81548173ffffffffffffffffffffffffffffffffffffffff021916908373ffffffffffffffffffffffffffffffffffffffff1602179055508173ffffffffffffffffffffffffffffffffffffffff168173ffffffffffffffffffffffffffffffffffffffff167f8be0079c531659141344cd1fd0a4f28419497f9722a3daafe3b4186f6b6457e060405160405180910390a35050565b828054620001b49062000285565b90600052602060002090601f016020900481019282620001d8576000855562000224565b82601f10620001f357805160ff191683800117855562000224565b8280016001018555821562000224579182015b828111156200022357825182559160200191906001019062000206565b5b50905062000233919062000237565b5090565b5b808211156200025257600081600090555060010162000238565b5090565b7f4e487b7100000000000000000000000000000000000000000000000000000000600052602260045260246000fd5b600060028204905060018216806200029e57607f821691505b60208210811415620002b557620002b462000256565b5b50919050565b61350380620002cb6000396000f3fe6080604052600436106101145760003560e01c806370a08231116100a0578063b88d4fde11610064578063b88d4fde146103a2578063c87b56dd146103cb578063e757223014610408578063e985e9c514610445578063f2fde38b1461048257610114565b806370a08231146102cf578063715018a61461030c5780638da5cb5b1461032357806395d89b411461034e578063a22cb4651461037957610114565b8063095ea7b3116100e7578063095ea7b3146101fb57806323b872dd1461022457806342842e0e1461024d57806351ed8288146102765780636352211e1461029257610114565b806301ffc9a71461011957806306fdde0314610156578063081812fc1461018157806308598df0146101be575b600080fd5b34801561012557600080fd5b50610140600480360381019061013b9190611f7f565b6104ab565b60405161014d9190611fc7565b60405180910390f35b34801561016257600080fd5b5061016b61058d565b604051610178919061207b565b60405180910390f35b34801561018d57600080fd5b506101a860048036038101906101a391906120d3565b61061f565b6040516101b59190612141565b60405180910390f35b3480156101ca57600080fd5b506101e560048036038101906101e091906122bd565b6106a4565b6040516101f2919061233b565b60405180910390f35b34801561020757600080fd5b50610222600480360381019061021d9190612356565b610774565b005b34801561023057600080fd5b5061024b60048036038101906102469190612396565b61088c565b005b34801561025957600080fd5b50610274600480360381019061026f9190612396565b6108ec565b005b610290600480360381019061028b91906120d3565b61090c565b005b34801561029e57600080fd5b506102b960048036038101906102b491906120d3565b6109bd565b6040516102c69190612141565b60405180910390f35b3480156102db57600080fd5b506102f660048036038101906102f191906123e9565b610a6f565b604051610303919061233b565b60405180910390f35b34801561031857600080fd5b50610321610b27565b005b34801561032f57600080fd5b50610338610baf565b6040516103459190612141565b60405180910390f35b34801561035a57600080fd5b50610363610bd9565b604051610370919061207b565b60405180910390f35b34801561038557600080fd5b506103a0600480360381019061039b9190612442565b610c6b565b005b3480156103ae57600080fd5b506103c960048036038101906103c49190612523565b610c81565b005b3480156103d757600080fd5b506103f260048036038101906103ed91906120d3565b610ce3565b6040516103ff919061207b565b60405180910390f35b34801561041457600080fd5b5061042f600480360381019061042a91906120d3565b610cf5565b60405161043c919061233b565b60405180910390f35b34801561045157600080fd5b5061046c600480360381019061046791906125a6565b610d68565b6040516104799190611fc7565b60405180910390f35b34801561048e57600080fd5b506104a960048036038101906104a491906123e9565b610dfc565b005b60007f80ac58cd000000000000000000000000000000000000000000000000000000007bffffffffffffffffffffffffffffffffffffffffffffffffffffffff1916827bffffffffffffffffffffffffffffffffffffffffffffffffffffffff1916148061057657507f5b5e139f000000000000000000000000000000000000000000000000000000007bffffffffffffffffffffffffffffffffffffffffffffffffffffffff1916827bffffffffffffffffffffffffffffffffffffffffffffffffffffffff1916145b80610586575061058582610ef4565b5b9050919050565b60606000805461059c90612615565b80601f01602080910402602001604051908101604052809291908181526020018280546105c890612615565b80156106155780601f106105ea57610100808354040283529160200191610615565b820191906000526020600020905b8154815290600101906020018083116105f857829003601f168201915b5050505050905090565b600061062a82610f5e565b610669576040517f08c379a0000000000000000000000000000000000000000000000000000000008152600401610660906126b9565b60405180910390fd5b6004600083815260200190815260200160002060009054906101000a900473ffffffffffffffffffffffffffffffffffffffff169050919050565b60008082116106e8576040517f08c379a00000000000000000000000000000000000000000000000000000000081526004016106df90612725565b60405180910390fd5b6106f26008610fca565b60006106fe6008610fe0565b905061070a8582610fee565b610714818561100c565b8260096000838152602001908152602001600020819055507f7ad3b13b7c3746750560e47a50427c59add26e172574ed9eae86be47839170a3858286866040516107619493929190612745565b60405180910390a1809150509392505050565b600061077f826109bd565b90508073ffffffffffffffffffffffffffffffffffffffff168373ffffffffffffffffffffffffffffffffffffffff1614156107f0576040517f08c379a00000000000000000000000000000000000000000000000000000000081526004016107e790612803565b60405180910390fd5b8073ffffffffffffffffffffffffffffffffffffffff1661080f611080565b73ffffffffffffffffffffffffffffffffffffffff16148061083e575061083d81610838611080565b610d68565b5b61087d576040517f08c379a000000000000000000000000000000000000000000000000000000000815260040161087490612895565b60405180910390fd5b6108878383611088565b505050565b61089d610897611080565b82611141565b6108dc576040517f08c379a00000000000000000000000000000000000000000000000000000000081526004016108d390612927565b60405180910390fd5b6108e783838361121f565b505050565b61090783838360405180602001604052806000815250610c81565b505050565b6009600082815260200190815260200160002054341015610962576040517f08c379a000000000000000000000000000000000000000000000000000000000815260040161095990612993565b60405180910390fd5b61097561096e826109bd565b33836108ec565b7f3a4390686c48f9e191a22fe34167e36a46492628eb2023749c9a027b8ddd629281336109a1846109bd565b346040516109b294939291906129b3565b60405180910390a150565b6000806002600084815260200190815260200160002060009054906101000a900473ffffffffffffffffffffffffffffffffffffffff169050600073ffffffffffffffffffffffffffffffffffffffff168173ffffffffffffffffffffffffffffffffffffffff161415610a66576040517f08c379a0000000000000000000000000000000000000000000000000000000008152600401610a5d90612a6a565b60405180910390fd5b80915050919050565b60008073ffffffffffffffffffffffffffffffffffffffff168273ffffffffffffffffffffffffffffffffffffffff161415610ae0576040517f08c379a0000000000000000000000000000000000000000000000000000000008152600401610ad790612afc565b60405180910390fd5b600360008373ffffffffffffffffffffffffffffffffffffffff1673ffffffffffffffffffffffffffffffffffffffff168152602001908152602001600020549050919050565b610b2f611080565b73ffffffffffffffffffffffffffffffffffffffff16610b4d610baf565b73ffffffffffffffffffffffffffffffffffffffff1614610ba3576040517f08c379a0000000000000000000000000000000000000000000000000000000008152600401610b9a90612b68565b60405180910390fd5b610bad6000611486565b565b6000600760009054906101000a900473ffffffffffffffffffffffffffffffffffffffff16905090565b606060018054610be890612615565b80601f0160208091040260200160405190810160405280929190818152602001828054610c1490612615565b8015610c615780601f10610c3657610100808354040283529160200191610c61565b820191906000526020600020905b815481529060010190602001808311610c4457829003601f168201915b5050505050905090565b610c7d610c76611080565b838361154c565b5050565b610c92610c8c611080565b83611141565b610cd1576040517f08c379a0000000000000000000000000000000000000000000000000000000008152600401610cc890612927565b60405180910390fd5b610cdd848484846116b9565b50505050565b6060610cee82611715565b9050919050565b60008060096000848152602001908152602001600020541415610d4d576040517f08c379a0000000000000000000000000000000000000000000000000000000008152600401610d4490612bd4565b60405180910390fd5b60096000838152602001908152602001600020549050919050565b6000600560008473ffffffffffffffffffffffffffffffffffffffff1673ffffffffffffffffffffffffffffffffffffffff16815260200190815260200160002060008373ffffffffffffffffffffffffffffffffffffffff1673ffffffffffffffffffffffffffffffffffffffff16815260200190815260200160002060009054906101000a900460ff16905092915050565b610e04611080565b73ffffffffffffffffffffffffffffffffffffffff16610e22610baf565b73ffffffffffffffffffffffffffffffffffffffff1614610e78576040517f08c379a0000000000000000000000000000000000000000000000000000000008152600401610e6f90612b68565b60405180910390fd5b600073ffffffffffffffffffffffffffffffffffffffff168173ffffffffffffffffffffffffffffffffffffffff161415610ee8576040517f08c379a0000000000000000000000000000000000000000000000000000000008152600401610edf90612c66565b60405180910390fd5b610ef181611486565b50565b60007f01ffc9a7000000000000000000000000000000000000000000000000000000007bffffffffffffffffffffffffffffffffffffffffffffffffffffffff1916827bffffffffffffffffffffffffffffffffffffffffffffffffffffffff1916149050919050565b60008073ffffffffffffffffffffffffffffffffffffffff166002600084815260200190815260200160002060009054906101000a900473ffffffffffffffffffffffffffffffffffffffff1673ffffffffffffffffffffffffffffffffffffffff1614159050919050565b6001816000016000828254019250508190555050565b600081600001549050919050565b611008828260405180602001604052806000815250611867565b5050565b61101582610f5e565b611054576040517f08c379a000000000000000000000000000000000000000000000000000000000815260040161104b90612cf8565b60405180910390fd5b8060066000848152602001908152602001600020908051906020019061107b929190611e70565b505050565b600033905090565b816004600083815260200190815260200160002060006101000a81548173ffffffffffffffffffffffffffffffffffffffff021916908373ffffffffffffffffffffffffffffffffffffffff160217905550808273ffffffffffffffffffffffffffffffffffffffff166110fb836109bd565b73ffffffffffffffffffffffffffffffffffffffff167f8c5be1e5ebec7d5bd14f71427d1e84f3dd0314c0f7b2291e5b200ac8c7c3b92560405160405180910390a45050565b600061114c82610f5e565b61118b576040517f08c379a000000000000000000000000000000000000000000000000000000000815260040161118290612d8a565b60405180910390fd5b6000611196836109bd565b90508073ffffffffffffffffffffffffffffffffffffffff168473ffffffffffffffffffffffffffffffffffffffff16148061120557508373ffffffffffffffffffffffffffffffffffffffff166111ed8461061f565b73ffffffffffffffffffffffffffffffffffffffff16145b8061121657506112158185610d68565b5b91505092915050565b8273ffffffffffffffffffffffffffffffffffffffff1661123f826109bd565b73ffffffffffffffffffffffffffffffffffffffff1614611295576040517f08c379a000000000000000000000000000000000000000000000000000000000815260040161128c90612e1c565b60405180910390fd5b600073ffffffffffffffffffffffffffffffffffffffff168273ffffffffffffffffffffffffffffffffffffffff161415611305576040517f08c379a00000000000000000000000000000000000000000000000000000000081526004016112fc90612eae565b60405180910390fd5b6113108383836118c2565b61131b600082611088565b6001600360008573ffffffffffffffffffffffffffffffffffffffff1673ffffffffffffffffffffffffffffffffffffffff168152602001908152602001600020600082825461136b9190612efd565b925050819055506001600360008473ffffffffffffffffffffffffffffffffffffffff1673ffffffffffffffffffffffffffffffffffffffff16815260200190815260200160002060008282546113c29190612f31565b92505081905550816002600083815260200190815260200160002060006101000a81548173ffffffffffffffffffffffffffffffffffffffff021916908373ffffffffffffffffffffffffffffffffffffffff160217905550808273ffffffffffffffffffffffffffffffffffffffff168473ffffffffffffffffffffffffffffffffffffffff167fddf252ad1be2c89b69c2b068fc378daa952ba7f163c4a11628f55a4df523b3ef60405160405180910390a46114818383836118c7565b505050565b6000600760009054906101000a900473ffffffffffffffffffffffffffffffffffffffff16905081600760006101000a81548173ffffffffffffffffffffffffffffffffffffffff021916908373ffffffffffffffffffffffffffffffffffffffff1602179055508173ffffffffffffffffffffffffffffffffffffffff168173ffffffffffffffffffffffffffffffffffffffff167f8be0079c531659141344cd1fd0a4f28419497f9722a3daafe3b4186f6b6457e060405160405180910390a35050565b8173ffffffffffffffffffffffffffffffffffffffff168373ffffffffffffffffffffffffffffffffffffffff1614156115bb576040517f08c379a00000000000000000000000000000000000000000000000000000000081526004016115b290612fd3565b60405180910390fd5b80600560008573ffffffffffffffffffffffffffffffffffffffff1673ffffffffffffffffffffffffffffffffffffffff16815260200190815260200160002060008473ffffffffffffffffffffffffffffffffffffffff1673ffffffffffffffffffffffffffffffffffffffff16815260200190815260200160002060006101000a81548160ff0219169083151502179055508173ffffffffffffffffffffffffffffffffffffffff168373ffffffffffffffffffffffffffffffffffffffff167f17307eab39ab6107e8899845ad3d59bd9653f200f220920489ca2b5937696c31836040516116ac9190611fc7565b60405180910390a3505050565b6116c484848461121f565b6116d0848484846118cc565b61170f576040517f08c379a000000000000000000000000000000000000000000000000000000000815260040161170690613065565b60405180910390fd5b50505050565b606061172082610f5e565b61175f576040517f08c379a0000000000000000000000000000000000000000000000000000000008152600401611756906130f7565b60405180910390fd5b600060066000848152602001908152602001600020805461177f90612615565b80601f01602080910402602001604051908101604052809291908181526020018280546117ab90612615565b80156117f85780601f106117cd576101008083540402835291602001916117f8565b820191906000526020600020905b8154815290600101906020018083116117db57829003601f168201915b505050505090506000611809611a54565b905060008151141561181f578192505050611862565b60008251111561185457808260405160200161183c929190613153565b60405160208183030381529060405292505050611862565b61185d84611a6b565b925050505b919050565b6118718383611b12565b61187e60008484846118cc565b6118bd576040517f08c379a00000000000000000000000000000000000000000000000000000000081526004016118b490613065565b60405180910390fd5b505050565b505050565b505050565b60006118ed8473ffffffffffffffffffffffffffffffffffffffff16611cec565b15611a47578373ffffffffffffffffffffffffffffffffffffffff1663150b7a02611916611080565b8786866040518563ffffffff1660e01b815260040161193894939291906131cc565b6020604051808303816000875af192505050801561197457506040513d601f19601f82011682018060405250810190611971919061322d565b60015b6119f7573d80600081146119a4576040519150601f19603f3d011682016040523d82523d6000602084013e6119a9565b606091505b506000815114156119ef576040517f08c379a00000000000000000000000000000000000000000000000000000000081526004016119e690613065565b60405180910390fd5b805181602001fd5b63150b7a0260e01b7bffffffffffffffffffffffffffffffffffffffffffffffffffffffff1916817bffffffffffffffffffffffffffffffffffffffffffffffffffffffff191614915050611a4c565b600190505b949350505050565b606060405180602001604052806000815250905090565b6060611a7682610f5e565b611ab5576040517f08c379a0000000000000000000000000000000000000000000000000000000008152600401611aac906132cc565b60405180910390fd5b6000611abf611a54565b90506000815111611adf5760405180602001604052806000815250611b0a565b80611ae984611d0f565b604051602001611afa929190613153565b6040516020818303038152906040525b915050919050565b600073ffffffffffffffffffffffffffffffffffffffff168273ffffffffffffffffffffffffffffffffffffffff161415611b82576040517f08c379a0000000000000000000000000000000000000000000000000000000008152600401611b7990613338565b60405180910390fd5b611b8b81610f5e565b15611bcb576040517f08c379a0000000000000000000000000000000000000000000000000000000008152600401611bc2906133a4565b60405180910390fd5b611bd7600083836118c2565b6001600360008473ffffffffffffffffffffffffffffffffffffffff1673ffffffffffffffffffffffffffffffffffffffff1681526020019081526020016000206000828254611c279190612f31565b92505081905550816002600083815260200190815260200160002060006101000a81548173ffffffffffffffffffffffffffffffffffffffff021916908373ffffffffffffffffffffffffffffffffffffffff160217905550808273ffffffffffffffffffffffffffffffffffffffff16600073ffffffffffffffffffffffffffffffffffffffff167fddf252ad1be2c89b69c2b068fc378daa952ba7f163c4a11628f55a4df523b3ef60405160405180910390a4611ce8600083836118c7565b5050565b6000808273ffffffffffffffffffffffffffffffffffffffff163b119050919050565b60606000821415611d57576040518060400160405280600181526020017f30000000000000000000000000000000000000000000000000000000000000008152509050611e6b565b600082905060005b60008214611d89578080611d72906133c4565b915050600a82611d82919061343c565b9150611d5f565b60008167ffffffffffffffff811115611da557611da4612192565b5b6040519080825280601f01601f191660200182016040528015611dd75781602001600182028036833780820191505090505b5090505b60008514611e6457600182611df09190612efd565b9150600a85611dff919061346d565b6030611e0b9190612f31565b60f81b818381518110611e2157611e2061349e565b5b60200101907effffffffffffffffffffffffffffffffffffffffffffffffffffffffffffff1916908160001a905350600a85611e5d919061343c565b9450611ddb565b8093505050505b919050565b828054611e7c90612615565b90600052602060002090601f016020900481019282611e9e5760008555611ee5565b82601f10611eb757805160ff1916838001178555611ee5565b82800160010185558215611ee5579182015b82811115611ee4578251825591602001919060010190611ec9565b5b509050611ef29190611ef6565b5090565b5b80821115611f0f576000816000905550600101611ef7565b5090565b6000604051905090565b600080fd5b600080fd5b60007fffffffff0000000000000000000000000000000000000000000000000000000082169050919050565b611f5c81611f27565b8114611f6757600080fd5b50565b600081359050611f7981611f53565b92915050565b600060208284031215611f9557611f94611f1d565b5b6000611fa384828501611f6a565b91505092915050565b60008115159050919050565b611fc181611fac565b82525050565b6000602082019050611fdc6000830184611fb8565b92915050565b600081519050919050565b600082825260208201905092915050565b60005b8381101561201c578082015181840152602081019050612001565b8381111561202b576000848401525b50505050565b6000601f19601f8301169050919050565b600061204d82611fe2565b6120578185611fed565b9350612067818560208601611ffe565b61207081612031565b840191505092915050565b600060208201905081810360008301526120958184612042565b905092915050565b6000819050919050565b6120b08161209d565b81146120bb57600080fd5b50565b6000813590506120cd816120a7565b92915050565b6000602082840312156120e9576120e8611f1d565b5b60006120f7848285016120be565b91505092915050565b600073ffffffffffffffffffffffffffffffffffffffff82169050919050565b600061212b82612100565b9050919050565b61213b81612120565b82525050565b60006020820190506121566000830184612132565b92915050565b61216581612120565b811461217057600080fd5b50565b6000813590506121828161215c565b92915050565b600080fd5b600080fd5b7f4e487b7100000000000000000000000000000000000000000000000000000000600052604160045260246000fd5b6121ca82612031565b810181811067ffffffffffffffff821117156121e9576121e8612192565b5b80604052505050565b60006121fc611f13565b905061220882826121c1565b919050565b600067ffffffffffffffff82111561222857612227612192565b5b61223182612031565b9050602081019050919050565b82818337600083830152505050565b600061226061225b8461220d565b6121f2565b90508281526020810184848401111561227c5761227b61218d565b5b61228784828561223e565b509392505050565b600082601f8301126122a4576122a3612188565b5b81356122b484826020860161224d565b91505092915050565b6000806000606084860312156122d6576122d5611f1d565b5b60006122e486828701612173565b935050602084013567ffffffffffffffff81111561230557612304611f22565b5b6123118682870161228f565b9250506040612322868287016120be565b9150509250925092565b6123358161209d565b82525050565b6000602082019050612350600083018461232c565b92915050565b6000806040838503121561236d5761236c611f1d565b5b600061237b85828601612173565b925050602061238c858286016120be565b9150509250929050565b6000806000606084860312156123af576123ae611f1d565b5b60006123bd86828701612173565b93505060206123ce86828701612173565b92505060406123df868287016120be565b9150509250925092565b6000602082840312156123ff576123fe611f1d565b5b600061240d84828501612173565b91505092915050565b61241f81611fac565b811461242a57600080fd5b50565b60008135905061243c81612416565b92915050565b6000806040838503121561245957612458611f1d565b5b600061246785828601612173565b92505060206124788582860161242d565b9150509250929050565b600067ffffffffffffffff82111561249d5761249c612192565b5b6124a682612031565b9050602081019050919050565b60006124c66124c184612482565b6121f2565b9050828152602081018484840111156124e2576124e161218d565b5b6124ed84828561223e565b509392505050565b600082601f83011261250a57612509612188565b5b813561251a8482602086016124b3565b91505092915050565b6000806000806080858703121561253d5761253c611f1d565b5b600061254b87828801612173565b945050602061255c87828801612173565b935050604061256d878288016120be565b925050606085013567ffffffffffffffff81111561258e5761258d611f22565b5b61259a878288016124f5565b91505092959194509250565b600080604083850312156125bd576125bc611f1d565b5b60006125cb85828601612173565b92505060206125dc85828601612173565b9150509250929050565b7f4e487b7100000000000000000000000000000000000000000000000000000000600052602260045260246000fd5b6000600282049050600182168061262d57607f821691505b60208210811415612641576126406125e6565b5b50919050565b7f4552433732313a20617070726f76656420717565727920666f72206e6f6e657860008201527f697374656e7420746f6b656e0000000000000000000000000000000000000000602082015250565b60006126a3602c83611fed565b91506126ae82612647565b604082019050919050565b600060208201905081810360008301526126d281612696565b9050919050565b7f5072696365206d7573742062652067726561746572207468616e203000000000600082015250565b600061270f601c83611fed565b915061271a826126d9565b602082019050919050565b6000602082019050818103600083015261273e81612702565b9050919050565b600060808201905061275a6000830187612132565b612767602083018661232c565b81810360408301526127798185612042565b9050612788606083018461232c565b95945050505050565b7f4552433732313a20617070726f76616c20746f2063757272656e74206f776e6560008201527f7200000000000000000000000000000000000000000000000000000000000000602082015250565b60006127ed602183611fed565b91506127f882612791565b604082019050919050565b6000602082019050818103600083015261281c816127e0565b9050919050565b7f4552433732313a20617070726f76652063616c6c6572206973206e6f74206f7760008201527f6e6572206e6f7220617070726f76656420666f7220616c6c0000000000000000602082015250565b600061287f603883611fed565b915061288a82612823565b604082019050919050565b600060208201905081810360008301526128ae81612872565b9050919050565b7f4552433732313a207472616e736665722063616c6c6572206973206e6f74206f60008201527f776e6572206e6f7220617070726f766564000000000000000000000000000000602082015250565b6000612911603183611fed565b915061291c826128b5565b604082019050919050565b6000602082019050818103600083015261294081612904565b9050919050565b7f496e73756666696369656e74206777656920666f722070757263686173650000600082015250565b600061297d601e83611fed565b915061298882612947565b602082019050919050565b600060208201905081810360008301526129ac81612970565b9050919050565b60006080820190506129c8600083018761232c565b6129d56020830186612132565b6129e26040830185612132565b6129ef606083018461232c565b95945050505050565b7f4552433732313a206f776e657220717565727920666f72206e6f6e657869737460008201527f656e7420746f6b656e0000000000000000000000000000000000000000000000602082015250565b6000612a54602983611fed565b9150612a5f826129f8565b604082019050919050565b60006020820190508181036000830152612a8381612a47565b9050919050565b7f4552433732313a2062616c616e636520717565727920666f7220746865207a6560008201527f726f206164647265737300000000000000000000000000000000000000000000602082015250565b6000612ae6602a83611fed565b9150612af182612a8a565b604082019050919050565b60006020820190508181036000830152612b1581612ad9565b9050919050565b7f4f776e61626c653a2063616c6c6572206973206e6f7420746865206f776e6572600082015250565b6000612b52602083611fed565b9150612b5d82612b1c565b602082019050919050565b60006020820190508181036000830152612b8181612b45565b9050919050565b7f546f6b656e20707269636520646f6573206e6f74206578697374000000000000600082015250565b6000612bbe601a83611fed565b9150612bc982612b88565b602082019050919050565b60006020820190508181036000830152612bed81612bb1565b9050919050565b7f4f776e61626c653a206e6577206f776e657220697320746865207a65726f206160008201527f6464726573730000000000000000000000000000000000000000000000000000602082015250565b6000612c50602683611fed565b9150612c5b82612bf4565b604082019050919050565b60006020820190508181036000830152612c7f81612c43565b9050919050565b7f45524337323155524953746f726167653a2055524920736574206f66206e6f6e60008201527f6578697374656e7420746f6b656e000000000000000000000000000000000000602082015250565b6000612ce2602e83611fed565b9150612ced82612c86565b604082019050919050565b60006020820190508181036000830152612d1181612cd5565b9050919050565b7f4552433732313a206f70657261746f7220717565727920666f72206e6f6e657860008201527f697374656e7420746f6b656e0000000000000000000000000000000000000000602082015250565b6000612d74602c83611fed565b9150612d7f82612d18565b604082019050919050565b60006020820190508181036000830152612da381612d67565b9050919050565b7f4552433732313a207472616e736665722066726f6d20696e636f72726563742060008201527f6f776e6572000000000000000000000000000000000000000000000000000000602082015250565b6000612e06602583611fed565b9150612e1182612daa565b604082019050919050565b60006020820190508181036000830152612e3581612df9565b9050919050565b7f4552433732313a207472616e7366657220746f20746865207a65726f2061646460008201527f7265737300000000000000000000000000000000000000000000000000000000602082015250565b6000612e98602483611fed565b9150612ea382612e3c565b604082019050919050565b60006020820190508181036000830152612ec781612e8b565b9050919050565b7f4e487b7100000000000000000000000000000000000000000000000000000000600052601160045260246000fd5b6000612f088261209d565b9150612f138361209d565b925082821015612f2657612f25612ece565b5b828203905092915050565b6000612f3c8261209d565b9150612f478361209d565b9250827fffffffffffffffffffffffffffffffffffffffffffffffffffffffffffffffff03821115612f7c57612f7b612ece565b5b828201905092915050565b7f4552433732313a20617070726f766520746f2063616c6c657200000000000000600082015250565b6000612fbd601983611fed565b9150612fc882612f87565b602082019050919050565b60006020820190508181036000830152612fec81612fb0565b9050919050565b7f4552433732313a207472616e7366657220746f206e6f6e20455243373231526560008201527f63656976657220696d706c656d656e7465720000000000000000000000000000602082015250565b600061304f603283611fed565b915061305a82612ff3565b604082019050919050565b6000602082019050818103600083015261307e81613042565b9050919050565b7f45524337323155524953746f726167653a2055524920717565727920666f722060008201527f6e6f6e6578697374656e7420746f6b656e000000000000000000000000000000602082015250565b60006130e1603183611fed565b91506130ec82613085565b604082019050919050565b60006020820190508181036000830152613110816130d4565b9050919050565b600081905092915050565b600061312d82611fe2565b6131378185613117565b9350613147818560208601611ffe565b80840191505092915050565b600061315f8285613122565b915061316b8284613122565b91508190509392505050565b600081519050919050565b600082825260208201905092915050565b600061319e82613177565b6131a88185613182565b93506131b8818560208601611ffe565b6131c181612031565b840191505092915050565b60006080820190506131e16000830187612132565b6131ee6020830186612132565b6131fb604083018561232c565b818103606083015261320d8184613193565b905095945050505050565b60008151905061322781611f53565b92915050565b60006020828403121561324357613242611f1d565b5b600061325184828501613218565b91505092915050565b7f4552433732314d657461646174613a2055524920717565727920666f72206e6f60008201527f6e6578697374656e7420746f6b656e0000000000000000000000000000000000602082015250565b60006132b6602f83611fed565b91506132c18261325a565b604082019050919050565b600060208201905081810360008301526132e5816132a9565b9050919050565b7f4552433732313a206d696e7420746f20746865207a65726f2061646472657373600082015250565b6000613322602083611fed565b915061332d826132ec565b602082019050919050565b6000602082019050818103600083015261335181613315565b9050919050565b7f4552433732313a20746f6b656e20616c7265616479206d696e74656400000000600082015250565b600061338e601c83611fed565b915061339982613358565b602082019050919050565b600060208201905081810360008301526133bd81613381565b9050919050565b60006133cf8261209d565b91507fffffffffffffffffffffffffffffffffffffffffffffffffffffffffffffffff82141561340257613401612ece565b5b600182019050919050565b7f4e487b7100000000000000000000000000000000000000000000000000000000600052601260045260246000fd5b60006134478261209d565b91506134528361209d565b9250826134625761346161340d565b5b828204905092915050565b60006134788261209d565b91506134838361209d565b9250826134935761349261340d565b5b828206905092915050565b7f4e487b7100000000000000000000000000000000000000000000000000000000600052603260045260246000fdfea26469706673582212206da43f62ea8b05565f8ca1cd3d9931561bf311f344add36bf2ec2e1ff269519664736f6c634300080b0033",
  "linkReferences": {},
  "deployedLinkReferences": {}
}