{
  "contractName": "NudeNFT",
  "abi": [
    {
      "inputs": [],
      "stateMutability": "nonpayable",
      "type": "constructor"
    },
    {
      "anonymous": false,
      "inputs": [
        {
          "indexed": true,
          "internalType": "address",
          "name": "owner",
          "type": "address"
        },
        {
          "indexed": true,
          "internalType": "address",
          "name": "approved",
          "type": "address"
        },
        {
          "indexed": true,
          "internalType": "uint256",
          "name": "tokenId",
          "type": "uint256"
        }
      ],
      "name": "Approval",
      "type": "event"
    },
    {
      "anonymous": false,
      "inputs": [
        {
          "indexed": true,
          "internalType": "address",
          "name": "owner",
          "type": "address"
        },
        {
          "indexed": true,
          "internalType": "address",
          "name": "operator",
          "type": "address"
        },
        {
          "indexed": false,
          "internalType": "bool",
          "name": "approved",
          "type": "bool"
        }
      ],
      "name": "ApprovalForAll",
      "type": "event"
    },
    {
      "anonymous": false,
      "inputs": [
        {
          "indexed": true,
          "internalType": "address",
          "name": "previousOwner",
          "type": "address"
        },
        {
          "indexed": true,
          "internalType": "address",
          "name": "newOwner",
          "type": "address"
        }
      ],
      "name": "OwnershipTransferred",
      "type": "event"
    },
    {
      "anonymous": false,
      "inputs": [
        {
          "indexed": true,
          "internalType": "address",
          "name": "from",
          "type": "address"
        },
        {
          "indexed": true,
          "internalType": "address",
          "name": "to",
          "type": "address"
        },
        {
          "indexed": true,
          "internalType": "uint256",
          "name": "tokenId",
          "type": "uint256"
        }
      ],
      "name": "Transfer",
      "type": "event"
    },
    {
      "inputs": [
        {
          "internalType": "address",
          "name": "to",
          "type": "address"
        },
        {
          "internalType": "uint256",
          "name": "tokenId",
          "type": "uint256"
        }
      ],
      "name": "approve",
      "outputs": [],
      "stateMutability": "nonpayable",
      "type": "function"
    },
    {
      "inputs": [
        {
          "internalType": "address",
          "name": "owner",
          "type": "address"
        }
      ],
      "name": "balanceOf",
      "outputs": [
        {
          "internalType": "uint256",
          "name": "",
          "type": "uint256"
        }
      ],
      "stateMutability": "view",
      "type": "function"
    },
    {
      "inputs": [
        {
          "internalType": "uint256",
          "name": "tokenId",
          "type": "uint256"
        }
      ],
      "name": "burn",
      "outputs": [],
      "stateMutability": "nonpayable",
      "type": "function"
    },
    {
      "inputs": [
        {
          "internalType": "uint256",
          "name": "tokenId",
          "type": "uint256"
        }
      ],
      "name": "getApproved",
      "outputs": [
        {
          "internalType": "address",
          "name": "",
          "type": "address"
        }
      ],
      "stateMutability": "view",
      "type": "function"
    },
    {
      "inputs": [
        {
          "internalType": "address",
          "name": "owner",
          "type": "address"
        },
        {
          "internalType": "address",
          "name": "operator",
          "type": "address"
        }
      ],
      "name": "isApprovedForAll",
      "outputs": [
        {
          "internalType": "bool",
          "name": "",
          "type": "bool"
        }
      ],
      "stateMutability": "view",
      "type": "function"
    },
    {
      "inputs": [],
      "name": "name",
      "outputs": [
        {
          "internalType": "string",
          "name": "",
          "type": "string"
        }
      ],
      "stateMutability": "view",
      "type": "function"
    },
    {
      "inputs": [],
      "name": "owner",
      "outputs": [
        {
          "internalType": "address",
          "name": "",
          "type": "address"
        }
      ],
      "stateMutability": "view",
      "type": "function"
    },
    {
      "inputs": [
        {
          "internalType": "uint256",
          "name": "tokenId",
          "type": "uint256"
        }
      ],
      "name": "ownerOf",
      "outputs": [
        {
          "internalType": "address",
          "name": "",
          "type": "address"
        }
      ],
      "stateMutability": "view",
      "type": "function"
    },
    {
      "inputs": [],
      "name": "renounceOwnership",
      "outputs": [],
      "stateMutability": "nonpayable",
      "type": "function"
    },
    {
      "inputs": [
        {
          "internalType": "address",
          "name": "from",
          "type": "address"
        },
        {
          "internalType": "address",
          "name": "to",
          "type": "address"
        },
        {
          "internalType": "uint256",
          "name": "tokenId",
          "type": "uint256"
        }
      ],
      "name": "safeTransferFrom",
      "outputs": [],
      "stateMutability": "nonpayable",
      "type": "function"
    },
    {
      "inputs": [
        {
          "internalType": "address",
          "name": "from",
          "type": "address"
        },
        {
          "internalType": "address",
          "name": "to",
          "type": "address"
        },
        {
          "internalType": "uint256",
          "name": "tokenId",
          "type": "uint256"
        },
        {
          "internalType": "bytes",
          "name": "_data",
          "type": "bytes"
        }
      ],
      "name": "safeTransferFrom",
      "outputs": [],
      "stateMutability": "nonpayable",
      "type": "function"
    },
    {
      "inputs": [
        {
          "internalType": "address",
          "name": "operator",
          "type": "address"
        },
        {
          "internalType": "bool",
          "name": "approved",
          "type": "bool"
        }
      ],
      "name": "setApprovalForAll",
      "outputs": [],
      "stateMutability": "nonpayable",
      "type": "function"
    },
    {
      "inputs": [
        {
          "internalType": "bytes4",
          "name": "interfaceId",
          "type": "bytes4"
        }
      ],
      "name": "supportsInterface",
      "outputs": [
        {
          "internalType": "bool",
          "name": "",
          "type": "bool"
        }
      ],
      "stateMutability": "view",
      "type": "function"
    },
    {
      "inputs": [],
      "name": "symbol",
      "outputs": [
        {
          "internalType": "string",
          "name": "",
          "type": "string"
        }
      ],
      "stateMutability": "view",
      "type": "function"
    },
    {
      "inputs": [
        {
          "internalType": "address",
          "name": "from",
          "type": "address"
        },
        {
          "internalType": "address",
          "name": "to",
          "type": "address"
        },
        {
          "internalType": "uint256",
          "name": "tokenId",
          "type": "uint256"
        }
      ],
      "name": "transferFrom",
      "outputs": [],
      "stateMutability": "nonpayable",
      "type": "function"
    },
    {
      "inputs": [
        {
          "internalType": "address",
          "name": "newOwner",
          "type": "address"
        }
      ],
      "name": "transferOwnership",
      "outputs": [],
      "stateMutability": "nonpayable",
      "type": "function"
    },
    {
      "inputs": [
        {
          "internalType": "address",
          "name": "to",
          "type": "address"
        }
      ],
      "name": "safeMint",
      "outputs": [],
      "stateMutability": "nonpayable",
      "type": "function"
    },
    {
      "inputs": [
        {
          "internalType": "uint256",
          "name": "tokenId",
          "type": "uint256"
        }
      ],
      "name": "tokenURI",
      "outputs": [
        {
          "internalType": "string",
          "name": "",
          "type": "string"
        }
      ],
      "stateMutability": "view",
      "type": "function"
    }
  ],
  "bytecode": "0x60806040523480156200001157600080fd5b506040518060400160405280600781526020017f4e7564654e4654000000000000000000000000000000000000000000000000008152506040518060400160405280600781526020017f4e5544454e46540000000000000000000000000000000000000000000000000081525081600090805190602001906200009692919062000171565b508060019080519060200190620000af92919062000171565b5050506000620000c46200016960201b60201c565b905080600760006101000a81548173ffffffffffffffffffffffffffffffffffffffff021916908373ffffffffffffffffffffffffffffffffffffffff1602179055508073ffffffffffffffffffffffffffffffffffffffff16600073ffffffffffffffffffffffffffffffffffffffff167f8be0079c531659141344cd1fd0a4f28419497f9722a3daafe3b4186f6b6457e060405160405180910390a35062000286565b600033905090565b8280546200017f9062000221565b90600052602060002090601f016020900481019282620001a35760008555620001ef565b82601f10620001be57805160ff1916838001178555620001ef565b82800160010185558215620001ef579182015b82811115620001ee578251825591602001919060010190620001d1565b5b509050620001fe919062000202565b5090565b5b808211156200021d57600081600090555060010162000203565b5090565b600060028204905060018216806200023a57607f821691505b6020821081141562000251576200025062000257565b5b50919050565b7f4e487b7100000000000000000000000000000000000000000000000000000000600052602260045260246000fd5b61313080620002966000396000f3fe608060405234801561001057600080fd5b50600436106101165760003560e01c806370a08231116100a2578063a22cb46511610071578063a22cb465146102cb578063b88d4fde146102e7578063c87b56dd14610303578063e985e9c514610333578063f2fde38b1461036357610116565b806370a0823114610255578063715018a6146102855780638da5cb5b1461028f57806395d89b41146102ad57610116565b806323b872dd116100e957806323b872dd146101b557806340d097c3146101d157806342842e0e146101ed57806342966c68146102095780636352211e1461022557610116565b806301ffc9a71461011b57806306fdde031461014b578063081812fc14610169578063095ea7b314610199575b600080fd5b610135600480360381019061013091906120c1565b61037f565b6040516101429190612519565b60405180910390f35b610153610461565b6040516101609190612534565b60405180910390f35b610183600480360381019061017e919061211b565b6104f3565b60405161019091906124b2565b60405180910390f35b6101b360048036038101906101ae9190612081565b610578565b005b6101cf60048036038101906101ca9190611f6b565b610690565b005b6101eb60048036038101906101e69190611efe565b6106f0565b005b61020760048036038101906102029190611f6b565b61078c565b005b610223600480360381019061021e919061211b565b6107ac565b005b61023f600480360381019061023a919061211b565b610808565b60405161024c91906124b2565b60405180910390f35b61026f600480360381019061026a9190611efe565b6108ba565b60405161027c9190612796565b60405180910390f35b61028d610972565b005b610297610aaf565b6040516102a491906124b2565b60405180910390f35b6102b5610ad9565b6040516102c29190612534565b60405180910390f35b6102e560048036038101906102e09190612041565b610b6b565b005b61030160048036038101906102fc9190611fbe565b610cec565b005b61031d6004803603810190610318919061211b565b610d4e565b60405161032a9190612534565b60405180910390f35b61034d60048036038101906103489190611f2b565b610d60565b60405161035a9190612519565b60405180910390f35b61037d60048036038101906103789190611efe565b610df4565b005b60007f80ac58cd000000000000000000000000000000000000000000000000000000007bffffffffffffffffffffffffffffffffffffffffffffffffffffffff1916827bffffffffffffffffffffffffffffffffffffffffffffffffffffffff1916148061044a57507f5b5e139f000000000000000000000000000000000000000000000000000000007bffffffffffffffffffffffffffffffffffffffffffffffffffffffff1916827bffffffffffffffffffffffffffffffffffffffffffffffffffffffff1916145b8061045a575061045982610fa0565b5b9050919050565b606060008054610470906129bb565b80601f016020809104026020016040519081016040528092919081815260200182805461049c906129bb565b80156104e95780601f106104be576101008083540402835291602001916104e9565b820191906000526020600020905b8154815290600101906020018083116104cc57829003601f168201915b5050505050905090565b60006104fe8261100a565b61053d576040517f08c379a0000000000000000000000000000000000000000000000000000000008152600401610534906126b6565b60405180910390fd5b6004600083815260200190815260200160002060009054906101000a900473ffffffffffffffffffffffffffffffffffffffff169050919050565b600061058382610808565b90508073ffffffffffffffffffffffffffffffffffffffff168373ffffffffffffffffffffffffffffffffffffffff1614156105f4576040517f08c379a00000000000000000000000000000000000000000000000000000000081526004016105eb90612736565b60405180910390fd5b8073ffffffffffffffffffffffffffffffffffffffff16610613611076565b73ffffffffffffffffffffffffffffffffffffffff16148061064257506106418161063c611076565b610d60565b5b610681576040517f08c379a000000000000000000000000000000000000000000000000000000000815260040161067890612616565b60405180910390fd5b61068b838361107e565b505050565b6106a161069b611076565b82611137565b6106e0576040517f08c379a00000000000000000000000000000000000000000000000000000000081526004016106d790612756565b60405180910390fd5b6106eb838383611215565b505050565b6106f8611076565b73ffffffffffffffffffffffffffffffffffffffff16610716610aaf565b73ffffffffffffffffffffffffffffffffffffffff161461076c576040517f08c379a0000000000000000000000000000000000000000000000000000000008152600401610763906126d6565b60405180910390fd5b61077f8161077a6008611471565b61147f565b610789600861149d565b50565b6107a783838360405180602001604052806000815250610cec565b505050565b6107bd6107b7611076565b82611137565b6107fc576040517f08c379a00000000000000000000000000000000000000000000000000000000081526004016107f390612776565b60405180910390fd5b610805816114b3565b50565b6000806002600084815260200190815260200160002060009054906101000a900473ffffffffffffffffffffffffffffffffffffffff169050600073ffffffffffffffffffffffffffffffffffffffff168173ffffffffffffffffffffffffffffffffffffffff1614156108b1576040517f08c379a00000000000000000000000000000000000000000000000000000000081526004016108a890612656565b60405180910390fd5b80915050919050565b60008073ffffffffffffffffffffffffffffffffffffffff168273ffffffffffffffffffffffffffffffffffffffff16141561092b576040517f08c379a000000000000000000000000000000000000000000000000000000000815260040161092290612636565b60405180910390fd5b600360008373ffffffffffffffffffffffffffffffffffffffff1673ffffffffffffffffffffffffffffffffffffffff168152602001908152602001600020549050919050565b61097a611076565b73ffffffffffffffffffffffffffffffffffffffff16610998610aaf565b73ffffffffffffffffffffffffffffffffffffffff16146109ee576040517f08c379a00000000000000000000000000000000000000000000000000000000081526004016109e5906126d6565b60405180910390fd5b600073ffffffffffffffffffffffffffffffffffffffff16600760009054906101000a900473ffffffffffffffffffffffffffffffffffffffff1673ffffffffffffffffffffffffffffffffffffffff167f8be0079c531659141344cd1fd0a4f28419497f9722a3daafe3b4186f6b6457e060405160405180910390a36000600760006101000a81548173ffffffffffffffffffffffffffffffffffffffff021916908373ffffffffffffffffffffffffffffffffffffffff160217905550565b6000600760009054906101000a900473ffffffffffffffffffffffffffffffffffffffff16905090565b606060018054610ae8906129bb565b80601f0160208091040260200160405190810160405280929190818152602001828054610b14906129bb565b8015610b615780601f10610b3657610100808354040283529160200191610b61565b820191906000526020600020905b815481529060010190602001808311610b4457829003601f168201915b5050505050905090565b610b73611076565b73ffffffffffffffffffffffffffffffffffffffff168273ffffffffffffffffffffffffffffffffffffffff161415610be1576040517f08c379a0000000000000000000000000000000000000000000000000000000008152600401610bd8906125d6565b60405180910390fd5b8060056000610bee611076565b73ffffffffffffffffffffffffffffffffffffffff1673ffffffffffffffffffffffffffffffffffffffff16815260200190815260200160002060008473ffffffffffffffffffffffffffffffffffffffff1673ffffffffffffffffffffffffffffffffffffffff16815260200190815260200160002060006101000a81548160ff0219169083151502179055508173ffffffffffffffffffffffffffffffffffffffff16610c9b611076565b73ffffffffffffffffffffffffffffffffffffffff167f17307eab39ab6107e8899845ad3d59bd9653f200f220920489ca2b5937696c3183604051610ce09190612519565b60405180910390a35050565b610cfd610cf7611076565b83611137565b610d3c576040517f08c379a0000000000000000000000000000000000000000000000000000000008152600401610d3390612756565b60405180910390fd5b610d48848484846114bf565b50505050565b6060610d598261151b565b9050919050565b6000600560008473ffffffffffffffffffffffffffffffffffffffff1673ffffffffffffffffffffffffffffffffffffffff16815260200190815260200160002060008373ffffffffffffffffffffffffffffffffffffffff1673ffffffffffffffffffffffffffffffffffffffff16815260200190815260200160002060009054906101000a900460ff16905092915050565b610dfc611076565b73ffffffffffffffffffffffffffffffffffffffff16610e1a610aaf565b73ffffffffffffffffffffffffffffffffffffffff1614610e70576040517f08c379a0000000000000000000000000000000000000000000000000000000008152600401610e67906126d6565b60405180910390fd5b600073ffffffffffffffffffffffffffffffffffffffff168173ffffffffffffffffffffffffffffffffffffffff161415610ee0576040517f08c379a0000000000000000000000000000000000000000000000000000000008152600401610ed790612576565b60405180910390fd5b8073ffffffffffffffffffffffffffffffffffffffff16600760009054906101000a900473ffffffffffffffffffffffffffffffffffffffff1673ffffffffffffffffffffffffffffffffffffffff167f8be0079c531659141344cd1fd0a4f28419497f9722a3daafe3b4186f6b6457e060405160405180910390a380600760006101000a81548173ffffffffffffffffffffffffffffffffffffffff021916908373ffffffffffffffffffffffffffffffffffffffff16021790555050565b60007f01ffc9a7000000000000000000000000000000000000000000000000000000007bffffffffffffffffffffffffffffffffffffffffffffffffffffffff1916827bffffffffffffffffffffffffffffffffffffffffffffffffffffffff1916149050919050565b60008073ffffffffffffffffffffffffffffffffffffffff166002600084815260200190815260200160002060009054906101000a900473ffffffffffffffffffffffffffffffffffffffff1673ffffffffffffffffffffffffffffffffffffffff1614159050919050565b600033905090565b816004600083815260200190815260200160002060006101000a81548173ffffffffffffffffffffffffffffffffffffffff021916908373ffffffffffffffffffffffffffffffffffffffff160217905550808273ffffffffffffffffffffffffffffffffffffffff166110f183610808565b73ffffffffffffffffffffffffffffffffffffffff167f8c5be1e5ebec7d5bd14f71427d1e84f3dd0314c0f7b2291e5b200ac8c7c3b92560405160405180910390a45050565b60006111428261100a565b611181576040517f08c379a0000000000000000000000000000000000000000000000000000000008152600401611178906125f6565b60405180910390fd5b600061118c83610808565b90508073ffffffffffffffffffffffffffffffffffffffff168473ffffffffffffffffffffffffffffffffffffffff1614806111fb57508373ffffffffffffffffffffffffffffffffffffffff166111e3846104f3565b73ffffffffffffffffffffffffffffffffffffffff16145b8061120c575061120b8185610d60565b5b91505092915050565b8273ffffffffffffffffffffffffffffffffffffffff1661123582610808565b73ffffffffffffffffffffffffffffffffffffffff161461128b576040517f08c379a0000000000000000000000000000000000000000000000000000000008152600401611282906126f6565b60405180910390fd5b600073ffffffffffffffffffffffffffffffffffffffff168273ffffffffffffffffffffffffffffffffffffffff1614156112fb576040517f08c379a00000000000000000000000000000000000000000000000000000000081526004016112f2906125b6565b60405180910390fd5b61130683838361166d565b61131160008261107e565b6001600360008573ffffffffffffffffffffffffffffffffffffffff1673ffffffffffffffffffffffffffffffffffffffff168152602001908152602001600020600082825461136191906128d1565b925050819055506001600360008473ffffffffffffffffffffffffffffffffffffffff1673ffffffffffffffffffffffffffffffffffffffff16815260200190815260200160002060008282546113b8919061284a565b92505081905550816002600083815260200190815260200160002060006101000a81548173ffffffffffffffffffffffffffffffffffffffff021916908373ffffffffffffffffffffffffffffffffffffffff160217905550808273ffffffffffffffffffffffffffffffffffffffff168473ffffffffffffffffffffffffffffffffffffffff167fddf252ad1be2c89b69c2b068fc378daa952ba7f163c4a11628f55a4df523b3ef60405160405180910390a4505050565b600081600001549050919050565b611499828260405180602001604052806000815250611672565b5050565b6001816000016000828254019250508190555050565b6114bc816116cd565b50565b6114ca848484611215565b6114d684848484611720565b611515576040517f08c379a000000000000000000000000000000000000000000000000000000000815260040161150c90612556565b60405180910390fd5b50505050565b60606115268261100a565b611565576040517f08c379a000000000000000000000000000000000000000000000000000000000815260040161155c90612696565b60405180910390fd5b6000600660008481526020019081526020016000208054611585906129bb565b80601f01602080910402602001604051908101604052809291908181526020018280546115b1906129bb565b80156115fe5780601f106115d3576101008083540402835291602001916115fe565b820191906000526020600020905b8154815290600101906020018083116115e157829003601f168201915b50505050509050600061160f6118b7565b9050600081511415611625578192505050611668565b60008251111561165a57808260405160200161164292919061248e565b60405160208183030381529060405292505050611668565b611663846118ce565b925050505b919050565b505050565b61167c8383611975565b6116896000848484611720565b6116c8576040517f08c379a00000000000000000000000000000000000000000000000000000000081526004016116bf90612556565b60405180910390fd5b505050565b6116d681611b43565b60006006600083815260200190815260200160002080546116f6906129bb565b90501461171d5760066000828152602001908152602001600020600061171c9190611dc8565b5b50565b60006117418473ffffffffffffffffffffffffffffffffffffffff16611c54565b156118aa578373ffffffffffffffffffffffffffffffffffffffff1663150b7a0261176a611076565b8786866040518563ffffffff1660e01b815260040161178c94939291906124cd565b602060405180830381600087803b1580156117a657600080fd5b505af19250505080156117d757506040513d601f19601f820116820180604052508101906117d491906120ee565b60015b61185a573d8060008114611807576040519150601f19603f3d011682016040523d82523d6000602084013e61180c565b606091505b50600081511415611852576040517f08c379a000000000000000000000000000000000000000000000000000000000815260040161184990612556565b60405180910390fd5b805181602001fd5b63150b7a0260e01b7bffffffffffffffffffffffffffffffffffffffffffffffffffffffff1916817bffffffffffffffffffffffffffffffffffffffffffffffffffffffff1916149150506118af565b600190505b949350505050565b606060405180602001604052806000815250905090565b60606118d98261100a565b611918576040517f08c379a000000000000000000000000000000000000000000000000000000000815260040161190f90612716565b60405180910390fd5b60006119226118b7565b90506000815111611942576040518060200160405280600081525061196d565b8061194c84611c67565b60405160200161195d92919061248e565b6040516020818303038152906040525b915050919050565b600073ffffffffffffffffffffffffffffffffffffffff168273ffffffffffffffffffffffffffffffffffffffff1614156119e5576040517f08c379a00000000000000000000000000000000000000000000000000000000081526004016119dc90612676565b60405180910390fd5b6119ee8161100a565b15611a2e576040517f08c379a0000000000000000000000000000000000000000000000000000000008152600401611a2590612596565b60405180910390fd5b611a3a6000838361166d565b6001600360008473ffffffffffffffffffffffffffffffffffffffff1673ffffffffffffffffffffffffffffffffffffffff1681526020019081526020016000206000828254611a8a919061284a565b92505081905550816002600083815260200190815260200160002060006101000a81548173ffffffffffffffffffffffffffffffffffffffff021916908373ffffffffffffffffffffffffffffffffffffffff160217905550808273ffffffffffffffffffffffffffffffffffffffff16600073ffffffffffffffffffffffffffffffffffffffff167fddf252ad1be2c89b69c2b068fc378daa952ba7f163c4a11628f55a4df523b3ef60405160405180910390a45050565b6000611b4e82610808565b9050611b5c8160008461166d565b611b6760008361107e565b6001600360008373ffffffffffffffffffffffffffffffffffffffff1673ffffffffffffffffffffffffffffffffffffffff1681526020019081526020016000206000828254611bb791906128d1565b925050819055506002600083815260200190815260200160002060006101000a81549073ffffffffffffffffffffffffffffffffffffffff021916905581600073ffffffffffffffffffffffffffffffffffffffff168273ffffffffffffffffffffffffffffffffffffffff167fddf252ad1be2c89b69c2b068fc378daa952ba7f163c4a11628f55a4df523b3ef60405160405180910390a45050565b600080823b905060008111915050919050565b60606000821415611caf576040518060400160405280600181526020017f30000000000000000000000000000000000000000000000000000000000000008152509050611dc3565b600082905060005b60008214611ce1578080611cca90612a1e565b915050600a82611cda91906128a0565b9150611cb7565b60008167ffffffffffffffff811115611cfd57611cfc612b54565b5b6040519080825280601f01601f191660200182016040528015611d2f5781602001600182028036833780820191505090505b5090505b60008514611dbc57600182611d4891906128d1565b9150600a85611d579190612a67565b6030611d63919061284a565b60f81b818381518110611d7957611d78612b25565b5b60200101907effffffffffffffffffffffffffffffffffffffffffffffffffffffffffffff1916908160001a905350600a85611db591906128a0565b9450611d33565b8093505050505b919050565b508054611dd4906129bb565b6000825580601f10611de65750611e05565b601f016020900490600052602060002090810190611e049190611e08565b5b50565b5b80821115611e21576000816000905550600101611e09565b5090565b6000611e38611e33846127d6565b6127b1565b905082815260208101848484011115611e5457611e53612b88565b5b611e5f848285612979565b509392505050565b600081359050611e768161309e565b92915050565b600081359050611e8b816130b5565b92915050565b600081359050611ea0816130cc565b92915050565b600081519050611eb5816130cc565b92915050565b600082601f830112611ed057611ecf612b83565b5b8135611ee0848260208601611e25565b91505092915050565b600081359050611ef8816130e3565b92915050565b600060208284031215611f1457611f13612b92565b5b6000611f2284828501611e67565b91505092915050565b60008060408385031215611f4257611f41612b92565b5b6000611f5085828601611e67565b9250506020611f6185828601611e67565b9150509250929050565b600080600060608486031215611f8457611f83612b92565b5b6000611f9286828701611e67565b9350506020611fa386828701611e67565b9250506040611fb486828701611ee9565b9150509250925092565b60008060008060808587031215611fd857611fd7612b92565b5b6000611fe687828801611e67565b9450506020611ff787828801611e67565b935050604061200887828801611ee9565b925050606085013567ffffffffffffffff81111561202957612028612b8d565b5b61203587828801611ebb565b91505092959194509250565b6000806040838503121561205857612057612b92565b5b600061206685828601611e67565b925050602061207785828601611e7c565b9150509250929050565b6000806040838503121561209857612097612b92565b5b60006120a685828601611e67565b92505060206120b785828601611ee9565b9150509250929050565b6000602082840312156120d7576120d6612b92565b5b60006120e584828501611e91565b91505092915050565b60006020828403121561210457612103612b92565b5b600061211284828501611ea6565b91505092915050565b60006020828403121561213157612130612b92565b5b600061213f84828501611ee9565b91505092915050565b61215181612905565b82525050565b61216081612917565b82525050565b600061217182612807565b61217b818561281d565b935061218b818560208601612988565b61219481612b97565b840191505092915050565b60006121aa82612812565b6121b4818561282e565b93506121c4818560208601612988565b6121cd81612b97565b840191505092915050565b60006121e382612812565b6121ed818561283f565b93506121fd818560208601612988565b80840191505092915050565b600061221660328361282e565b915061222182612ba8565b604082019050919050565b600061223960268361282e565b915061224482612bf7565b604082019050919050565b600061225c601c8361282e565b915061226782612c46565b602082019050919050565b600061227f60248361282e565b915061228a82612c6f565b604082019050919050565b60006122a260198361282e565b91506122ad82612cbe565b602082019050919050565b60006122c5602c8361282e565b91506122d082612ce7565b604082019050919050565b60006122e860388361282e565b91506122f382612d36565b604082019050919050565b600061230b602a8361282e565b915061231682612d85565b604082019050919050565b600061232e60298361282e565b915061233982612dd4565b604082019050919050565b600061235160208361282e565b915061235c82612e23565b602082019050919050565b600061237460318361282e565b915061237f82612e4c565b604082019050919050565b6000612397602c8361282e565b91506123a282612e9b565b604082019050919050565b60006123ba60208361282e565b91506123c582612eea565b602082019050919050565b60006123dd60298361282e565b91506123e882612f13565b604082019050919050565b6000612400602f8361282e565b915061240b82612f62565b604082019050919050565b600061242360218361282e565b915061242e82612fb1565b604082019050919050565b600061244660318361282e565b915061245182613000565b604082019050919050565b600061246960308361282e565b91506124748261304f565b604082019050919050565b6124888161296f565b82525050565b600061249a82856121d8565b91506124a682846121d8565b91508190509392505050565b60006020820190506124c76000830184612148565b92915050565b60006080820190506124e26000830187612148565b6124ef6020830186612148565b6124fc604083018561247f565b818103606083015261250e8184612166565b905095945050505050565b600060208201905061252e6000830184612157565b92915050565b6000602082019050818103600083015261254e818461219f565b905092915050565b6000602082019050818103600083015261256f81612209565b9050919050565b6000602082019050818103600083015261258f8161222c565b9050919050565b600060208201905081810360008301526125af8161224f565b9050919050565b600060208201905081810360008301526125cf81612272565b9050919050565b600060208201905081810360008301526125ef81612295565b9050919050565b6000602082019050818103600083015261260f816122b8565b9050919050565b6000602082019050818103600083015261262f816122db565b9050919050565b6000602082019050818103600083015261264f816122fe565b9050919050565b6000602082019050818103600083015261266f81612321565b9050919050565b6000602082019050818103600083015261268f81612344565b9050919050565b600060208201905081810360008301526126af81612367565b9050919050565b600060208201905081810360008301526126cf8161238a565b9050919050565b600060208201905081810360008301526126ef816123ad565b9050919050565b6000602082019050818103600083015261270f816123d0565b9050919050565b6000602082019050818103600083015261272f816123f3565b9050919050565b6000602082019050818103600083015261274f81612416565b9050919050565b6000602082019050818103600083015261276f81612439565b9050919050565b6000602082019050818103600083015261278f8161245c565b9050919050565b60006020820190506127ab600083018461247f565b92915050565b60006127bb6127cc565b90506127c782826129ed565b919050565b6000604051905090565b600067ffffffffffffffff8211156127f1576127f0612b54565b5b6127fa82612b97565b9050602081019050919050565b600081519050919050565b600081519050919050565b600082825260208201905092915050565b600082825260208201905092915050565b600081905092915050565b60006128558261296f565b91506128608361296f565b9250827fffffffffffffffffffffffffffffffffffffffffffffffffffffffffffffffff0382111561289557612894612a98565b5b828201905092915050565b60006128ab8261296f565b91506128b68361296f565b9250826128c6576128c5612ac7565b5b828204905092915050565b60006128dc8261296f565b91506128e78361296f565b9250828210156128fa576128f9612a98565b5b828203905092915050565b60006129108261294f565b9050919050565b60008115159050919050565b60007fffffffff0000000000000000000000000000000000000000000000000000000082169050919050565b600073ffffffffffffffffffffffffffffffffffffffff82169050919050565b6000819050919050565b82818337600083830152505050565b60005b838110156129a657808201518184015260208101905061298b565b838111156129b5576000848401525b50505050565b600060028204905060018216806129d357607f821691505b602082108114156129e7576129e6612af6565b5b50919050565b6129f682612b97565b810181811067ffffffffffffffff82111715612a1557612a14612b54565b5b80604052505050565b6000612a298261296f565b91507fffffffffffffffffffffffffffffffffffffffffffffffffffffffffffffffff821415612a5c57612a5b612a98565b5b600182019050919050565b6000612a728261296f565b9150612a7d8361296f565b925082612a8d57612a8c612ac7565b5b828206905092915050565b7f4e487b7100000000000000000000000000000000000000000000000000000000600052601160045260246000fd5b7f4e487b7100000000000000000000000000000000000000000000000000000000600052601260045260246000fd5b7f4e487b7100000000000000000000000000000000000000000000000000000000600052602260045260246000fd5b7f4e487b7100000000000000000000000000000000000000000000000000000000600052603260045260246000fd5b7f4e487b7100000000000000000000000000000000000000000000000000000000600052604160045260246000fd5b600080fd5b600080fd5b600080fd5b600080fd5b6000601f19601f8301169050919050565b7f4552433732313a207472616e7366657220746f206e6f6e20455243373231526560008201527f63656976657220696d706c656d656e7465720000000000000000000000000000602082015250565b7f4f776e61626c653a206e6577206f776e657220697320746865207a65726f206160008201527f6464726573730000000000000000000000000000000000000000000000000000602082015250565b7f4552433732313a20746f6b656e20616c7265616479206d696e74656400000000600082015250565b7f4552433732313a207472616e7366657220746f20746865207a65726f2061646460008201527f7265737300000000000000000000000000000000000000000000000000000000602082015250565b7f4552433732313a20617070726f766520746f2063616c6c657200000000000000600082015250565b7f4552433732313a206f70657261746f7220717565727920666f72206e6f6e657860008201527f697374656e7420746f6b656e0000000000000000000000000000000000000000602082015250565b7f4552433732313a20617070726f76652063616c6c6572206973206e6f74206f7760008201527f6e6572206e6f7220617070726f76656420666f7220616c6c0000000000000000602082015250565b7f4552433732313a2062616c616e636520717565727920666f7220746865207a6560008201527f726f206164647265737300000000000000000000000000000000000000000000602082015250565b7f4552433732313a206f776e657220717565727920666f72206e6f6e657869737460008201527f656e7420746f6b656e0000000000000000000000000000000000000000000000602082015250565b7f4552433732313a206d696e7420746f20746865207a65726f2061646472657373600082015250565b7f45524337323155524953746f726167653a2055524920717565727920666f722060008201527f6e6f6e6578697374656e7420746f6b656e000000000000000000000000000000602082015250565b7f4552433732313a20617070726f76656420717565727920666f72206e6f6e657860008201527f697374656e7420746f6b656e0000000000000000000000000000000000000000602082015250565b7f4f776e61626c653a2063616c6c6572206973206e6f7420746865206f776e6572600082015250565b7f4552433732313a207472616e73666572206f6620746f6b656e2074686174206960008201527f73206e6f74206f776e0000000000000000000000000000000000000000000000602082015250565b7f4552433732314d657461646174613a2055524920717565727920666f72206e6f60008201527f6e6578697374656e7420746f6b656e0000000000000000000000000000000000602082015250565b7f4552433732313a20617070726f76616c20746f2063757272656e74206f776e6560008201527f7200000000000000000000000000000000000000000000000000000000000000602082015250565b7f4552433732313a207472616e736665722063616c6c6572206973206e6f74206f60008201527f776e6572206e6f7220617070726f766564000000000000000000000000000000602082015250565b7f4552433732314275726e61626c653a2063616c6c6572206973206e6f74206f7760008201527f6e6572206e6f7220617070726f76656400000000000000000000000000000000602082015250565b6130a781612905565b81146130b257600080fd5b50565b6130be81612917565b81146130c957600080fd5b50565b6130d581612923565b81146130e057600080fd5b50565b6130ec8161296f565b81146130f757600080fd5b5056fea2646970667358221220384b1e1565b2b9d7903055a9eae42593eae560192fb77a1e2eaaacd17d846b6964736f6c63430008060033",
  "immutableReferences": {},
  "source": "// SPDX-License-Identifier: MIT\r\npragma solidity ^0.8.2;\r\n\r\nimport \"@openzeppelin/contracts/token/ERC721/ERC721.sol\";\r\nimport \"@openzeppelin/contracts/token/ERC721/extensions/ERC721URIStorage.sol\";\r\nimport \"@openzeppelin/contracts/token/ERC721/extensions/ERC721Burnable.sol\";\r\nimport \"@openzeppelin/contracts/access/Ownable.sol\";\r\nimport \"@openzeppelin/contracts/utils/Counters.sol\";\r\n\r\ncontract NudeNFT is ERC721, ERC721URIStorage, ERC721Burnable, Ownable {\r\n    using Counters for Counters.Counter;\r\n\r\n    Counters.Counter private _tokenIdCounter;\r\n\r\n    constructor() ERC721(\"NudeNFT\", \"NUDENFT\") {}\r\n\r\n    function safeMint(address to) public onlyOwner {\r\n        _safeMint(to, _tokenIdCounter.current());\r\n        _tokenIdCounter.increment();\r\n    }\r\n\r\n    function _burn(uint256 tokenId) internal override(ERC721, ERC721URIStorage) {\r\n        super._burn(tokenId);\r\n    }\r\n\r\n    function tokenURI(uint256 tokenId)\r\n        public\r\n        view\r\n        override(ERC721, ERC721URIStorage)\r\n        returns (string memory)\r\n    {\r\n        return super.tokenURI(tokenId);\r\n    }\r\n}",
  "sourcePath": "C:/Users/chris/Documents/Github/own-me-contracts/contracts/NudeNFT.sol",
  "compiler": {
    "name": "solc",
    "version": "0.8.6+commit.11564f7e.Emscripten.clang"
  },
  "schemaVersion": "3.4.1",
  "updatedAt": "2021-07-25T04:45:45.955Z",
  "devdoc": {
    "kind": "dev",
    "methods": {
      "approve(address,uint256)": {
        "details": "See {IERC721-approve}."
      },
      "balanceOf(address)": {
        "details": "See {IERC721-balanceOf}."
      },
      "burn(uint256)": {
        "details": "Burns `tokenId`. See {ERC721-_burn}. Requirements: - The caller must own `tokenId` or be an approved operator."
      },
      "getApproved(uint256)": {
        "details": "See {IERC721-getApproved}."
      },
      "isApprovedForAll(address,address)": {
        "details": "See {IERC721-isApprovedForAll}."
      },
      "name()": {
        "details": "See {IERC721Metadata-name}."
      },
      "owner()": {
        "details": "Returns the address of the current owner."
      },
      "ownerOf(uint256)": {
        "details": "See {IERC721-ownerOf}."
      },
      "renounceOwnership()": {
        "details": "Leaves the contract without owner. It will not be possible to call `onlyOwner` functions anymore. Can only be called by the current owner. NOTE: Renouncing ownership will leave the contract without an owner, thereby removing any functionality that is only available to the owner."
      },
      "safeTransferFrom(address,address,uint256)": {
        "details": "See {IERC721-safeTransferFrom}."
      },
      "safeTransferFrom(address,address,uint256,bytes)": {
        "details": "See {IERC721-safeTransferFrom}."
      },
      "setApprovalForAll(address,bool)": {
        "details": "See {IERC721-setApprovalForAll}."
      },
      "supportsInterface(bytes4)": {
        "details": "See {IERC165-supportsInterface}."
      },
      "symbol()": {
        "details": "See {IERC721Metadata-symbol}."
      },
      "transferFrom(address,address,uint256)": {
        "details": "See {IERC721-transferFrom}."
      },
      "transferOwnership(address)": {
        "details": "Transfers ownership of the contract to a new account (`newOwner`). Can only be called by the current owner."
      }
    },
    "version": 1
  },
  "userdoc": {
    "kind": "user",
    "methods": {},
    "version": 1
  }
}