{
  "contractName": "Nude",
  "abi": [
    {
      "inputs": [
        {
          "internalType": "uint256",
          "name": "initialSupply",
          "type": "uint256"
        }
      ],
      "stateMutability": "nonpayable",
      "type": "constructor"
    },
    {
      "anonymous": false,
      "inputs": [
        {
          "indexed": true,
          "internalType": "address",
          "name": "owner",
          "type": "address"
        },
        {
          "indexed": true,
          "internalType": "address",
          "name": "spender",
          "type": "address"
        },
        {
          "indexed": false,
          "internalType": "uint256",
          "name": "value",
          "type": "uint256"
        }
      ],
      "name": "Approval",
      "type": "event"
    },
    {
      "anonymous": false,
      "inputs": [
        {
          "indexed": true,
          "internalType": "address",
          "name": "from",
          "type": "address"
        },
        {
          "indexed": true,
          "internalType": "address",
          "name": "to",
          "type": "address"
        },
        {
          "indexed": false,
          "internalType": "uint256",
          "name": "value",
          "type": "uint256"
        }
      ],
      "name": "Transfer",
      "type": "event"
    },
    {
      "inputs": [
        {
          "internalType": "address",
          "name": "owner",
          "type": "address"
        },
        {
          "internalType": "address",
          "name": "spender",
          "type": "address"
        }
      ],
      "name": "allowance",
      "outputs": [
        {
          "internalType": "uint256",
          "name": "",
          "type": "uint256"
        }
      ],
      "stateMutability": "view",
      "type": "function"
    },
    {
      "inputs": [
        {
          "internalType": "address",
          "name": "spender",
          "type": "address"
        },
        {
          "internalType": "uint256",
          "name": "amount",
          "type": "uint256"
        }
      ],
      "name": "approve",
      "outputs": [
        {
          "internalType": "bool",
          "name": "",
          "type": "bool"
        }
      ],
      "stateMutability": "nonpayable",
      "type": "function"
    },
    {
      "inputs": [
        {
          "internalType": "address",
          "name": "account",
          "type": "address"
        }
      ],
      "name": "balanceOf",
      "outputs": [
        {
          "internalType": "uint256",
          "name": "",
          "type": "uint256"
        }
      ],
      "stateMutability": "view",
      "type": "function"
    },
    {
      "inputs": [],
      "name": "decimals",
      "outputs": [
        {
          "internalType": "uint8",
          "name": "",
          "type": "uint8"
        }
      ],
      "stateMutability": "view",
      "type": "function"
    },
    {
      "inputs": [
        {
          "internalType": "address",
          "name": "spender",
          "type": "address"
        },
        {
          "internalType": "uint256",
          "name": "subtractedValue",
          "type": "uint256"
        }
      ],
      "name": "decreaseAllowance",
      "outputs": [
        {
          "internalType": "bool",
          "name": "",
          "type": "bool"
        }
      ],
      "stateMutability": "nonpayable",
      "type": "function"
    },
    {
      "inputs": [
        {
          "internalType": "address",
          "name": "spender",
          "type": "address"
        },
        {
          "internalType": "uint256",
          "name": "addedValue",
          "type": "uint256"
        }
      ],
      "name": "increaseAllowance",
      "outputs": [
        {
          "internalType": "bool",
          "name": "",
          "type": "bool"
        }
      ],
      "stateMutability": "nonpayable",
      "type": "function"
    },
    {
      "inputs": [],
      "name": "name",
      "outputs": [
        {
          "internalType": "string",
          "name": "",
          "type": "string"
        }
      ],
      "stateMutability": "view",
      "type": "function"
    },
    {
      "inputs": [],
      "name": "symbol",
      "outputs": [
        {
          "internalType": "string",
          "name": "",
          "type": "string"
        }
      ],
      "stateMutability": "view",
      "type": "function"
    },
    {
      "inputs": [],
      "name": "totalSupply",
      "outputs": [
        {
          "internalType": "uint256",
          "name": "",
          "type": "uint256"
        }
      ],
      "stateMutability": "view",
      "type": "function"
    },
    {
      "inputs": [
        {
          "internalType": "address",
          "name": "recipient",
          "type": "address"
        },
        {
          "internalType": "uint256",
          "name": "amount",
          "type": "uint256"
        }
      ],
      "name": "transfer",
      "outputs": [
        {
          "internalType": "bool",
          "name": "",
          "type": "bool"
        }
      ],
      "stateMutability": "nonpayable",
      "type": "function"
    },
    {
      "inputs": [
        {
          "internalType": "address",
          "name": "sender",
          "type": "address"
        },
        {
          "internalType": "address",
          "name": "recipient",
          "type": "address"
        },
        {
          "internalType": "uint256",
          "name": "amount",
          "type": "uint256"
        }
      ],
      "name": "transferFrom",
      "outputs": [
        {
          "internalType": "bool",
          "name": "",
          "type": "bool"
        }
      ],
      "stateMutability": "nonpayable",
      "type": "function"
    },
    {
      "inputs": [
        {
          "internalType": "uint256",
          "name": "amount",
          "type": "uint256"
        }
      ],
      "name": "buy",
      "outputs": [],
      "stateMutability": "payable",
      "type": "function"
    },
    {
      "inputs": [
        {
          "internalType": "uint256",
          "name": "amount",
          "type": "uint256"
        }
      ],
      "name": "sell",
      "outputs": [],
      "stateMutability": "nonpayable",
      "type": "function"
    },
    {
      "inputs": [],
      "name": "withdrawEth",
      "outputs": [],
      "stateMutability": "nonpayable",
      "type": "function"
    }
  ],
  "bytecode": "0x60806040523480156200001157600080fd5b5060405162001d8e38038062001d8e833981810160405281019062000037919062000362565b6040518060400160405280600481526020017f4e756465000000000000000000000000000000000000000000000000000000008152506040518060400160405280600481526020017f4e554445000000000000000000000000000000000000000000000000000000008152508160039080519060200190620000bb9291906200029b565b508060049080519060200190620000d49291906200029b565b505050620000e933826200013160201b60201c565b33600560006101000a81548173ffffffffffffffffffffffffffffffffffffffff021916908373ffffffffffffffffffffffffffffffffffffffff1602179055505062000554565b600073ffffffffffffffffffffffffffffffffffffffff168273ffffffffffffffffffffffffffffffffffffffff161415620001a4576040517f08c379a00000000000000000000000000000000000000000000000000000000081526004016200019b90620003c6565b60405180910390fd5b620001b8600083836200029660201b60201c565b8060026000828254620001cc919062000416565b92505081905550806000808473ffffffffffffffffffffffffffffffffffffffff1673ffffffffffffffffffffffffffffffffffffffff168152602001908152602001600020600082825462000223919062000416565b925050819055508173ffffffffffffffffffffffffffffffffffffffff16600073ffffffffffffffffffffffffffffffffffffffff167fddf252ad1be2c89b69c2b068fc378daa952ba7f163c4a11628f55a4df523b3ef836040516200028a9190620003e8565b60405180910390a35050565b505050565b828054620002a9906200047d565b90600052602060002090601f016020900481019282620002cd576000855562000319565b82601f10620002e857805160ff191683800117855562000319565b8280016001018555821562000319579182015b8281111562000318578251825591602001919060010190620002fb565b5b5090506200032891906200032c565b5090565b5b80821115620003475760008160009055506001016200032d565b5090565b6000815190506200035c816200053a565b92915050565b6000602082840312156200037557600080fd5b600062000385848285016200034b565b91505092915050565b60006200039d601f8362000405565b9150620003aa8262000511565b602082019050919050565b620003c08162000473565b82525050565b60006020820190508181036000830152620003e1816200038e565b9050919050565b6000602082019050620003ff6000830184620003b5565b92915050565b600082825260208201905092915050565b6000620004238262000473565b9150620004308362000473565b9250827fffffffffffffffffffffffffffffffffffffffffffffffffffffffffffffffff03821115620004685762000467620004b3565b5b828201905092915050565b6000819050919050565b600060028204905060018216806200049657607f821691505b60208210811415620004ad57620004ac620004e2565b5b50919050565b7f4e487b7100000000000000000000000000000000000000000000000000000000600052601160045260246000fd5b7f4e487b7100000000000000000000000000000000000000000000000000000000600052602260045260246000fd5b7f45524332303a206d696e7420746f20746865207a65726f206164647265737300600082015250565b620005458162000473565b81146200055157600080fd5b50565b61182a80620005646000396000f3fe6080604052600436106100dd5760003560e01c806395d89b411161007f578063a9059cbb11610059578063a9059cbb146102d6578063d96a094a14610313578063dd62ed3e1461032f578063e4849b321461036c576100dd565b806395d89b4114610257578063a0ef91df14610282578063a457c2d714610299576100dd565b806323b872dd116100bb57806323b872dd14610175578063313ce567146101b257806339509351146101dd57806370a082311461021a576100dd565b806306fdde03146100e2578063095ea7b31461010d57806318160ddd1461014a575b600080fd5b3480156100ee57600080fd5b506100f7610395565b6040516101049190611193565b60405180910390f35b34801561011957600080fd5b50610134600480360381019061012f9190610f95565b610427565b6040516101419190611178565b60405180910390f35b34801561015657600080fd5b5061015f610445565b60405161016c91906112b5565b60405180910390f35b34801561018157600080fd5b5061019c60048036038101906101979190610f46565b61044f565b6040516101a99190611178565b60405180910390f35b3480156101be57600080fd5b506101c7610550565b6040516101d491906112d0565b60405180910390f35b3480156101e957600080fd5b5061020460048036038101906101ff9190610f95565b610559565b6040516102119190611178565b60405180910390f35b34801561022657600080fd5b50610241600480360381019061023c9190610ee1565b610605565b60405161024e91906112b5565b60405180910390f35b34801561026357600080fd5b5061026c61064d565b6040516102799190611193565b60405180910390f35b34801561028e57600080fd5b506102976106df565b005b3480156102a557600080fd5b506102c060048036038101906102bb9190610f95565b6107c5565b6040516102cd9190611178565b60405180910390f35b3480156102e257600080fd5b506102fd60048036038101906102f89190610f95565b6108b9565b60405161030a9190611178565b60405180910390f35b61032d60048036038101906103289190610fd1565b6108d7565b005b34801561033b57600080fd5b5061035660048036038101906103519190610f0a565b61095d565b60405161036391906112b5565b60405180910390f35b34801561037857600080fd5b50610393600480360381019061038e9190610fd1565b6109e4565b005b6060600380546103a4906114a4565b80601f01602080910402602001604051908101604052809291908181526020018280546103d0906114a4565b801561041d5780601f106103f25761010080835404028352916020019161041d565b820191906000526020600020905b81548152906001019060200180831161040057829003601f168201915b5050505050905090565b600061043b610434610a60565b8484610a68565b6001905092915050565b6000600254905090565b600061045c848484610c33565b6000600160008673ffffffffffffffffffffffffffffffffffffffff1673ffffffffffffffffffffffffffffffffffffffff16815260200190815260200160002060006104a7610a60565b73ffffffffffffffffffffffffffffffffffffffff1673ffffffffffffffffffffffffffffffffffffffff16815260200190815260200160002054905082811015610527576040517f08c379a000000000000000000000000000000000000000000000000000000000815260040161051e90611215565b60405180910390fd5b61054485610533610a60565b858461053f91906113e8565b610a68565b60019150509392505050565b60006012905090565b60006105fb610566610a60565b848460016000610574610a60565b73ffffffffffffffffffffffffffffffffffffffff1673ffffffffffffffffffffffffffffffffffffffff16815260200190815260200160002060008873ffffffffffffffffffffffffffffffffffffffff1673ffffffffffffffffffffffffffffffffffffffff168152602001908152602001600020546105f69190611307565b610a68565b6001905092915050565b60008060008373ffffffffffffffffffffffffffffffffffffffff1673ffffffffffffffffffffffffffffffffffffffff168152602001908152602001600020549050919050565b60606004805461065c906114a4565b80601f0160208091040260200160405190810160405280929190818152602001828054610688906114a4565b80156106d55780601f106106aa576101008083540402835291602001916106d5565b820191906000526020600020905b8154815290600101906020018083116106b857829003601f168201915b5050505050905090565b6000600660003373ffffffffffffffffffffffffffffffffffffffff1673ffffffffffffffffffffffffffffffffffffffff1681526020019081526020016000205490506000600660003373ffffffffffffffffffffffffffffffffffffffff1673ffffffffffffffffffffffffffffffffffffffff168152602001908152602001600020819055503373ffffffffffffffffffffffffffffffffffffffff166108fc670de0b6b3a764000083610796919061138e565b9081150290604051600060405180830381858888f193505050501580156107c1573d6000803e3d6000fd5b5050565b600080600160006107d4610a60565b73ffffffffffffffffffffffffffffffffffffffff1673ffffffffffffffffffffffffffffffffffffffff16815260200190815260200160002060008573ffffffffffffffffffffffffffffffffffffffff1673ffffffffffffffffffffffffffffffffffffffff16815260200190815260200160002054905082811015610891576040517f08c379a000000000000000000000000000000000000000000000000000000000815260040161088890611295565b60405180910390fd5b6108ae61089c610a60565b8585846108a991906113e8565b610a68565b600191505092915050565b60006108cd6108c6610a60565b8484610c33565b6001905092915050565b670de0b6b3a7640000346108eb919061135d565b811461092c576040517f08c379a000000000000000000000000000000000000000000000000000000000815260040161092390611275565b60405180910390fd5b610959600560009054906101000a900473ffffffffffffffffffffffffffffffffffffffff16338361044f565b5050565b6000600160008473ffffffffffffffffffffffffffffffffffffffff1673ffffffffffffffffffffffffffffffffffffffff16815260200190815260200160002060008373ffffffffffffffffffffffffffffffffffffffff1673ffffffffffffffffffffffffffffffffffffffff16815260200190815260200160002054905092915050565b80600660003373ffffffffffffffffffffffffffffffffffffffff1673ffffffffffffffffffffffffffffffffffffffff16815260200190815260200160002081905550610a54600560009054906101000a900473ffffffffffffffffffffffffffffffffffffffff16826108b9565b50610a5d6106df565b50565b600033905090565b600073ffffffffffffffffffffffffffffffffffffffff168373ffffffffffffffffffffffffffffffffffffffff161415610ad8576040517f08c379a0000000000000000000000000000000000000000000000000000000008152600401610acf90611255565b60405180910390fd5b600073ffffffffffffffffffffffffffffffffffffffff168273ffffffffffffffffffffffffffffffffffffffff161415610b48576040517f08c379a0000000000000000000000000000000000000000000000000000000008152600401610b3f906111d5565b60405180910390fd5b80600160008573ffffffffffffffffffffffffffffffffffffffff1673ffffffffffffffffffffffffffffffffffffffff16815260200190815260200160002060008473ffffffffffffffffffffffffffffffffffffffff1673ffffffffffffffffffffffffffffffffffffffff168152602001908152602001600020819055508173ffffffffffffffffffffffffffffffffffffffff168373ffffffffffffffffffffffffffffffffffffffff167f8c5be1e5ebec7d5bd14f71427d1e84f3dd0314c0f7b2291e5b200ac8c7c3b92583604051610c2691906112b5565b60405180910390a3505050565b600073ffffffffffffffffffffffffffffffffffffffff168373ffffffffffffffffffffffffffffffffffffffff161415610ca3576040517f08c379a0000000000000000000000000000000000000000000000000000000008152600401610c9a90611235565b60405180910390fd5b600073ffffffffffffffffffffffffffffffffffffffff168273ffffffffffffffffffffffffffffffffffffffff161415610d13576040517f08c379a0000000000000000000000000000000000000000000000000000000008152600401610d0a906111b5565b60405180910390fd5b610d1e838383610eb2565b60008060008573ffffffffffffffffffffffffffffffffffffffff1673ffffffffffffffffffffffffffffffffffffffff16815260200190815260200160002054905081811015610da4576040517f08c379a0000000000000000000000000000000000000000000000000000000008152600401610d9b906111f5565b60405180910390fd5b8181610db091906113e8565b6000808673ffffffffffffffffffffffffffffffffffffffff1673ffffffffffffffffffffffffffffffffffffffff16815260200190815260200160002081905550816000808573ffffffffffffffffffffffffffffffffffffffff1673ffffffffffffffffffffffffffffffffffffffff1681526020019081526020016000206000828254610e409190611307565b925050819055508273ffffffffffffffffffffffffffffffffffffffff168473ffffffffffffffffffffffffffffffffffffffff167fddf252ad1be2c89b69c2b068fc378daa952ba7f163c4a11628f55a4df523b3ef84604051610ea491906112b5565b60405180910390a350505050565b505050565b600081359050610ec6816117c6565b92915050565b600081359050610edb816117dd565b92915050565b600060208284031215610ef357600080fd5b6000610f0184828501610eb7565b91505092915050565b60008060408385031215610f1d57600080fd5b6000610f2b85828601610eb7565b9250506020610f3c85828601610eb7565b9150509250929050565b600080600060608486031215610f5b57600080fd5b6000610f6986828701610eb7565b9350506020610f7a86828701610eb7565b9250506040610f8b86828701610ecc565b9150509250925092565b60008060408385031215610fa857600080fd5b6000610fb685828601610eb7565b9250506020610fc785828601610ecc565b9150509250929050565b600060208284031215610fe357600080fd5b6000610ff184828501610ecc565b91505092915050565b6110038161142e565b82525050565b6000611014826112eb565b61101e81856112f6565b935061102e818560208601611471565b61103781611563565b840191505092915050565b600061104f6023836112f6565b915061105a82611574565b604082019050919050565b60006110726022836112f6565b915061107d826115c3565b604082019050919050565b60006110956026836112f6565b91506110a082611612565b604082019050919050565b60006110b86028836112f6565b91506110c382611661565b604082019050919050565b60006110db6025836112f6565b91506110e6826116b0565b604082019050919050565b60006110fe6024836112f6565b9150611109826116ff565b604082019050919050565b60006111216018836112f6565b915061112c8261174e565b602082019050919050565b60006111446025836112f6565b915061114f82611777565b604082019050919050565b6111638161145a565b82525050565b61117281611464565b82525050565b600060208201905061118d6000830184610ffa565b92915050565b600060208201905081810360008301526111ad8184611009565b905092915050565b600060208201905081810360008301526111ce81611042565b9050919050565b600060208201905081810360008301526111ee81611065565b9050919050565b6000602082019050818103600083015261120e81611088565b9050919050565b6000602082019050818103600083015261122e816110ab565b9050919050565b6000602082019050818103600083015261124e816110ce565b9050919050565b6000602082019050818103600083015261126e816110f1565b9050919050565b6000602082019050818103600083015261128e81611114565b9050919050565b600060208201905081810360008301526112ae81611137565b9050919050565b60006020820190506112ca600083018461115a565b92915050565b60006020820190506112e56000830184611169565b92915050565b600081519050919050565b600082825260208201905092915050565b60006113128261145a565b915061131d8361145a565b9250827fffffffffffffffffffffffffffffffffffffffffffffffffffffffffffffffff03821115611352576113516114d6565b5b828201905092915050565b60006113688261145a565b91506113738361145a565b92508261138357611382611505565b5b828204905092915050565b60006113998261145a565b91506113a48361145a565b9250817fffffffffffffffffffffffffffffffffffffffffffffffffffffffffffffffff04831182151516156113dd576113dc6114d6565b5b828202905092915050565b60006113f38261145a565b91506113fe8361145a565b925082821015611411576114106114d6565b5b828203905092915050565b60006114278261143a565b9050919050565b60008115159050919050565b600073ffffffffffffffffffffffffffffffffffffffff82169050919050565b6000819050919050565b600060ff82169050919050565b60005b8381101561148f578082015181840152602081019050611474565b8381111561149e576000848401525b50505050565b600060028204905060018216806114bc57607f821691505b602082108114156114d0576114cf611534565b5b50919050565b7f4e487b7100000000000000000000000000000000000000000000000000000000600052601160045260246000fd5b7f4e487b7100000000000000000000000000000000000000000000000000000000600052601260045260246000fd5b7f4e487b7100000000000000000000000000000000000000000000000000000000600052602260045260246000fd5b6000601f19601f8301169050919050565b7f45524332303a207472616e7366657220746f20746865207a65726f206164647260008201527f6573730000000000000000000000000000000000000000000000000000000000602082015250565b7f45524332303a20617070726f766520746f20746865207a65726f20616464726560008201527f7373000000000000000000000000000000000000000000000000000000000000602082015250565b7f45524332303a207472616e7366657220616d6f756e742065786365656473206260008201527f616c616e63650000000000000000000000000000000000000000000000000000602082015250565b7f45524332303a207472616e7366657220616d6f756e742065786365656473206160008201527f6c6c6f77616e6365000000000000000000000000000000000000000000000000602082015250565b7f45524332303a207472616e736665722066726f6d20746865207a65726f20616460008201527f6472657373000000000000000000000000000000000000000000000000000000602082015250565b7f45524332303a20617070726f76652066726f6d20746865207a65726f2061646460008201527f7265737300000000000000000000000000000000000000000000000000000000602082015250565b7f496e636f727265637420616d6f756e74206f66204574682e0000000000000000600082015250565b7f45524332303a2064656372656173656420616c6c6f77616e63652062656c6f7760008201527f207a65726f000000000000000000000000000000000000000000000000000000602082015250565b6117cf8161141c565b81146117da57600080fd5b50565b6117e68161145a565b81146117f157600080fd5b5056fea26469706673582212207695a46ce79d028fbb683301b6d6497b7730939d720845547105f4fa255c337b64736f6c63430008040033",
  "immutableReferences": {},
  "source": "// SPDX-License-Identifier: MIT\npragma solidity ^0.8.0;\n\nimport \"@openzeppelin/contracts/token/ERC20/ERC20.sol\";\n\ncontract Nude is ERC20 {\n    address private owner;\n    mapping (address => uint256) pendingWithdrawals;\n\n    constructor(uint256 initialSupply) public ERC20(\"Nude\", \"NUDE\") {\n        _mint(msg.sender, initialSupply);\n        owner = msg.sender;\n    }\n\n    function buy(uint256 amount) external payable {\n        require(amount == ((msg.value / 1 ether)), \"Incorrect amount of Eth.\");\n        transferFrom(owner, msg.sender, amount);\n    }\n    \n    function sell(uint256 amount) public {\n        pendingWithdrawals[msg.sender] = amount;\n        transfer(owner, amount);\n        withdrawEth();\n    }\n\n    function withdrawEth() public {\n        uint256 amount = pendingWithdrawals[msg.sender];\n        pendingWithdrawals[msg.sender] = 0;  // prevent re-entrancy attacks\n        payable(msg.sender).transfer(amount * 1 ether);\n    }\n}\n",
  "sourcePath": "/home/christ/Github/own-me-contracts/contracts/Nude.sol",
  "compiler": {
    "name": "solc",
    "version": "0.8.4+commit.c7e474f2.Emscripten.clang"
  },
  "schemaVersion": "3.4.1",
  "updatedAt": "2021-05-12T00:22:54.663Z",
  "devdoc": {
    "kind": "dev",
    "methods": {
      "allowance(address,address)": {
        "details": "See {IERC20-allowance}."
      },
      "approve(address,uint256)": {
        "details": "See {IERC20-approve}. Requirements: - `spender` cannot be the zero address."
      },
      "balanceOf(address)": {
        "details": "See {IERC20-balanceOf}."
      },
      "decimals()": {
        "details": "Returns the number of decimals used to get its user representation. For example, if `decimals` equals `2`, a balance of `505` tokens should be displayed to a user as `5,05` (`505 / 10 ** 2`). Tokens usually opt for a value of 18, imitating the relationship between Ether and Wei. This is the value {ERC20} uses, unless this function is overridden; NOTE: This information is only used for _display_ purposes: it in no way affects any of the arithmetic of the contract, including {IERC20-balanceOf} and {IERC20-transfer}."
      },
      "decreaseAllowance(address,uint256)": {
        "details": "Atomically decreases the allowance granted to `spender` by the caller. This is an alternative to {approve} that can be used as a mitigation for problems described in {IERC20-approve}. Emits an {Approval} event indicating the updated allowance. Requirements: - `spender` cannot be the zero address. - `spender` must have allowance for the caller of at least `subtractedValue`."
      },
      "increaseAllowance(address,uint256)": {
        "details": "Atomically increases the allowance granted to `spender` by the caller. This is an alternative to {approve} that can be used as a mitigation for problems described in {IERC20-approve}. Emits an {Approval} event indicating the updated allowance. Requirements: - `spender` cannot be the zero address."
      },
      "name()": {
        "details": "Returns the name of the token."
      },
      "symbol()": {
        "details": "Returns the symbol of the token, usually a shorter version of the name."
      },
      "totalSupply()": {
        "details": "See {IERC20-totalSupply}."
      },
      "transfer(address,uint256)": {
        "details": "See {IERC20-transfer}. Requirements: - `recipient` cannot be the zero address. - the caller must have a balance of at least `amount`."
      },
      "transferFrom(address,address,uint256)": {
        "details": "See {IERC20-transferFrom}. Emits an {Approval} event indicating the updated allowance. This is not required by the EIP. See the note at the beginning of {ERC20}. Requirements: - `sender` and `recipient` cannot be the zero address. - `sender` must have a balance of at least `amount`. - the caller must have allowance for ``sender``'s tokens of at least `amount`."
      }
    },
    "version": 1
  },
  "userdoc": {
    "kind": "user",
    "methods": {},
    "version": 1
  }
}