{
  "contractName": "Nude",
  "abi": [
    {
      "inputs": [],
      "stateMutability": "nonpayable",
      "type": "constructor"
    },
    {
      "anonymous": false,
      "inputs": [
        {
          "indexed": true,
          "internalType": "address",
          "name": "owner",
          "type": "address"
        },
        {
          "indexed": true,
          "internalType": "address",
          "name": "spender",
          "type": "address"
        },
        {
          "indexed": false,
          "internalType": "uint256",
          "name": "value",
          "type": "uint256"
        }
      ],
      "name": "Approval",
      "type": "event"
    },
    {
      "anonymous": false,
      "inputs": [
        {
          "indexed": true,
          "internalType": "address",
          "name": "from",
          "type": "address"
        },
        {
          "indexed": true,
          "internalType": "address",
          "name": "to",
          "type": "address"
        },
        {
          "indexed": false,
          "internalType": "uint256",
          "name": "value",
          "type": "uint256"
        }
      ],
      "name": "Transfer",
      "type": "event"
    },
    {
      "inputs": [
        {
          "internalType": "address",
          "name": "owner",
          "type": "address"
        },
        {
          "internalType": "address",
          "name": "spender",
          "type": "address"
        }
      ],
      "name": "allowance",
      "outputs": [
        {
          "internalType": "uint256",
          "name": "",
          "type": "uint256"
        }
      ],
      "stateMutability": "view",
      "type": "function",
      "constant": true
    },
    {
      "inputs": [
        {
          "internalType": "address",
          "name": "spender",
          "type": "address"
        },
        {
          "internalType": "uint256",
          "name": "amount",
          "type": "uint256"
        }
      ],
      "name": "approve",
      "outputs": [
        {
          "internalType": "bool",
          "name": "",
          "type": "bool"
        }
      ],
      "stateMutability": "nonpayable",
      "type": "function"
    },
    {
      "inputs": [
        {
          "internalType": "address",
          "name": "account",
          "type": "address"
        }
      ],
      "name": "balanceOf",
      "outputs": [
        {
          "internalType": "uint256",
          "name": "",
          "type": "uint256"
        }
      ],
      "stateMutability": "view",
      "type": "function",
      "constant": true
    },
    {
      "inputs": [],
      "name": "decimals",
      "outputs": [
        {
          "internalType": "uint8",
          "name": "",
          "type": "uint8"
        }
      ],
      "stateMutability": "view",
      "type": "function",
      "constant": true
    },
    {
      "inputs": [
        {
          "internalType": "address",
          "name": "spender",
          "type": "address"
        },
        {
          "internalType": "uint256",
          "name": "subtractedValue",
          "type": "uint256"
        }
      ],
      "name": "decreaseAllowance",
      "outputs": [
        {
          "internalType": "bool",
          "name": "",
          "type": "bool"
        }
      ],
      "stateMutability": "nonpayable",
      "type": "function"
    },
    {
      "inputs": [
        {
          "internalType": "address",
          "name": "spender",
          "type": "address"
        },
        {
          "internalType": "uint256",
          "name": "addedValue",
          "type": "uint256"
        }
      ],
      "name": "increaseAllowance",
      "outputs": [
        {
          "internalType": "bool",
          "name": "",
          "type": "bool"
        }
      ],
      "stateMutability": "nonpayable",
      "type": "function"
    },
    {
      "inputs": [],
      "name": "initialSupply",
      "outputs": [
        {
          "internalType": "uint256",
          "name": "",
          "type": "uint256"
        }
      ],
      "stateMutability": "view",
      "type": "function",
      "constant": true
    },
    {
      "inputs": [],
      "name": "name",
      "outputs": [
        {
          "internalType": "string",
          "name": "",
          "type": "string"
        }
      ],
      "stateMutability": "view",
      "type": "function",
      "constant": true
    },
    {
      "inputs": [],
      "name": "symbol",
      "outputs": [
        {
          "internalType": "string",
          "name": "",
          "type": "string"
        }
      ],
      "stateMutability": "view",
      "type": "function",
      "constant": true
    },
    {
      "inputs": [],
      "name": "totalSupply",
      "outputs": [
        {
          "internalType": "uint256",
          "name": "",
          "type": "uint256"
        }
      ],
      "stateMutability": "view",
      "type": "function",
      "constant": true
    },
    {
      "inputs": [
        {
          "internalType": "address",
          "name": "recipient",
          "type": "address"
        },
        {
          "internalType": "uint256",
          "name": "amount",
          "type": "uint256"
        }
      ],
      "name": "transfer",
      "outputs": [
        {
          "internalType": "bool",
          "name": "",
          "type": "bool"
        }
      ],
      "stateMutability": "nonpayable",
      "type": "function"
    },
    {
      "inputs": [
        {
          "internalType": "address",
          "name": "sender",
          "type": "address"
        },
        {
          "internalType": "address",
          "name": "recipient",
          "type": "address"
        },
        {
          "internalType": "uint256",
          "name": "amount",
          "type": "uint256"
        }
      ],
      "name": "transferFrom",
      "outputs": [
        {
          "internalType": "bool",
          "name": "",
          "type": "bool"
        }
      ],
      "stateMutability": "nonpayable",
      "type": "function"
    }
  ],
  "bytecode": "0x60806040526304277dc96006553480156200001957600080fd5b506040518060400160405280600481526020017f4e756465000000000000000000000000000000000000000000000000000000008152506040518060400160405280600481526020017f4e5544450000000000000000000000000000000000000000000000000000000081525081600390805190602001906200009e929190620002cb565b508060049080519060200190620000b7929190620002cb565b505050620000f833620000cf6200013f60201b60201c565b600a620000dd9190620004bb565b600654620000ec9190620005f8565b6200014860201b60201c565b33600560006101000a81548173ffffffffffffffffffffffffffffffffffffffff021916908373ffffffffffffffffffffffffffffffffffffffff1602179055506200073a565b60006012905090565b600073ffffffffffffffffffffffffffffffffffffffff168273ffffffffffffffffffffffffffffffffffffffff161415620001bb576040517f08c379a0000000000000000000000000000000000000000000000000000000008152600401620001b290620003b3565b60405180910390fd5b620001cf60008383620002c160201b60201c565b8060026000828254620001e3919062000403565b92505081905550806000808473ffffffffffffffffffffffffffffffffffffffff1673ffffffffffffffffffffffffffffffffffffffff16815260200190815260200160002060008282546200023a919062000403565b925050819055508173ffffffffffffffffffffffffffffffffffffffff16600073ffffffffffffffffffffffffffffffffffffffff167fddf252ad1be2c89b69c2b068fc378daa952ba7f163c4a11628f55a4df523b3ef83604051620002a19190620003d5565b60405180910390a3620002bd60008383620002c660201b60201c565b5050565b505050565b505050565b828054620002d99062000670565b90600052602060002090601f016020900481019282620002fd576000855562000349565b82601f106200031857805160ff191683800117855562000349565b8280016001018555821562000349579182015b82811115620003485782518255916020019190600101906200032b565b5b5090506200035891906200035c565b5090565b5b80821115620003775760008160009055506001016200035d565b5090565b60006200038a601f83620003f2565b9150620003978262000711565b602082019050919050565b620003ad8162000659565b82525050565b60006020820190508181036000830152620003ce816200037b565b9050919050565b6000602082019050620003ec6000830184620003a2565b92915050565b600082825260208201905092915050565b6000620004108262000659565b91506200041d8362000659565b9250827fffffffffffffffffffffffffffffffffffffffffffffffffffffffffffffffff03821115620004555762000454620006a6565b5b828201905092915050565b6000808291508390505b6001851115620004b2578086048111156200048a5762000489620006a6565b5b60018516156200049a5780820291505b8081029050620004aa8562000704565b94506200046a565b94509492505050565b6000620004c88262000659565b9150620004d58362000663565b9250620005047fffffffffffffffffffffffffffffffffffffffffffffffffffffffffffffffff84846200050c565b905092915050565b6000826200051e5760019050620005f1565b816200052e5760009050620005f1565b8160018114620005475760028114620005525762000588565b6001915050620005f1565b60ff841115620005675762000566620006a6565b5b8360020a915084821115620005815762000580620006a6565b5b50620005f1565b5060208310610133831016604e8410600b8410161715620005c25782820a905083811115620005bc57620005bb620006a6565b5b620005f1565b620005d1848484600162000460565b92509050818404811115620005eb57620005ea620006a6565b5b81810290505b9392505050565b6000620006058262000659565b9150620006128362000659565b9250817fffffffffffffffffffffffffffffffffffffffffffffffffffffffffffffffff04831182151516156200064e576200064d620006a6565b5b828202905092915050565b6000819050919050565b600060ff82169050919050565b600060028204905060018216806200068957607f821691505b60208210811415620006a0576200069f620006d5565b5b50919050565b7f4e487b7100000000000000000000000000000000000000000000000000000000600052601160045260246000fd5b7f4e487b7100000000000000000000000000000000000000000000000000000000600052602260045260246000fd5b60008160011c9050919050565b7f45524332303a206d696e7420746f20746865207a65726f206164647265737300600082015250565b6113d9806200074a6000396000f3fe608060405234801561001057600080fd5b50600436106100b45760003560e01c80633950935111610071578063395093511461019157806370a08231146101c157806395d89b41146101f1578063a457c2d71461020f578063a9059cbb1461023f578063dd62ed3e1461026f576100b4565b806306fdde03146100b9578063095ea7b3146100d757806318160ddd1461010757806323b872dd14610125578063313ce56714610155578063378dc3dc14610173575b600080fd5b6100c161029f565b6040516100ce9190610e74565b60405180910390f35b6100f160048036038101906100ec9190610cbe565b610331565b6040516100fe9190610e59565b60405180910390f35b61010f61034f565b60405161011c9190610f76565b60405180910390f35b61013f600480360381019061013a9190610c6b565b610359565b60405161014c9190610e59565b60405180910390f35b61015d610451565b60405161016a9190610f91565b60405180910390f35b61017b61045a565b6040516101889190610f76565b60405180910390f35b6101ab60048036038101906101a69190610cbe565b610460565b6040516101b89190610e59565b60405180910390f35b6101db60048036038101906101d69190610bfe565b61050c565b6040516101e89190610f76565b60405180910390f35b6101f9610554565b6040516102069190610e74565b60405180910390f35b61022960048036038101906102249190610cbe565b6105e6565b6040516102369190610e59565b60405180910390f35b61025960048036038101906102549190610cbe565b6106d1565b6040516102669190610e59565b60405180910390f35b61028960048036038101906102849190610c2b565b6106ef565b6040516102969190610f76565b60405180910390f35b6060600380546102ae906110a6565b80601f01602080910402602001604051908101604052809291908181526020018280546102da906110a6565b80156103275780601f106102fc57610100808354040283529160200191610327565b820191906000526020600020905b81548152906001019060200180831161030a57829003601f168201915b5050505050905090565b600061034561033e610776565b848461077e565b6001905092915050565b6000600254905090565b6000610366848484610949565b6000600160008673ffffffffffffffffffffffffffffffffffffffff1673ffffffffffffffffffffffffffffffffffffffff16815260200190815260200160002060006103b1610776565b73ffffffffffffffffffffffffffffffffffffffff1673ffffffffffffffffffffffffffffffffffffffff16815260200190815260200160002054905082811015610431576040517f08c379a000000000000000000000000000000000000000000000000000000000815260040161042890610ef6565b60405180910390fd5b6104458561043d610776565b85840361077e565b60019150509392505050565b60006012905090565b60065481565b600061050261046d610776565b84846001600061047b610776565b73ffffffffffffffffffffffffffffffffffffffff1673ffffffffffffffffffffffffffffffffffffffff16815260200190815260200160002060008873ffffffffffffffffffffffffffffffffffffffff1673ffffffffffffffffffffffffffffffffffffffff168152602001908152602001600020546104fd9190610fc8565b61077e565b6001905092915050565b60008060008373ffffffffffffffffffffffffffffffffffffffff1673ffffffffffffffffffffffffffffffffffffffff168152602001908152602001600020549050919050565b606060048054610563906110a6565b80601f016020809104026020016040519081016040528092919081815260200182805461058f906110a6565b80156105dc5780601f106105b1576101008083540402835291602001916105dc565b820191906000526020600020905b8154815290600101906020018083116105bf57829003601f168201915b5050505050905090565b600080600160006105f5610776565b73ffffffffffffffffffffffffffffffffffffffff1673ffffffffffffffffffffffffffffffffffffffff16815260200190815260200160002060008573ffffffffffffffffffffffffffffffffffffffff1673ffffffffffffffffffffffffffffffffffffffff168152602001908152602001600020549050828110156106b2576040517f08c379a00000000000000000000000000000000000000000000000000000000081526004016106a990610f56565b60405180910390fd5b6106c66106bd610776565b8585840361077e565b600191505092915050565b60006106e56106de610776565b8484610949565b6001905092915050565b6000600160008473ffffffffffffffffffffffffffffffffffffffff1673ffffffffffffffffffffffffffffffffffffffff16815260200190815260200160002060008373ffffffffffffffffffffffffffffffffffffffff1673ffffffffffffffffffffffffffffffffffffffff16815260200190815260200160002054905092915050565b600033905090565b600073ffffffffffffffffffffffffffffffffffffffff168373ffffffffffffffffffffffffffffffffffffffff1614156107ee576040517f08c379a00000000000000000000000000000000000000000000000000000000081526004016107e590610f36565b60405180910390fd5b600073ffffffffffffffffffffffffffffffffffffffff168273ffffffffffffffffffffffffffffffffffffffff16141561085e576040517f08c379a000000000000000000000000000000000000000000000000000000000815260040161085590610eb6565b60405180910390fd5b80600160008573ffffffffffffffffffffffffffffffffffffffff1673ffffffffffffffffffffffffffffffffffffffff16815260200190815260200160002060008473ffffffffffffffffffffffffffffffffffffffff1673ffffffffffffffffffffffffffffffffffffffff168152602001908152602001600020819055508173ffffffffffffffffffffffffffffffffffffffff168373ffffffffffffffffffffffffffffffffffffffff167f8c5be1e5ebec7d5bd14f71427d1e84f3dd0314c0f7b2291e5b200ac8c7c3b9258360405161093c9190610f76565b60405180910390a3505050565b600073ffffffffffffffffffffffffffffffffffffffff168373ffffffffffffffffffffffffffffffffffffffff1614156109b9576040517f08c379a00000000000000000000000000000000000000000000000000000000081526004016109b090610f16565b60405180910390fd5b600073ffffffffffffffffffffffffffffffffffffffff168273ffffffffffffffffffffffffffffffffffffffff161415610a29576040517f08c379a0000000000000000000000000000000000000000000000000000000008152600401610a2090610e96565b60405180910390fd5b610a34838383610bca565b60008060008573ffffffffffffffffffffffffffffffffffffffff1673ffffffffffffffffffffffffffffffffffffffff16815260200190815260200160002054905081811015610aba576040517f08c379a0000000000000000000000000000000000000000000000000000000008152600401610ab190610ed6565b60405180910390fd5b8181036000808673ffffffffffffffffffffffffffffffffffffffff1673ffffffffffffffffffffffffffffffffffffffff16815260200190815260200160002081905550816000808573ffffffffffffffffffffffffffffffffffffffff1673ffffffffffffffffffffffffffffffffffffffff1681526020019081526020016000206000828254610b4d9190610fc8565b925050819055508273ffffffffffffffffffffffffffffffffffffffff168473ffffffffffffffffffffffffffffffffffffffff167fddf252ad1be2c89b69c2b068fc378daa952ba7f163c4a11628f55a4df523b3ef84604051610bb19190610f76565b60405180910390a3610bc4848484610bcf565b50505050565b505050565b505050565b600081359050610be381611375565b92915050565b600081359050610bf88161138c565b92915050565b600060208284031215610c1457610c13611136565b5b6000610c2284828501610bd4565b91505092915050565b60008060408385031215610c4257610c41611136565b5b6000610c5085828601610bd4565b9250506020610c6185828601610bd4565b9150509250929050565b600080600060608486031215610c8457610c83611136565b5b6000610c9286828701610bd4565b9350506020610ca386828701610bd4565b9250506040610cb486828701610be9565b9150509250925092565b60008060408385031215610cd557610cd4611136565b5b6000610ce385828601610bd4565b9250506020610cf485828601610be9565b9150509250929050565b610d0781611030565b82525050565b6000610d1882610fac565b610d228185610fb7565b9350610d32818560208601611073565b610d3b8161113b565b840191505092915050565b6000610d53602383610fb7565b9150610d5e8261114c565b604082019050919050565b6000610d76602283610fb7565b9150610d818261119b565b604082019050919050565b6000610d99602683610fb7565b9150610da4826111ea565b604082019050919050565b6000610dbc602883610fb7565b9150610dc782611239565b604082019050919050565b6000610ddf602583610fb7565b9150610dea82611288565b604082019050919050565b6000610e02602483610fb7565b9150610e0d826112d7565b604082019050919050565b6000610e25602583610fb7565b9150610e3082611326565b604082019050919050565b610e448161105c565b82525050565b610e5381611066565b82525050565b6000602082019050610e6e6000830184610cfe565b92915050565b60006020820190508181036000830152610e8e8184610d0d565b905092915050565b60006020820190508181036000830152610eaf81610d46565b9050919050565b60006020820190508181036000830152610ecf81610d69565b9050919050565b60006020820190508181036000830152610eef81610d8c565b9050919050565b60006020820190508181036000830152610f0f81610daf565b9050919050565b60006020820190508181036000830152610f2f81610dd2565b9050919050565b60006020820190508181036000830152610f4f81610df5565b9050919050565b60006020820190508181036000830152610f6f81610e18565b9050919050565b6000602082019050610f8b6000830184610e3b565b92915050565b6000602082019050610fa66000830184610e4a565b92915050565b600081519050919050565b600082825260208201905092915050565b6000610fd38261105c565b9150610fde8361105c565b9250827fffffffffffffffffffffffffffffffffffffffffffffffffffffffffffffffff03821115611013576110126110d8565b5b828201905092915050565b60006110298261103c565b9050919050565b60008115159050919050565b600073ffffffffffffffffffffffffffffffffffffffff82169050919050565b6000819050919050565b600060ff82169050919050565b60005b83811015611091578082015181840152602081019050611076565b838111156110a0576000848401525b50505050565b600060028204905060018216806110be57607f821691505b602082108114156110d2576110d1611107565b5b50919050565b7f4e487b7100000000000000000000000000000000000000000000000000000000600052601160045260246000fd5b7f4e487b7100000000000000000000000000000000000000000000000000000000600052602260045260246000fd5b600080fd5b6000601f19601f8301169050919050565b7f45524332303a207472616e7366657220746f20746865207a65726f206164647260008201527f6573730000000000000000000000000000000000000000000000000000000000602082015250565b7f45524332303a20617070726f766520746f20746865207a65726f20616464726560008201527f7373000000000000000000000000000000000000000000000000000000000000602082015250565b7f45524332303a207472616e7366657220616d6f756e742065786365656473206260008201527f616c616e63650000000000000000000000000000000000000000000000000000602082015250565b7f45524332303a207472616e7366657220616d6f756e742065786365656473206160008201527f6c6c6f77616e6365000000000000000000000000000000000000000000000000602082015250565b7f45524332303a207472616e736665722066726f6d20746865207a65726f20616460008201527f6472657373000000000000000000000000000000000000000000000000000000602082015250565b7f45524332303a20617070726f76652066726f6d20746865207a65726f2061646460008201527f7265737300000000000000000000000000000000000000000000000000000000602082015250565b7f45524332303a2064656372656173656420616c6c6f77616e63652062656c6f7760008201527f207a65726f000000000000000000000000000000000000000000000000000000602082015250565b61137e8161101e565b811461138957600080fd5b50565b6113958161105c565b81146113a057600080fd5b5056fea26469706673582212206d0abdcaca0b1c25c59f994ddab56f7b7b8fc0a7b9a8e52d276a308331f2b8ac64736f6c63430008070033",
  "immutableReferences": {},
  "source": "// SPDX-License-Identifier: MIT\r\npragma solidity ^0.8.7;\r\n\r\nimport \"@openzeppelin/contracts/token/ERC20/ERC20.sol\";\r\n\r\ncontract Nude is ERC20 {\r\n    address private owner;\r\n    uint256 public initialSupply = 69696969;\r\n\r\n    constructor() ERC20(\"Nude\", \"NUDE\") {\r\n        _mint(msg.sender, initialSupply * (10 ** decimals()));\r\n        owner = msg.sender; \r\n    }\r\n}\r\n",
  "sourcePath": "C:\\Users\\chris\\Documents\\Github\\own-me\\contracts\\contracts\\Nude.sol",
  "compiler": {
    "name": "solc",
    "version": "0.8.7+commit.e28d00a7.Emscripten.clang"
  },
  "schemaVersion": "3.4.3",
  "updatedAt": "2021-09-07T05:59:01.807Z",
  "networkType": "ethereum",
  "devdoc": {
    "kind": "dev",
    "methods": {
      "allowance(address,address)": {
        "details": "See {IERC20-allowance}."
      },
      "approve(address,uint256)": {
        "details": "See {IERC20-approve}. Requirements: - `spender` cannot be the zero address."
      },
      "balanceOf(address)": {
        "details": "See {IERC20-balanceOf}."
      },
      "decimals()": {
        "details": "Returns the number of decimals used to get its user representation. For example, if `decimals` equals `2`, a balance of `505` tokens should be displayed to a user as `5.05` (`505 / 10 ** 2`). Tokens usually opt for a value of 18, imitating the relationship between Ether and Wei. This is the value {ERC20} uses, unless this function is overridden; NOTE: This information is only used for _display_ purposes: it in no way affects any of the arithmetic of the contract, including {IERC20-balanceOf} and {IERC20-transfer}."
      },
      "decreaseAllowance(address,uint256)": {
        "details": "Atomically decreases the allowance granted to `spender` by the caller. This is an alternative to {approve} that can be used as a mitigation for problems described in {IERC20-approve}. Emits an {Approval} event indicating the updated allowance. Requirements: - `spender` cannot be the zero address. - `spender` must have allowance for the caller of at least `subtractedValue`."
      },
      "increaseAllowance(address,uint256)": {
        "details": "Atomically increases the allowance granted to `spender` by the caller. This is an alternative to {approve} that can be used as a mitigation for problems described in {IERC20-approve}. Emits an {Approval} event indicating the updated allowance. Requirements: - `spender` cannot be the zero address."
      },
      "name()": {
        "details": "Returns the name of the token."
      },
      "symbol()": {
        "details": "Returns the symbol of the token, usually a shorter version of the name."
      },
      "totalSupply()": {
        "details": "See {IERC20-totalSupply}."
      },
      "transfer(address,uint256)": {
        "details": "See {IERC20-transfer}. Requirements: - `recipient` cannot be the zero address. - the caller must have a balance of at least `amount`."
      },
      "transferFrom(address,address,uint256)": {
        "details": "See {IERC20-transferFrom}. Emits an {Approval} event indicating the updated allowance. This is not required by the EIP. See the note at the beginning of {ERC20}. Requirements: - `sender` and `recipient` cannot be the zero address. - `sender` must have a balance of at least `amount`. - the caller must have allowance for ``sender``'s tokens of at least `amount`."
      }
    },
    "version": 1
  },
  "userdoc": {
    "kind": "user",
    "methods": {},
    "version": 1
  }
}