{
  "contractName": "NudeNFT",
  "abi": [
    {
      "inputs": [],
      "stateMutability": "nonpayable",
      "type": "constructor"
    },
    {
      "anonymous": false,
      "inputs": [
        {
          "indexed": true,
          "internalType": "address",
          "name": "owner",
          "type": "address"
        },
        {
          "indexed": true,
          "internalType": "address",
          "name": "approved",
          "type": "address"
        },
        {
          "indexed": true,
          "internalType": "uint256",
          "name": "tokenId",
          "type": "uint256"
        }
      ],
      "name": "Approval",
      "type": "event"
    },
    {
      "anonymous": false,
      "inputs": [
        {
          "indexed": true,
          "internalType": "address",
          "name": "owner",
          "type": "address"
        },
        {
          "indexed": true,
          "internalType": "address",
          "name": "operator",
          "type": "address"
        },
        {
          "indexed": false,
          "internalType": "bool",
          "name": "approved",
          "type": "bool"
        }
      ],
      "name": "ApprovalForAll",
      "type": "event"
    },
    {
      "anonymous": false,
      "inputs": [
        {
          "indexed": true,
          "internalType": "address",
          "name": "previousOwner",
          "type": "address"
        },
        {
          "indexed": true,
          "internalType": "address",
          "name": "newOwner",
          "type": "address"
        }
      ],
      "name": "OwnershipTransferred",
      "type": "event"
    },
    {
      "anonymous": false,
      "inputs": [
        {
          "indexed": true,
          "internalType": "address",
          "name": "from",
          "type": "address"
        },
        {
          "indexed": true,
          "internalType": "address",
          "name": "to",
          "type": "address"
        },
        {
          "indexed": true,
          "internalType": "uint256",
          "name": "tokenId",
          "type": "uint256"
        }
      ],
      "name": "Transfer",
      "type": "event"
    },
    {
      "anonymous": false,
      "inputs": [
        {
          "indexed": false,
          "internalType": "address",
          "name": "recipient",
          "type": "address"
        },
        {
          "indexed": false,
          "internalType": "uint256",
          "name": "tokenId",
          "type": "uint256"
        },
        {
          "indexed": false,
          "internalType": "string",
          "name": "tokenURI",
          "type": "string"
        },
        {
          "indexed": false,
          "internalType": "uint256",
          "name": "price",
          "type": "uint256"
        }
      ],
      "name": "newNFTMinted",
      "type": "event"
    },
    {
      "inputs": [
        {
          "internalType": "address",
          "name": "to",
          "type": "address"
        },
        {
          "internalType": "uint256",
          "name": "tokenId",
          "type": "uint256"
        }
      ],
      "name": "approve",
      "outputs": [],
      "stateMutability": "nonpayable",
      "type": "function"
    },
    {
      "inputs": [
        {
          "internalType": "address",
          "name": "owner",
          "type": "address"
        }
      ],
      "name": "balanceOf",
      "outputs": [
        {
          "internalType": "uint256",
          "name": "",
          "type": "uint256"
        }
      ],
      "stateMutability": "view",
      "type": "function",
      "constant": true
    },
    {
      "inputs": [
        {
          "internalType": "uint256",
          "name": "tokenId",
          "type": "uint256"
        }
      ],
      "name": "getApproved",
      "outputs": [
        {
          "internalType": "address",
          "name": "",
          "type": "address"
        }
      ],
      "stateMutability": "view",
      "type": "function",
      "constant": true
    },
    {
      "inputs": [
        {
          "internalType": "address",
          "name": "owner",
          "type": "address"
        },
        {
          "internalType": "address",
          "name": "operator",
          "type": "address"
        }
      ],
      "name": "isApprovedForAll",
      "outputs": [
        {
          "internalType": "bool",
          "name": "",
          "type": "bool"
        }
      ],
      "stateMutability": "view",
      "type": "function",
      "constant": true
    },
    {
      "inputs": [],
      "name": "name",
      "outputs": [
        {
          "internalType": "string",
          "name": "",
          "type": "string"
        }
      ],
      "stateMutability": "view",
      "type": "function",
      "constant": true
    },
    {
      "inputs": [],
      "name": "owner",
      "outputs": [
        {
          "internalType": "address",
          "name": "",
          "type": "address"
        }
      ],
      "stateMutability": "view",
      "type": "function",
      "constant": true
    },
    {
      "inputs": [
        {
          "internalType": "uint256",
          "name": "tokenId",
          "type": "uint256"
        }
      ],
      "name": "ownerOf",
      "outputs": [
        {
          "internalType": "address",
          "name": "",
          "type": "address"
        }
      ],
      "stateMutability": "view",
      "type": "function",
      "constant": true
    },
    {
      "inputs": [],
      "name": "renounceOwnership",
      "outputs": [],
      "stateMutability": "nonpayable",
      "type": "function"
    },
    {
      "inputs": [
        {
          "internalType": "address",
          "name": "from",
          "type": "address"
        },
        {
          "internalType": "address",
          "name": "to",
          "type": "address"
        },
        {
          "internalType": "uint256",
          "name": "tokenId",
          "type": "uint256"
        }
      ],
      "name": "safeTransferFrom",
      "outputs": [],
      "stateMutability": "nonpayable",
      "type": "function"
    },
    {
      "inputs": [
        {
          "internalType": "address",
          "name": "from",
          "type": "address"
        },
        {
          "internalType": "address",
          "name": "to",
          "type": "address"
        },
        {
          "internalType": "uint256",
          "name": "tokenId",
          "type": "uint256"
        },
        {
          "internalType": "bytes",
          "name": "_data",
          "type": "bytes"
        }
      ],
      "name": "safeTransferFrom",
      "outputs": [],
      "stateMutability": "nonpayable",
      "type": "function"
    },
    {
      "inputs": [
        {
          "internalType": "address",
          "name": "operator",
          "type": "address"
        },
        {
          "internalType": "bool",
          "name": "approved",
          "type": "bool"
        }
      ],
      "name": "setApprovalForAll",
      "outputs": [],
      "stateMutability": "nonpayable",
      "type": "function"
    },
    {
      "inputs": [
        {
          "internalType": "bytes4",
          "name": "interfaceId",
          "type": "bytes4"
        }
      ],
      "name": "supportsInterface",
      "outputs": [
        {
          "internalType": "bool",
          "name": "",
          "type": "bool"
        }
      ],
      "stateMutability": "view",
      "type": "function",
      "constant": true
    },
    {
      "inputs": [],
      "name": "symbol",
      "outputs": [
        {
          "internalType": "string",
          "name": "",
          "type": "string"
        }
      ],
      "stateMutability": "view",
      "type": "function",
      "constant": true
    },
    {
      "inputs": [
        {
          "internalType": "address",
          "name": "from",
          "type": "address"
        },
        {
          "internalType": "address",
          "name": "to",
          "type": "address"
        },
        {
          "internalType": "uint256",
          "name": "tokenId",
          "type": "uint256"
        }
      ],
      "name": "transferFrom",
      "outputs": [],
      "stateMutability": "nonpayable",
      "type": "function"
    },
    {
      "inputs": [
        {
          "internalType": "address",
          "name": "newOwner",
          "type": "address"
        }
      ],
      "name": "transferOwnership",
      "outputs": [],
      "stateMutability": "nonpayable",
      "type": "function"
    },
    {
      "inputs": [
        {
          "internalType": "address",
          "name": "recipient",
          "type": "address"
        },
        {
          "internalType": "string",
          "name": "tokenURI",
          "type": "string"
        },
        {
          "internalType": "uint256",
          "name": "price",
          "type": "uint256"
        }
      ],
      "name": "mintNFT",
      "outputs": [
        {
          "internalType": "uint256",
          "name": "",
          "type": "uint256"
        }
      ],
      "stateMutability": "nonpayable",
      "type": "function"
    },
    {
      "inputs": [
        {
          "internalType": "uint256",
          "name": "tokenId",
          "type": "uint256"
        }
      ],
      "name": "tokenURI",
      "outputs": [
        {
          "internalType": "string",
          "name": "",
          "type": "string"
        }
      ],
      "stateMutability": "view",
      "type": "function",
      "constant": true
    }
  ],
  "bytecode": "0x60806040523480156200001157600080fd5b506040518060400160405280600781526020017f4e7564654e4654000000000000000000000000000000000000000000000000008152506040518060400160405280600781526020017f4e5544454e465400000000000000000000000000000000000000000000000000815250816000908051906020019062000096929190620001a6565b508060019080519060200190620000af929190620001a6565b505050620000d2620000c6620000d860201b60201c565b620000e060201b60201c565b620002bb565b600033905090565b6000600760009054906101000a900473ffffffffffffffffffffffffffffffffffffffff16905081600760006101000a81548173ffffffffffffffffffffffffffffffffffffffff021916908373ffffffffffffffffffffffffffffffffffffffff1602179055508173ffffffffffffffffffffffffffffffffffffffff168173ffffffffffffffffffffffffffffffffffffffff167f8be0079c531659141344cd1fd0a4f28419497f9722a3daafe3b4186f6b6457e060405160405180910390a35050565b828054620001b49062000285565b90600052602060002090601f016020900481019282620001d8576000855562000224565b82601f10620001f357805160ff191683800117855562000224565b8280016001018555821562000224579182015b828111156200022357825182559160200191906001019062000206565b5b50905062000233919062000237565b5090565b5b808211156200025257600081600090555060010162000238565b5090565b7f4e487b7100000000000000000000000000000000000000000000000000000000600052602260045260246000fd5b600060028204905060018216806200029e57607f821691505b60208210811415620002b557620002b462000256565b5b50919050565b61315580620002cb6000396000f3fe608060405234801561001057600080fd5b506004361061010b5760003560e01c806370a08231116100a2578063a22cb46511610071578063a22cb465146102b8578063b88d4fde146102d4578063c87b56dd146102f0578063e985e9c514610320578063f2fde38b146103505761010b565b806370a0823114610242578063715018a6146102725780638da5cb5b1461027c57806395d89b411461029a5761010b565b8063095ea7b3116100de578063095ea7b3146101be57806323b872dd146101da57806342842e0e146101f65780636352211e146102125761010b565b806301ffc9a71461011057806306fdde0314610140578063081812fc1461015e57806308598df01461018e575b600080fd5b61012a60048036038101906101259190611cee565b61036c565b6040516101379190611d36565b60405180910390f35b61014861044e565b6040516101559190611dea565b60405180910390f35b61017860048036038101906101739190611e42565b6104e0565b6040516101859190611eb0565b60405180910390f35b6101a860048036038101906101a3919061202c565b610565565b6040516101b591906120aa565b60405180910390f35b6101d860048036038101906101d391906120c5565b610635565b005b6101f460048036038101906101ef9190612105565b61074d565b005b610210600480360381019061020b9190612105565b6107ad565b005b61022c60048036038101906102279190611e42565b6107cd565b6040516102399190611eb0565b60405180910390f35b61025c60048036038101906102579190612158565b61087f565b60405161026991906120aa565b60405180910390f35b61027a610937565b005b6102846109bf565b6040516102919190611eb0565b60405180910390f35b6102a26109e9565b6040516102af9190611dea565b60405180910390f35b6102d260048036038101906102cd91906121b1565b610a7b565b005b6102ee60048036038101906102e99190612292565b610bfc565b005b61030a60048036038101906103059190611e42565b610c5e565b6040516103179190611dea565b60405180910390f35b61033a60048036038101906103359190612315565b610c70565b6040516103479190611d36565b60405180910390f35b61036a60048036038101906103659190612158565b610d04565b005b60007f80ac58cd000000000000000000000000000000000000000000000000000000007bffffffffffffffffffffffffffffffffffffffffffffffffffffffff1916827bffffffffffffffffffffffffffffffffffffffffffffffffffffffff1916148061043757507f5b5e139f000000000000000000000000000000000000000000000000000000007bffffffffffffffffffffffffffffffffffffffffffffffffffffffff1916827bffffffffffffffffffffffffffffffffffffffffffffffffffffffff1916145b80610447575061044682610dfc565b5b9050919050565b60606000805461045d90612384565b80601f016020809104026020016040519081016040528092919081815260200182805461048990612384565b80156104d65780601f106104ab576101008083540402835291602001916104d6565b820191906000526020600020905b8154815290600101906020018083116104b957829003601f168201915b5050505050905090565b60006104eb82610e66565b61052a576040517f08c379a000000000000000000000000000000000000000000000000000000000815260040161052190612428565b60405180910390fd5b6004600083815260200190815260200160002060009054906101000a900473ffffffffffffffffffffffffffffffffffffffff169050919050565b60008082116105a9576040517f08c379a00000000000000000000000000000000000000000000000000000000081526004016105a090612494565b60405180910390fd5b6105b36008610ed2565b60006105bf6008610ee8565b90506105cb8582610ef6565b6105d58185610f14565b8260096000838152602001908152602001600020819055507f7ad3b13b7c3746750560e47a50427c59add26e172574ed9eae86be47839170a38582868660405161062294939291906124b4565b60405180910390a1809150509392505050565b6000610640826107cd565b90508073ffffffffffffffffffffffffffffffffffffffff168373ffffffffffffffffffffffffffffffffffffffff1614156106b1576040517f08c379a00000000000000000000000000000000000000000000000000000000081526004016106a890612572565b60405180910390fd5b8073ffffffffffffffffffffffffffffffffffffffff166106d0610f88565b73ffffffffffffffffffffffffffffffffffffffff1614806106ff57506106fe816106f9610f88565b610c70565b5b61073e576040517f08c379a000000000000000000000000000000000000000000000000000000000815260040161073590612604565b60405180910390fd5b6107488383610f90565b505050565b61075e610758610f88565b82611049565b61079d576040517f08c379a000000000000000000000000000000000000000000000000000000000815260040161079490612696565b60405180910390fd5b6107a8838383611127565b505050565b6107c883838360405180602001604052806000815250610bfc565b505050565b6000806002600084815260200190815260200160002060009054906101000a900473ffffffffffffffffffffffffffffffffffffffff169050600073ffffffffffffffffffffffffffffffffffffffff168173ffffffffffffffffffffffffffffffffffffffff161415610876576040517f08c379a000000000000000000000000000000000000000000000000000000000815260040161086d90612728565b60405180910390fd5b80915050919050565b60008073ffffffffffffffffffffffffffffffffffffffff168273ffffffffffffffffffffffffffffffffffffffff1614156108f0576040517f08c379a00000000000000000000000000000000000000000000000000000000081526004016108e7906127ba565b60405180910390fd5b600360008373ffffffffffffffffffffffffffffffffffffffff1673ffffffffffffffffffffffffffffffffffffffff168152602001908152602001600020549050919050565b61093f610f88565b73ffffffffffffffffffffffffffffffffffffffff1661095d6109bf565b73ffffffffffffffffffffffffffffffffffffffff16146109b3576040517f08c379a00000000000000000000000000000000000000000000000000000000081526004016109aa90612826565b60405180910390fd5b6109bd6000611383565b565b6000600760009054906101000a900473ffffffffffffffffffffffffffffffffffffffff16905090565b6060600180546109f890612384565b80601f0160208091040260200160405190810160405280929190818152602001828054610a2490612384565b8015610a715780601f10610a4657610100808354040283529160200191610a71565b820191906000526020600020905b815481529060010190602001808311610a5457829003601f168201915b5050505050905090565b610a83610f88565b73ffffffffffffffffffffffffffffffffffffffff168273ffffffffffffffffffffffffffffffffffffffff161415610af1576040517f08c379a0000000000000000000000000000000000000000000000000000000008152600401610ae890612892565b60405180910390fd5b8060056000610afe610f88565b73ffffffffffffffffffffffffffffffffffffffff1673ffffffffffffffffffffffffffffffffffffffff16815260200190815260200160002060008473ffffffffffffffffffffffffffffffffffffffff1673ffffffffffffffffffffffffffffffffffffffff16815260200190815260200160002060006101000a81548160ff0219169083151502179055508173ffffffffffffffffffffffffffffffffffffffff16610bab610f88565b73ffffffffffffffffffffffffffffffffffffffff167f17307eab39ab6107e8899845ad3d59bd9653f200f220920489ca2b5937696c3183604051610bf09190611d36565b60405180910390a35050565b610c0d610c07610f88565b83611049565b610c4c576040517f08c379a0000000000000000000000000000000000000000000000000000000008152600401610c4390612696565b60405180910390fd5b610c5884848484611449565b50505050565b6060610c69826114a5565b9050919050565b6000600560008473ffffffffffffffffffffffffffffffffffffffff1673ffffffffffffffffffffffffffffffffffffffff16815260200190815260200160002060008373ffffffffffffffffffffffffffffffffffffffff1673ffffffffffffffffffffffffffffffffffffffff16815260200190815260200160002060009054906101000a900460ff16905092915050565b610d0c610f88565b73ffffffffffffffffffffffffffffffffffffffff16610d2a6109bf565b73ffffffffffffffffffffffffffffffffffffffff1614610d80576040517f08c379a0000000000000000000000000000000000000000000000000000000008152600401610d7790612826565b60405180910390fd5b600073ffffffffffffffffffffffffffffffffffffffff168173ffffffffffffffffffffffffffffffffffffffff161415610df0576040517f08c379a0000000000000000000000000000000000000000000000000000000008152600401610de790612924565b60405180910390fd5b610df981611383565b50565b60007f01ffc9a7000000000000000000000000000000000000000000000000000000007bffffffffffffffffffffffffffffffffffffffffffffffffffffffff1916827bffffffffffffffffffffffffffffffffffffffffffffffffffffffff1916149050919050565b60008073ffffffffffffffffffffffffffffffffffffffff166002600084815260200190815260200160002060009054906101000a900473ffffffffffffffffffffffffffffffffffffffff1673ffffffffffffffffffffffffffffffffffffffff1614159050919050565b6001816000016000828254019250508190555050565b600081600001549050919050565b610f108282604051806020016040528060008152506115f7565b5050565b610f1d82610e66565b610f5c576040517f08c379a0000000000000000000000000000000000000000000000000000000008152600401610f53906129b6565b60405180910390fd5b80600660008481526020019081526020016000209080519060200190610f83929190611bdf565b505050565b600033905090565b816004600083815260200190815260200160002060006101000a81548173ffffffffffffffffffffffffffffffffffffffff021916908373ffffffffffffffffffffffffffffffffffffffff160217905550808273ffffffffffffffffffffffffffffffffffffffff16611003836107cd565b73ffffffffffffffffffffffffffffffffffffffff167f8c5be1e5ebec7d5bd14f71427d1e84f3dd0314c0f7b2291e5b200ac8c7c3b92560405160405180910390a45050565b600061105482610e66565b611093576040517f08c379a000000000000000000000000000000000000000000000000000000000815260040161108a90612a48565b60405180910390fd5b600061109e836107cd565b90508073ffffffffffffffffffffffffffffffffffffffff168473ffffffffffffffffffffffffffffffffffffffff16148061110d57508373ffffffffffffffffffffffffffffffffffffffff166110f5846104e0565b73ffffffffffffffffffffffffffffffffffffffff16145b8061111e575061111d8185610c70565b5b91505092915050565b8273ffffffffffffffffffffffffffffffffffffffff16611147826107cd565b73ffffffffffffffffffffffffffffffffffffffff161461119d576040517f08c379a000000000000000000000000000000000000000000000000000000000815260040161119490612ada565b60405180910390fd5b600073ffffffffffffffffffffffffffffffffffffffff168273ffffffffffffffffffffffffffffffffffffffff16141561120d576040517f08c379a000000000000000000000000000000000000000000000000000000000815260040161120490612b6c565b60405180910390fd5b611218838383611652565b611223600082610f90565b6001600360008573ffffffffffffffffffffffffffffffffffffffff1673ffffffffffffffffffffffffffffffffffffffff16815260200190815260200160002060008282546112739190612bbb565b925050819055506001600360008473ffffffffffffffffffffffffffffffffffffffff1673ffffffffffffffffffffffffffffffffffffffff16815260200190815260200160002060008282546112ca9190612bef565b92505081905550816002600083815260200190815260200160002060006101000a81548173ffffffffffffffffffffffffffffffffffffffff021916908373ffffffffffffffffffffffffffffffffffffffff160217905550808273ffffffffffffffffffffffffffffffffffffffff168473ffffffffffffffffffffffffffffffffffffffff167fddf252ad1be2c89b69c2b068fc378daa952ba7f163c4a11628f55a4df523b3ef60405160405180910390a4505050565b6000600760009054906101000a900473ffffffffffffffffffffffffffffffffffffffff16905081600760006101000a81548173ffffffffffffffffffffffffffffffffffffffff021916908373ffffffffffffffffffffffffffffffffffffffff1602179055508173ffffffffffffffffffffffffffffffffffffffff168173ffffffffffffffffffffffffffffffffffffffff167f8be0079c531659141344cd1fd0a4f28419497f9722a3daafe3b4186f6b6457e060405160405180910390a35050565b611454848484611127565b61146084848484611657565b61149f576040517f08c379a000000000000000000000000000000000000000000000000000000000815260040161149690612cb7565b60405180910390fd5b50505050565b60606114b082610e66565b6114ef576040517f08c379a00000000000000000000000000000000000000000000000000000000081526004016114e690612d49565b60405180910390fd5b600060066000848152602001908152602001600020805461150f90612384565b80601f016020809104026020016040519081016040528092919081815260200182805461153b90612384565b80156115885780601f1061155d57610100808354040283529160200191611588565b820191906000526020600020905b81548152906001019060200180831161156b57829003601f168201915b5050505050905060006115996117df565b90506000815114156115af5781925050506115f2565b6000825111156115e45780826040516020016115cc929190612da5565b604051602081830303815290604052925050506115f2565b6115ed846117f6565b925050505b919050565b611601838361189d565b61160e6000848484611657565b61164d576040517f08c379a000000000000000000000000000000000000000000000000000000000815260040161164490612cb7565b60405180910390fd5b505050565b505050565b60006116788473ffffffffffffffffffffffffffffffffffffffff16611a6b565b156117d2578373ffffffffffffffffffffffffffffffffffffffff1663150b7a026116a1610f88565b8786866040518563ffffffff1660e01b81526004016116c39493929190612e1e565b6020604051808303816000875af19250505080156116ff57506040513d601f19601f820116820180604052508101906116fc9190612e7f565b60015b611782573d806000811461172f576040519150601f19603f3d011682016040523d82523d6000602084013e611734565b606091505b5060008151141561177a576040517f08c379a000000000000000000000000000000000000000000000000000000000815260040161177190612cb7565b60405180910390fd5b805181602001fd5b63150b7a0260e01b7bffffffffffffffffffffffffffffffffffffffffffffffffffffffff1916817bffffffffffffffffffffffffffffffffffffffffffffffffffffffff1916149150506117d7565b600190505b949350505050565b606060405180602001604052806000815250905090565b606061180182610e66565b611840576040517f08c379a000000000000000000000000000000000000000000000000000000000815260040161183790612f1e565b60405180910390fd5b600061184a6117df565b9050600081511161186a5760405180602001604052806000815250611895565b8061187484611a7e565b604051602001611885929190612da5565b6040516020818303038152906040525b915050919050565b600073ffffffffffffffffffffffffffffffffffffffff168273ffffffffffffffffffffffffffffffffffffffff16141561190d576040517f08c379a000000000000000000000000000000000000000000000000000000000815260040161190490612f8a565b60405180910390fd5b61191681610e66565b15611956576040517f08c379a000000000000000000000000000000000000000000000000000000000815260040161194d90612ff6565b60405180910390fd5b61196260008383611652565b6001600360008473ffffffffffffffffffffffffffffffffffffffff1673ffffffffffffffffffffffffffffffffffffffff16815260200190815260200160002060008282546119b29190612bef565b92505081905550816002600083815260200190815260200160002060006101000a81548173ffffffffffffffffffffffffffffffffffffffff021916908373ffffffffffffffffffffffffffffffffffffffff160217905550808273ffffffffffffffffffffffffffffffffffffffff16600073ffffffffffffffffffffffffffffffffffffffff167fddf252ad1be2c89b69c2b068fc378daa952ba7f163c4a11628f55a4df523b3ef60405160405180910390a45050565b600080823b905060008111915050919050565b60606000821415611ac6576040518060400160405280600181526020017f30000000000000000000000000000000000000000000000000000000000000008152509050611bda565b600082905060005b60008214611af8578080611ae190613016565b915050600a82611af1919061308e565b9150611ace565b60008167ffffffffffffffff811115611b1457611b13611f01565b5b6040519080825280601f01601f191660200182016040528015611b465781602001600182028036833780820191505090505b5090505b60008514611bd357600182611b5f9190612bbb565b9150600a85611b6e91906130bf565b6030611b7a9190612bef565b60f81b818381518110611b9057611b8f6130f0565b5b60200101907effffffffffffffffffffffffffffffffffffffffffffffffffffffffffffff1916908160001a905350600a85611bcc919061308e565b9450611b4a565b8093505050505b919050565b828054611beb90612384565b90600052602060002090601f016020900481019282611c0d5760008555611c54565b82601f10611c2657805160ff1916838001178555611c54565b82800160010185558215611c54579182015b82811115611c53578251825591602001919060010190611c38565b5b509050611c619190611c65565b5090565b5b80821115611c7e576000816000905550600101611c66565b5090565b6000604051905090565b600080fd5b600080fd5b60007fffffffff0000000000000000000000000000000000000000000000000000000082169050919050565b611ccb81611c96565b8114611cd657600080fd5b50565b600081359050611ce881611cc2565b92915050565b600060208284031215611d0457611d03611c8c565b5b6000611d1284828501611cd9565b91505092915050565b60008115159050919050565b611d3081611d1b565b82525050565b6000602082019050611d4b6000830184611d27565b92915050565b600081519050919050565b600082825260208201905092915050565b60005b83811015611d8b578082015181840152602081019050611d70565b83811115611d9a576000848401525b50505050565b6000601f19601f8301169050919050565b6000611dbc82611d51565b611dc68185611d5c565b9350611dd6818560208601611d6d565b611ddf81611da0565b840191505092915050565b60006020820190508181036000830152611e048184611db1565b905092915050565b6000819050919050565b611e1f81611e0c565b8114611e2a57600080fd5b50565b600081359050611e3c81611e16565b92915050565b600060208284031215611e5857611e57611c8c565b5b6000611e6684828501611e2d565b91505092915050565b600073ffffffffffffffffffffffffffffffffffffffff82169050919050565b6000611e9a82611e6f565b9050919050565b611eaa81611e8f565b82525050565b6000602082019050611ec56000830184611ea1565b92915050565b611ed481611e8f565b8114611edf57600080fd5b50565b600081359050611ef181611ecb565b92915050565b600080fd5b600080fd5b7f4e487b7100000000000000000000000000000000000000000000000000000000600052604160045260246000fd5b611f3982611da0565b810181811067ffffffffffffffff82111715611f5857611f57611f01565b5b80604052505050565b6000611f6b611c82565b9050611f778282611f30565b919050565b600067ffffffffffffffff821115611f9757611f96611f01565b5b611fa082611da0565b9050602081019050919050565b82818337600083830152505050565b6000611fcf611fca84611f7c565b611f61565b905082815260208101848484011115611feb57611fea611efc565b5b611ff6848285611fad565b509392505050565b600082601f83011261201357612012611ef7565b5b8135612023848260208601611fbc565b91505092915050565b60008060006060848603121561204557612044611c8c565b5b600061205386828701611ee2565b935050602084013567ffffffffffffffff81111561207457612073611c91565b5b61208086828701611ffe565b925050604061209186828701611e2d565b9150509250925092565b6120a481611e0c565b82525050565b60006020820190506120bf600083018461209b565b92915050565b600080604083850312156120dc576120db611c8c565b5b60006120ea85828601611ee2565b92505060206120fb85828601611e2d565b9150509250929050565b60008060006060848603121561211e5761211d611c8c565b5b600061212c86828701611ee2565b935050602061213d86828701611ee2565b925050604061214e86828701611e2d565b9150509250925092565b60006020828403121561216e5761216d611c8c565b5b600061217c84828501611ee2565b91505092915050565b61218e81611d1b565b811461219957600080fd5b50565b6000813590506121ab81612185565b92915050565b600080604083850312156121c8576121c7611c8c565b5b60006121d685828601611ee2565b92505060206121e78582860161219c565b9150509250929050565b600067ffffffffffffffff82111561220c5761220b611f01565b5b61221582611da0565b9050602081019050919050565b6000612235612230846121f1565b611f61565b90508281526020810184848401111561225157612250611efc565b5b61225c848285611fad565b509392505050565b600082601f83011261227957612278611ef7565b5b8135612289848260208601612222565b91505092915050565b600080600080608085870312156122ac576122ab611c8c565b5b60006122ba87828801611ee2565b94505060206122cb87828801611ee2565b93505060406122dc87828801611e2d565b925050606085013567ffffffffffffffff8111156122fd576122fc611c91565b5b61230987828801612264565b91505092959194509250565b6000806040838503121561232c5761232b611c8c565b5b600061233a85828601611ee2565b925050602061234b85828601611ee2565b9150509250929050565b7f4e487b7100000000000000000000000000000000000000000000000000000000600052602260045260246000fd5b6000600282049050600182168061239c57607f821691505b602082108114156123b0576123af612355565b5b50919050565b7f4552433732313a20617070726f76656420717565727920666f72206e6f6e657860008201527f697374656e7420746f6b656e0000000000000000000000000000000000000000602082015250565b6000612412602c83611d5c565b915061241d826123b6565b604082019050919050565b6000602082019050818103600083015261244181612405565b9050919050565b7f5072696365206d7573742062652067726561746572207468616e203000000000600082015250565b600061247e601c83611d5c565b915061248982612448565b602082019050919050565b600060208201905081810360008301526124ad81612471565b9050919050565b60006080820190506124c96000830187611ea1565b6124d6602083018661209b565b81810360408301526124e88185611db1565b90506124f7606083018461209b565b95945050505050565b7f4552433732313a20617070726f76616c20746f2063757272656e74206f776e6560008201527f7200000000000000000000000000000000000000000000000000000000000000602082015250565b600061255c602183611d5c565b915061256782612500565b604082019050919050565b6000602082019050818103600083015261258b8161254f565b9050919050565b7f4552433732313a20617070726f76652063616c6c6572206973206e6f74206f7760008201527f6e6572206e6f7220617070726f76656420666f7220616c6c0000000000000000602082015250565b60006125ee603883611d5c565b91506125f982612592565b604082019050919050565b6000602082019050818103600083015261261d816125e1565b9050919050565b7f4552433732313a207472616e736665722063616c6c6572206973206e6f74206f60008201527f776e6572206e6f7220617070726f766564000000000000000000000000000000602082015250565b6000612680603183611d5c565b915061268b82612624565b604082019050919050565b600060208201905081810360008301526126af81612673565b9050919050565b7f4552433732313a206f776e657220717565727920666f72206e6f6e657869737460008201527f656e7420746f6b656e0000000000000000000000000000000000000000000000602082015250565b6000612712602983611d5c565b915061271d826126b6565b604082019050919050565b6000602082019050818103600083015261274181612705565b9050919050565b7f4552433732313a2062616c616e636520717565727920666f7220746865207a6560008201527f726f206164647265737300000000000000000000000000000000000000000000602082015250565b60006127a4602a83611d5c565b91506127af82612748565b604082019050919050565b600060208201905081810360008301526127d381612797565b9050919050565b7f4f776e61626c653a2063616c6c6572206973206e6f7420746865206f776e6572600082015250565b6000612810602083611d5c565b915061281b826127da565b602082019050919050565b6000602082019050818103600083015261283f81612803565b9050919050565b7f4552433732313a20617070726f766520746f2063616c6c657200000000000000600082015250565b600061287c601983611d5c565b915061288782612846565b602082019050919050565b600060208201905081810360008301526128ab8161286f565b9050919050565b7f4f776e61626c653a206e6577206f776e657220697320746865207a65726f206160008201527f6464726573730000000000000000000000000000000000000000000000000000602082015250565b600061290e602683611d5c565b9150612919826128b2565b604082019050919050565b6000602082019050818103600083015261293d81612901565b9050919050565b7f45524337323155524953746f726167653a2055524920736574206f66206e6f6e60008201527f6578697374656e7420746f6b656e000000000000000000000000000000000000602082015250565b60006129a0602e83611d5c565b91506129ab82612944565b604082019050919050565b600060208201905081810360008301526129cf81612993565b9050919050565b7f4552433732313a206f70657261746f7220717565727920666f72206e6f6e657860008201527f697374656e7420746f6b656e0000000000000000000000000000000000000000602082015250565b6000612a32602c83611d5c565b9150612a3d826129d6565b604082019050919050565b60006020820190508181036000830152612a6181612a25565b9050919050565b7f4552433732313a207472616e73666572206f6620746f6b656e2074686174206960008201527f73206e6f74206f776e0000000000000000000000000000000000000000000000602082015250565b6000612ac4602983611d5c565b9150612acf82612a68565b604082019050919050565b60006020820190508181036000830152612af381612ab7565b9050919050565b7f4552433732313a207472616e7366657220746f20746865207a65726f2061646460008201527f7265737300000000000000000000000000000000000000000000000000000000602082015250565b6000612b56602483611d5c565b9150612b6182612afa565b604082019050919050565b60006020820190508181036000830152612b8581612b49565b9050919050565b7f4e487b7100000000000000000000000000000000000000000000000000000000600052601160045260246000fd5b6000612bc682611e0c565b9150612bd183611e0c565b925082821015612be457612be3612b8c565b5b828203905092915050565b6000612bfa82611e0c565b9150612c0583611e0c565b9250827fffffffffffffffffffffffffffffffffffffffffffffffffffffffffffffffff03821115612c3a57612c39612b8c565b5b828201905092915050565b7f4552433732313a207472616e7366657220746f206e6f6e20455243373231526560008201527f63656976657220696d706c656d656e7465720000000000000000000000000000602082015250565b6000612ca1603283611d5c565b9150612cac82612c45565b604082019050919050565b60006020820190508181036000830152612cd081612c94565b9050919050565b7f45524337323155524953746f726167653a2055524920717565727920666f722060008201527f6e6f6e6578697374656e7420746f6b656e000000000000000000000000000000602082015250565b6000612d33603183611d5c565b9150612d3e82612cd7565b604082019050919050565b60006020820190508181036000830152612d6281612d26565b9050919050565b600081905092915050565b6000612d7f82611d51565b612d898185612d69565b9350612d99818560208601611d6d565b80840191505092915050565b6000612db18285612d74565b9150612dbd8284612d74565b91508190509392505050565b600081519050919050565b600082825260208201905092915050565b6000612df082612dc9565b612dfa8185612dd4565b9350612e0a818560208601611d6d565b612e1381611da0565b840191505092915050565b6000608082019050612e336000830187611ea1565b612e406020830186611ea1565b612e4d604083018561209b565b8181036060830152612e5f8184612de5565b905095945050505050565b600081519050612e7981611cc2565b92915050565b600060208284031215612e9557612e94611c8c565b5b6000612ea384828501612e6a565b91505092915050565b7f4552433732314d657461646174613a2055524920717565727920666f72206e6f60008201527f6e6578697374656e7420746f6b656e0000000000000000000000000000000000602082015250565b6000612f08602f83611d5c565b9150612f1382612eac565b604082019050919050565b60006020820190508181036000830152612f3781612efb565b9050919050565b7f4552433732313a206d696e7420746f20746865207a65726f2061646472657373600082015250565b6000612f74602083611d5c565b9150612f7f82612f3e565b602082019050919050565b60006020820190508181036000830152612fa381612f67565b9050919050565b7f4552433732313a20746f6b656e20616c7265616479206d696e74656400000000600082015250565b6000612fe0601c83611d5c565b9150612feb82612faa565b602082019050919050565b6000602082019050818103600083015261300f81612fd3565b9050919050565b600061302182611e0c565b91507fffffffffffffffffffffffffffffffffffffffffffffffffffffffffffffffff82141561305457613053612b8c565b5b600182019050919050565b7f4e487b7100000000000000000000000000000000000000000000000000000000600052601260045260246000fd5b600061309982611e0c565b91506130a483611e0c565b9250826130b4576130b361305f565b5b828204905092915050565b60006130ca82611e0c565b91506130d583611e0c565b9250826130e5576130e461305f565b5b828206905092915050565b7f4e487b7100000000000000000000000000000000000000000000000000000000600052603260045260246000fdfea2646970667358221220875465447e535832bab205809c63a0bda05e72b175de3f906f25d47f0915d69964736f6c634300080a0033",
  "immutableReferences": {},
  "source": "// SPDX-License-Identifier: MIT\r\npragma solidity ^0.8.10;\r\n\r\nimport \"@openzeppelin/contracts/token/ERC721/ERC721.sol\";\r\nimport \"@openzeppelin/contracts/token/ERC721/extensions/ERC721URIStorage.sol\";\r\nimport \"@openzeppelin/contracts/access/Ownable.sol\";\r\nimport \"@openzeppelin/contracts/utils/Counters.sol\";\r\n\r\ncontract NudeNFT is ERC721, ERC721URIStorage, Ownable {\r\n    using Counters for Counters.Counter;\r\n\r\n    Counters.Counter private _tokenIdCounter;\r\n\r\n    mapping(uint256 => uint256) private tokenPrices;\r\n\r\n    constructor() ERC721(\"NudeNFT\", \"NUDENFT\") {}\r\n\r\n    event newNFTMinted(address recipient, uint256 tokenId, string tokenURI, uint256 price);\r\n\r\n    function mintNFT(address recipient, string memory tokenURI, uint256 price)\r\n        public\r\n        returns (uint256)\r\n    {\r\n        require(price > 0, \"Price must be greater than 0\");\r\n        _tokenIdCounter.increment();\r\n        uint256 newItemId = _tokenIdCounter.current();\r\n        _safeMint(recipient, newItemId);\r\n        _setTokenURI(newItemId, tokenURI);\r\n        tokenPrices[newItemId] = price;\r\n        emit newNFTMinted(recipient, newItemId, tokenURI, price);\r\n        return newItemId;\r\n    }\r\n\r\n    function _burn(uint256 tokenId)\r\n        internal\r\n        override(ERC721, ERC721URIStorage)\r\n    {\r\n        super._burn(tokenId);\r\n    }\r\n\r\n    function tokenURI(uint256 tokenId)\r\n        public\r\n        view\r\n        override(ERC721, ERC721URIStorage)\r\n        returns (string memory)\r\n    {\r\n        return super.tokenURI(tokenId);\r\n    }\r\n}\r\n",
  "sourcePath": "C:\\Users\\chris\\Documents\\Github\\own-me\\contracts\\contracts\\NudeNFT.sol",
  "compiler": {
    "name": "solc",
    "version": "0.8.10+commit.fc410830.Emscripten.clang"
  },
  "schemaVersion": "3.4.3",
  "updatedAt": "2021-12-07T21:47:30.321Z",
  "networkType": "ethereum",
  "devdoc": {
    "kind": "dev",
    "methods": {
      "approve(address,uint256)": {
        "details": "See {IERC721-approve}."
      },
      "balanceOf(address)": {
        "details": "See {IERC721-balanceOf}."
      },
      "getApproved(uint256)": {
        "details": "See {IERC721-getApproved}."
      },
      "isApprovedForAll(address,address)": {
        "details": "See {IERC721-isApprovedForAll}."
      },
      "name()": {
        "details": "See {IERC721Metadata-name}."
      },
      "owner()": {
        "details": "Returns the address of the current owner."
      },
      "ownerOf(uint256)": {
        "details": "See {IERC721-ownerOf}."
      },
      "renounceOwnership()": {
        "details": "Leaves the contract without owner. It will not be possible to call `onlyOwner` functions anymore. Can only be called by the current owner. NOTE: Renouncing ownership will leave the contract without an owner, thereby removing any functionality that is only available to the owner."
      },
      "safeTransferFrom(address,address,uint256)": {
        "details": "See {IERC721-safeTransferFrom}."
      },
      "safeTransferFrom(address,address,uint256,bytes)": {
        "details": "See {IERC721-safeTransferFrom}."
      },
      "setApprovalForAll(address,bool)": {
        "details": "See {IERC721-setApprovalForAll}."
      },
      "supportsInterface(bytes4)": {
        "details": "See {IERC165-supportsInterface}."
      },
      "symbol()": {
        "details": "See {IERC721Metadata-symbol}."
      },
      "transferFrom(address,address,uint256)": {
        "details": "See {IERC721-transferFrom}."
      },
      "transferOwnership(address)": {
        "details": "Transfers ownership of the contract to a new account (`newOwner`). Can only be called by the current owner."
      }
    },
    "version": 1
  },
  "userdoc": {
    "kind": "user",
    "methods": {},
    "version": 1
  }
}