{
  "_format": "hh-sol-artifact-1",
  "contractName": "Nude",
  "sourceName": "contracts/Nude.sol",
  "abi": [
    {
      "inputs": [],
      "stateMutability": "nonpayable",
      "type": "constructor"
    },
    {
      "anonymous": false,
      "inputs": [
        {
          "indexed": true,
          "internalType": "address",
          "name": "owner",
          "type": "address"
        },
        {
          "indexed": true,
          "internalType": "address",
          "name": "spender",
          "type": "address"
        },
        {
          "indexed": false,
          "internalType": "uint256",
          "name": "value",
          "type": "uint256"
        }
      ],
      "name": "Approval",
      "type": "event"
    },
    {
      "anonymous": false,
      "inputs": [
        {
          "indexed": true,
          "internalType": "address",
          "name": "delegator",
          "type": "address"
        },
        {
          "indexed": true,
          "internalType": "address",
          "name": "fromDelegate",
          "type": "address"
        },
        {
          "indexed": true,
          "internalType": "address",
          "name": "toDelegate",
          "type": "address"
        }
      ],
      "name": "DelegateChanged",
      "type": "event"
    },
    {
      "anonymous": false,
      "inputs": [
        {
          "indexed": true,
          "internalType": "address",
          "name": "delegate",
          "type": "address"
        },
        {
          "indexed": false,
          "internalType": "uint256",
          "name": "previousBalance",
          "type": "uint256"
        },
        {
          "indexed": false,
          "internalType": "uint256",
          "name": "newBalance",
          "type": "uint256"
        }
      ],
      "name": "DelegateVotesChanged",
      "type": "event"
    },
    {
      "anonymous": false,
      "inputs": [
        {
          "indexed": true,
          "internalType": "address",
          "name": "previousOwner",
          "type": "address"
        },
        {
          "indexed": true,
          "internalType": "address",
          "name": "newOwner",
          "type": "address"
        }
      ],
      "name": "OwnershipTransferred",
      "type": "event"
    },
    {
      "anonymous": false,
      "inputs": [
        {
          "indexed": false,
          "internalType": "address",
          "name": "_buyer",
          "type": "address"
        },
        {
          "indexed": false,
          "internalType": "uint256",
          "name": "_amount",
          "type": "uint256"
        }
      ],
      "name": "Sell",
      "type": "event"
    },
    {
      "anonymous": false,
      "inputs": [
        {
          "indexed": true,
          "internalType": "address",
          "name": "from",
          "type": "address"
        },
        {
          "indexed": true,
          "internalType": "address",
          "name": "to",
          "type": "address"
        },
        {
          "indexed": false,
          "internalType": "uint256",
          "name": "value",
          "type": "uint256"
        }
      ],
      "name": "Transfer",
      "type": "event"
    },
    {
      "inputs": [],
      "name": "DOMAIN_SEPARATOR",
      "outputs": [
        {
          "internalType": "bytes32",
          "name": "",
          "type": "bytes32"
        }
      ],
      "stateMutability": "view",
      "type": "function"
    },
    {
      "inputs": [
        {
          "internalType": "address",
          "name": "owner",
          "type": "address"
        },
        {
          "internalType": "address",
          "name": "spender",
          "type": "address"
        }
      ],
      "name": "allowance",
      "outputs": [
        {
          "internalType": "uint256",
          "name": "",
          "type": "uint256"
        }
      ],
      "stateMutability": "view",
      "type": "function"
    },
    {
      "inputs": [
        {
          "internalType": "address",
          "name": "spender",
          "type": "address"
        },
        {
          "internalType": "uint256",
          "name": "amount",
          "type": "uint256"
        }
      ],
      "name": "approve",
      "outputs": [
        {
          "internalType": "bool",
          "name": "",
          "type": "bool"
        }
      ],
      "stateMutability": "nonpayable",
      "type": "function"
    },
    {
      "inputs": [
        {
          "internalType": "uint256",
          "name": "tokenId",
          "type": "uint256"
        }
      ],
      "name": "approveAndBuyNFT",
      "outputs": [],
      "stateMutability": "nonpayable",
      "type": "function"
    },
    {
      "inputs": [
        {
          "internalType": "address",
          "name": "account",
          "type": "address"
        }
      ],
      "name": "balanceOf",
      "outputs": [
        {
          "internalType": "uint256",
          "name": "",
          "type": "uint256"
        }
      ],
      "stateMutability": "view",
      "type": "function"
    },
    {
      "inputs": [
        {
          "internalType": "uint256",
          "name": "_numberOfTokens",
          "type": "uint256"
        }
      ],
      "name": "buyTokens",
      "outputs": [],
      "stateMutability": "payable",
      "type": "function"
    },
    {
      "inputs": [
        {
          "internalType": "address",
          "name": "account",
          "type": "address"
        },
        {
          "internalType": "uint32",
          "name": "pos",
          "type": "uint32"
        }
      ],
      "name": "checkpoints",
      "outputs": [
        {
          "components": [
            {
              "internalType": "uint32",
              "name": "fromBlock",
              "type": "uint32"
            },
            {
              "internalType": "uint224",
              "name": "votes",
              "type": "uint224"
            }
          ],
          "internalType": "struct ERC20Votes.Checkpoint",
          "name": "",
          "type": "tuple"
        }
      ],
      "stateMutability": "view",
      "type": "function"
    },
    {
      "inputs": [],
      "name": "decimals",
      "outputs": [
        {
          "internalType": "uint8",
          "name": "",
          "type": "uint8"
        }
      ],
      "stateMutability": "view",
      "type": "function"
    },
    {
      "inputs": [
        {
          "internalType": "address",
          "name": "spender",
          "type": "address"
        },
        {
          "internalType": "uint256",
          "name": "subtractedValue",
          "type": "uint256"
        }
      ],
      "name": "decreaseAllowance",
      "outputs": [
        {
          "internalType": "bool",
          "name": "",
          "type": "bool"
        }
      ],
      "stateMutability": "nonpayable",
      "type": "function"
    },
    {
      "inputs": [
        {
          "internalType": "address",
          "name": "delegatee",
          "type": "address"
        }
      ],
      "name": "delegate",
      "outputs": [],
      "stateMutability": "nonpayable",
      "type": "function"
    },
    {
      "inputs": [
        {
          "internalType": "address",
          "name": "delegatee",
          "type": "address"
        },
        {
          "internalType": "uint256",
          "name": "nonce",
          "type": "uint256"
        },
        {
          "internalType": "uint256",
          "name": "expiry",
          "type": "uint256"
        },
        {
          "internalType": "uint8",
          "name": "v",
          "type": "uint8"
        },
        {
          "internalType": "bytes32",
          "name": "r",
          "type": "bytes32"
        },
        {
          "internalType": "bytes32",
          "name": "s",
          "type": "bytes32"
        }
      ],
      "name": "delegateBySig",
      "outputs": [],
      "stateMutability": "nonpayable",
      "type": "function"
    },
    {
      "inputs": [
        {
          "internalType": "address",
          "name": "account",
          "type": "address"
        }
      ],
      "name": "delegates",
      "outputs": [
        {
          "internalType": "address",
          "name": "",
          "type": "address"
        }
      ],
      "stateMutability": "view",
      "type": "function"
    },
    {
      "inputs": [
        {
          "internalType": "uint256",
          "name": "blockNumber",
          "type": "uint256"
        }
      ],
      "name": "getPastTotalSupply",
      "outputs": [
        {
          "internalType": "uint256",
          "name": "",
          "type": "uint256"
        }
      ],
      "stateMutability": "view",
      "type": "function"
    },
    {
      "inputs": [
        {
          "internalType": "address",
          "name": "account",
          "type": "address"
        },
        {
          "internalType": "uint256",
          "name": "blockNumber",
          "type": "uint256"
        }
      ],
      "name": "getPastVotes",
      "outputs": [
        {
          "internalType": "uint256",
          "name": "",
          "type": "uint256"
        }
      ],
      "stateMutability": "view",
      "type": "function"
    },
    {
      "inputs": [
        {
          "internalType": "address",
          "name": "account",
          "type": "address"
        }
      ],
      "name": "getVotes",
      "outputs": [
        {
          "internalType": "uint256",
          "name": "",
          "type": "uint256"
        }
      ],
      "stateMutability": "view",
      "type": "function"
    },
    {
      "inputs": [
        {
          "internalType": "address",
          "name": "spender",
          "type": "address"
        },
        {
          "internalType": "uint256",
          "name": "addedValue",
          "type": "uint256"
        }
      ],
      "name": "increaseAllowance",
      "outputs": [
        {
          "internalType": "bool",
          "name": "",
          "type": "bool"
        }
      ],
      "stateMutability": "nonpayable",
      "type": "function"
    },
    {
      "inputs": [],
      "name": "initialSupply",
      "outputs": [
        {
          "internalType": "uint256",
          "name": "",
          "type": "uint256"
        }
      ],
      "stateMutability": "view",
      "type": "function"
    },
    {
      "inputs": [],
      "name": "name",
      "outputs": [
        {
          "internalType": "string",
          "name": "",
          "type": "string"
        }
      ],
      "stateMutability": "view",
      "type": "function"
    },
    {
      "inputs": [
        {
          "internalType": "address",
          "name": "owner",
          "type": "address"
        }
      ],
      "name": "nonces",
      "outputs": [
        {
          "internalType": "uint256",
          "name": "",
          "type": "uint256"
        }
      ],
      "stateMutability": "view",
      "type": "function"
    },
    {
      "inputs": [
        {
          "internalType": "address",
          "name": "account",
          "type": "address"
        }
      ],
      "name": "numCheckpoints",
      "outputs": [
        {
          "internalType": "uint32",
          "name": "",
          "type": "uint32"
        }
      ],
      "stateMutability": "view",
      "type": "function"
    },
    {
      "inputs": [],
      "name": "owner",
      "outputs": [
        {
          "internalType": "address",
          "name": "",
          "type": "address"
        }
      ],
      "stateMutability": "view",
      "type": "function"
    },
    {
      "inputs": [
        {
          "internalType": "address",
          "name": "owner",
          "type": "address"
        },
        {
          "internalType": "address",
          "name": "spender",
          "type": "address"
        },
        {
          "internalType": "uint256",
          "name": "value",
          "type": "uint256"
        },
        {
          "internalType": "uint256",
          "name": "deadline",
          "type": "uint256"
        },
        {
          "internalType": "uint8",
          "name": "v",
          "type": "uint8"
        },
        {
          "internalType": "bytes32",
          "name": "r",
          "type": "bytes32"
        },
        {
          "internalType": "bytes32",
          "name": "s",
          "type": "bytes32"
        }
      ],
      "name": "permit",
      "outputs": [],
      "stateMutability": "nonpayable",
      "type": "function"
    },
    {
      "inputs": [],
      "name": "renounceOwnership",
      "outputs": [],
      "stateMutability": "nonpayable",
      "type": "function"
    },
    {
      "inputs": [
        {
          "internalType": "address",
          "name": "dexAddress",
          "type": "address"
        }
      ],
      "name": "setNudeDex",
      "outputs": [],
      "stateMutability": "nonpayable",
      "type": "function"
    },
    {
      "inputs": [],
      "name": "symbol",
      "outputs": [
        {
          "internalType": "string",
          "name": "",
          "type": "string"
        }
      ],
      "stateMutability": "view",
      "type": "function"
    },
    {
      "inputs": [],
      "name": "tax",
      "outputs": [
        {
          "internalType": "uint8",
          "name": "",
          "type": "uint8"
        }
      ],
      "stateMutability": "view",
      "type": "function"
    },
    {
      "inputs": [],
      "name": "tokenRate",
      "outputs": [
        {
          "internalType": "uint256",
          "name": "",
          "type": "uint256"
        }
      ],
      "stateMutability": "view",
      "type": "function"
    },
    {
      "inputs": [],
      "name": "tokensSold",
      "outputs": [
        {
          "internalType": "uint256",
          "name": "",
          "type": "uint256"
        }
      ],
      "stateMutability": "view",
      "type": "function"
    },
    {
      "inputs": [],
      "name": "totalSupply",
      "outputs": [
        {
          "internalType": "uint256",
          "name": "",
          "type": "uint256"
        }
      ],
      "stateMutability": "view",
      "type": "function"
    },
    {
      "inputs": [
        {
          "internalType": "address",
          "name": "to",
          "type": "address"
        },
        {
          "internalType": "uint256",
          "name": "amount",
          "type": "uint256"
        }
      ],
      "name": "transfer",
      "outputs": [
        {
          "internalType": "bool",
          "name": "",
          "type": "bool"
        }
      ],
      "stateMutability": "nonpayable",
      "type": "function"
    },
    {
      "inputs": [
        {
          "internalType": "address",
          "name": "from",
          "type": "address"
        },
        {
          "internalType": "address",
          "name": "to",
          "type": "address"
        },
        {
          "internalType": "uint256",
          "name": "amount",
          "type": "uint256"
        }
      ],
      "name": "transferFrom",
      "outputs": [
        {
          "internalType": "bool",
          "name": "",
          "type": "bool"
        }
      ],
      "stateMutability": "nonpayable",
      "type": "function"
    },
    {
      "inputs": [
        {
          "internalType": "address",
          "name": "newOwner",
          "type": "address"
        }
      ],
      "name": "transferOwnership",
      "outputs": [],
      "stateMutability": "nonpayable",
      "type": "function"
    },
    {
      "inputs": [
        {
          "internalType": "address",
          "name": "from",
          "type": "address"
        },
        {
          "internalType": "address",
          "name": "to",
          "type": "address"
        },
        {
          "internalType": "uint256",
          "name": "amount",
          "type": "uint256"
        }
      ],
      "name": "transferTokens",
      "outputs": [],
      "stateMutability": "nonpayable",
      "type": "function"
    }
  ],
  "bytecode": "0x6101406040526304277dc9600b55600a600d55600a600e60146101000a81548160ff021916908360ff1602179055503480156200003b57600080fd5b506040518060400160405280600481526020017f4e75646500000000000000000000000000000000000000000000000000000000815250806040518060400160405280600181526020017f31000000000000000000000000000000000000000000000000000000000000008152506040518060400160405280600481526020017f4e756465000000000000000000000000000000000000000000000000000000008152506040518060400160405280600481526020017f4e5544450000000000000000000000000000000000000000000000000000000081525081600390805190602001906200012d92919062000c9a565b5080600490805190602001906200014692919062000c9a565b50505060008280519060200120905060008280519060200120905060007f8b73c3c69bb8fe3d512ecc4cf759cc79239f7b179b0ffacaa9a75d522b39400f90508260e081815250508161010081815250504660a08181525050620001b28184846200026060201b60201c565b608081815250503073ffffffffffffffffffffffffffffffffffffffff1660c08173ffffffffffffffffffffffffffffffffffffffff16815250508061012081815250505050505050506200021c620002106200029c60201b60201c565b620002a460201b60201c565b6200025a33620002316200036a60201b60201c565b600a6200023f919062000ee4565b600b546200024e919062000f35565b6200037360201b60201c565b62001424565b600083838346306040516020016200027d95949392919062001007565b6040516020818303038152906040528051906020012090509392505050565b600033905090565b6000600a60009054906101000a900473ffffffffffffffffffffffffffffffffffffffff16905081600a60006101000a81548173ffffffffffffffffffffffffffffffffffffffff021916908373ffffffffffffffffffffffffffffffffffffffff1602179055508173ffffffffffffffffffffffffffffffffffffffff168173ffffffffffffffffffffffffffffffffffffffff167f8be0079c531659141344cd1fd0a4f28419497f9722a3daafe3b4186f6b6457e060405160405180910390a35050565b60006012905090565b6200038a82826200038e60201b620017971760201c565b5050565b620003a582826200044c60201b620018241760201c565b620003b5620005c460201b60201c565b7bffffffffffffffffffffffffffffffffffffffffffffffffffffffff16620003e3620005e860201b60201c565b111562000427576040517f08c379a00000000000000000000000000000000000000000000000000000000081526004016200041e90620010eb565b60405180910390fd5b620004466009620005f260201b6200198317836200060a60201b60201c565b50505050565b600073ffffffffffffffffffffffffffffffffffffffff168273ffffffffffffffffffffffffffffffffffffffff1603620004be576040517f08c379a0000000000000000000000000000000000000000000000000000000008152600401620004b5906200115d565b60405180910390fd5b620004d260008383620008bb60201b60201c565b8060026000828254620004e691906200117f565b92505081905550806000808473ffffffffffffffffffffffffffffffffffffffff1673ffffffffffffffffffffffffffffffffffffffff16815260200190815260200160002060008282546200053d91906200117f565b925050819055508173ffffffffffffffffffffffffffffffffffffffff16600073ffffffffffffffffffffffffffffffffffffffff167fddf252ad1be2c89b69c2b068fc378daa952ba7f163c4a11628f55a4df523b3ef83604051620005a49190620011dc565b60405180910390a3620005c060008383620008c060201b60201c565b5050565b60007bffffffffffffffffffffffffffffffffffffffffffffffffffffffff905090565b6000600254905090565b600081836200060291906200117f565b905092915050565b600080600085805490509050600081146200067f57856001826200062f9190620011f9565b8154811062000643576200064262001234565b5b9060005260206000200160000160049054906101000a90047bffffffffffffffffffffffffffffffffffffffffffffffffffffffff1662000682565b60005b7bffffffffffffffffffffffffffffffffffffffffffffffffffffffff169250620006ae83858760201c565b91506000811180156200070757504386600183620006cd9190620011f9565b81548110620006e157620006e062001234565b5b9060005260206000200160000160009054906101000a900463ffffffff1663ffffffff16145b15620007a8576200072382620008dd60201b620019991760201c565b86600183620007339190620011f9565b8154811062000747576200074662001234565b5b9060005260206000200160000160046101000a8154817bffffffffffffffffffffffffffffffffffffffffffffffffffffffff02191690837bffffffffffffffffffffffffffffffffffffffffffffffffffffffff160217905550620008b2565b856040518060400160405280620007ca436200094b60201b62001a041760201c565b63ffffffff168152602001620007eb85620008dd60201b620019991760201c565b7bffffffffffffffffffffffffffffffffffffffffffffffffffffffff168152509080600181540180825580915050600190039060005260206000200160009091909190915060008201518160000160006101000a81548163ffffffff021916908363ffffffff16021790555060208201518160000160046101000a8154817bffffffffffffffffffffffffffffffffffffffffffffffffffffffff02191690837bffffffffffffffffffffffffffffffffffffffffffffffffffffffff16021790555050505b50935093915050565b505050565b620008d8838383620009a160201b62001a571760201c565b505050565b60007bffffffffffffffffffffffffffffffffffffffffffffffffffffffff801682111562000943576040517f08c379a00000000000000000000000000000000000000000000000000000000081526004016200093a90620012d9565b60405180910390fd5b819050919050565b600063ffffffff801682111562000999576040517f08c379a0000000000000000000000000000000000000000000000000000000008152600401620009909062001371565b60405180910390fd5b819050919050565b620009b9838383620009f160201b62001a821760201c565b620009ec620009ce84620009f660201b60201c565b620009df84620009f660201b60201c565b8362000a5f60201b60201c565b505050565b505050565b6000600760008373ffffffffffffffffffffffffffffffffffffffff1673ffffffffffffffffffffffffffffffffffffffff16815260200190815260200160002060009054906101000a900473ffffffffffffffffffffffffffffffffffffffff169050919050565b8173ffffffffffffffffffffffffffffffffffffffff168373ffffffffffffffffffffffffffffffffffffffff161415801562000a9c5750600081115b1562000c7d57600073ffffffffffffffffffffffffffffffffffffffff168373ffffffffffffffffffffffffffffffffffffffff161462000b8f5760008062000b36600860008773ffffffffffffffffffffffffffffffffffffffff1673ffffffffffffffffffffffffffffffffffffffff16815260200190815260200160002062000c8260201b62001a8717856200060a60201b60201c565b915091508473ffffffffffffffffffffffffffffffffffffffff167fdec2bacdd2f05b59de34da9b523dff8be42e5e38e818c82fdb0bae774387a724838360405162000b8492919062001393565b60405180910390a250505b600073ffffffffffffffffffffffffffffffffffffffff168273ffffffffffffffffffffffffffffffffffffffff161462000c7c5760008062000c23600860008673ffffffffffffffffffffffffffffffffffffffff1673ffffffffffffffffffffffffffffffffffffffff168152602001908152602001600020620005f260201b6200198317856200060a60201b60201c565b915091508373ffffffffffffffffffffffffffffffffffffffff167fdec2bacdd2f05b59de34da9b523dff8be42e5e38e818c82fdb0bae774387a724838360405162000c7192919062001393565b60405180910390a250505b5b505050565b6000818362000c929190620011f9565b905092915050565b82805462000ca890620013ef565b90600052602060002090601f01602090048101928262000ccc576000855562000d18565b82601f1062000ce757805160ff191683800117855562000d18565b8280016001018555821562000d18579182015b8281111562000d1757825182559160200191906001019062000cfa565b5b50905062000d27919062000d2b565b5090565b5b8082111562000d4657600081600090555060010162000d2c565b5090565b7f4e487b7100000000000000000000000000000000000000000000000000000000600052601160045260246000fd5b60008160011c9050919050565b6000808291508390505b600185111562000dd85780860481111562000db05762000daf62000d4a565b5b600185161562000dc05780820291505b808102905062000dd08562000d79565b945062000d90565b94509492505050565b60008262000df3576001905062000ec6565b8162000e03576000905062000ec6565b816001811462000e1c576002811462000e275762000e5d565b600191505062000ec6565b60ff84111562000e3c5762000e3b62000d4a565b5b8360020a91508482111562000e565762000e5562000d4a565b5b5062000ec6565b5060208310610133831016604e8410600b841016171562000e975782820a90508381111562000e915762000e9062000d4a565b5b62000ec6565b62000ea6848484600162000d86565b9250905081840481111562000ec05762000ebf62000d4a565b5b81810290505b9392505050565b6000819050919050565b600060ff82169050919050565b600062000ef18262000ecd565b915062000efe8362000ed7565b925062000f2d7fffffffffffffffffffffffffffffffffffffffffffffffffffffffffffffffff848462000de1565b905092915050565b600062000f428262000ecd565b915062000f4f8362000ecd565b9250817fffffffffffffffffffffffffffffffffffffffffffffffffffffffffffffffff048311821515161562000f8b5762000f8a62000d4a565b5b828202905092915050565b6000819050919050565b62000fab8162000f96565b82525050565b62000fbc8162000ecd565b82525050565b600073ffffffffffffffffffffffffffffffffffffffff82169050919050565b600062000fef8262000fc2565b9050919050565b620010018162000fe2565b82525050565b600060a0820190506200101e600083018862000fa0565b6200102d602083018762000fa0565b6200103c604083018662000fa0565b6200104b606083018562000fb1565b6200105a608083018462000ff6565b9695505050505050565b600082825260208201905092915050565b7f4552433230566f7465733a20746f74616c20737570706c79207269736b73206f60008201527f766572666c6f77696e6720766f74657300000000000000000000000000000000602082015250565b6000620010d360308362001064565b9150620010e08262001075565b604082019050919050565b600060208201905081810360008301526200110681620010c4565b9050919050565b7f45524332303a206d696e7420746f20746865207a65726f206164647265737300600082015250565b600062001145601f8362001064565b915062001152826200110d565b602082019050919050565b60006020820190508181036000830152620011788162001136565b9050919050565b60006200118c8262000ecd565b9150620011998362000ecd565b9250827fffffffffffffffffffffffffffffffffffffffffffffffffffffffffffffffff03821115620011d157620011d062000d4a565b5b828201905092915050565b6000602082019050620011f3600083018462000fb1565b92915050565b6000620012068262000ecd565b9150620012138362000ecd565b92508282101562001229576200122862000d4a565b5b828203905092915050565b7f4e487b7100000000000000000000000000000000000000000000000000000000600052603260045260246000fd5b7f53616665436173743a2076616c756520646f65736e27742066697420696e203260008201527f3234206269747300000000000000000000000000000000000000000000000000602082015250565b6000620012c160278362001064565b9150620012ce8262001263565b604082019050919050565b60006020820190508181036000830152620012f481620012b2565b9050919050565b7f53616665436173743a2076616c756520646f65736e27742066697420696e203360008201527f3220626974730000000000000000000000000000000000000000000000000000602082015250565b60006200135960268362001064565b91506200136682620012fb565b604082019050919050565b600060208201905081810360008301526200138c816200134a565b9050919050565b6000604082019050620013aa600083018562000fb1565b620013b9602083018462000fb1565b9392505050565b7f4e487b7100000000000000000000000000000000000000000000000000000000600052602260045260246000fd5b600060028204905060018216806200140857607f821691505b6020821081036200141e576200141d620013c0565b5b50919050565b60805160a05160c05160e051610100516101205161457a620014746000396000612027015260006120690152600061204801526000611f7d01526000611fd301526000611ffc015261457a6000f3fe6080604052600436106101ee5760003560e01c806370a082311161010d578063a457c2d7116100a0578063d505accf1161006f578063d505accf14610754578063dd62ed3e1461077d578063e8e42475146107ba578063f1127ed8146107e3578063f2fde38b14610820576101ee565b8063a457c2d714610688578063a64b6e5f146106c5578063a9059cbb146106ee578063c3cda5201461072b576101ee565b80638e539e8c116100dc5780638e539e8c146105b857806395d89b41146105f557806399c8d556146106205780639ab24eb01461064b576101ee565b806370a08231146104fc578063715018a6146105395780637ecebe00146105505780638da5cb5b1461058d576101ee565b8063378dc3dc11610185578063518ab2a811610154578063518ab2a81461042e578063587cde1e146104595780635c19a95c146104965780636fcfff45146104bf576101ee565b8063378dc3dc1461036057806338ece2a61461038b57806339509351146103b45780633a46b1a8146103f1576101ee565b8063313ce567116101c1578063313ce567146102c357806331711884146102ee5780633610724e146103195780633644e51514610335576101ee565b806306fdde03146101f3578063095ea7b31461021e57806318160ddd1461025b57806323b872dd14610286575b600080fd5b3480156101ff57600080fd5b50610208610849565b6040516102159190612d32565b60405180910390f35b34801561022a57600080fd5b5061024560048036038101906102409190612ded565b6108db565b6040516102529190612e48565b60405180910390f35b34801561026757600080fd5b506102706108fe565b60405161027d9190612e72565b60405180910390f35b34801561029257600080fd5b506102ad60048036038101906102a89190612e8d565b610908565b6040516102ba9190612e48565b60405180910390f35b3480156102cf57600080fd5b506102d8610937565b6040516102e59190612efc565b60405180910390f35b3480156102fa57600080fd5b50610303610940565b6040516103109190612e72565b60405180910390f35b610333600480360381019061032e9190612f17565b610946565b005b34801561034157600080fd5b5061034a610a6c565b6040516103579190612f5d565b60405180910390f35b34801561036c57600080fd5b50610375610a7b565b6040516103829190612e72565b60405180910390f35b34801561039757600080fd5b506103b260048036038101906103ad9190612f17565b610a81565b005b3480156103c057600080fd5b506103db60048036038101906103d69190612ded565b610c16565b6040516103e89190612e48565b60405180910390f35b3480156103fd57600080fd5b5061041860048036038101906104139190612ded565b610c4d565b6040516104259190612e72565b60405180910390f35b34801561043a57600080fd5b50610443610ce1565b6040516104509190612e72565b60405180910390f35b34801561046557600080fd5b50610480600480360381019061047b9190612f78565b610ce7565b60405161048d9190612fb4565b60405180910390f35b3480156104a257600080fd5b506104bd60048036038101906104b89190612f78565b610d50565b005b3480156104cb57600080fd5b506104e660048036038101906104e19190612f78565b610d64565b6040516104f39190612fee565b60405180910390f35b34801561050857600080fd5b50610523600480360381019061051e9190612f78565b610db8565b6040516105309190612e72565b60405180910390f35b34801561054557600080fd5b5061054e610e00565b005b34801561055c57600080fd5b5061057760048036038101906105729190612f78565b610e88565b6040516105849190612e72565b60405180910390f35b34801561059957600080fd5b506105a2610ed8565b6040516105af9190612fb4565b60405180910390f35b3480156105c457600080fd5b506105df60048036038101906105da9190612f17565b610f02565b6040516105ec9190612e72565b60405180910390f35b34801561060157600080fd5b5061060a610f58565b6040516106179190612d32565b60405180910390f35b34801561062c57600080fd5b50610635610fea565b6040516106429190612efc565b60405180910390f35b34801561065757600080fd5b50610672600480360381019061066d9190612f78565b610ffd565b60405161067f9190612e72565b60405180910390f35b34801561069457600080fd5b506106af60048036038101906106aa9190612ded565b61110e565b6040516106bc9190612e48565b60405180910390f35b3480156106d157600080fd5b506106ec60048036038101906106e79190612e8d565b611185565b005b3480156106fa57600080fd5b5061071560048036038101906107109190612ded565b6111e0565b6040516107229190612e48565b60405180910390f35b34801561073757600080fd5b50610752600480360381019061074d9190613061565b611203565b005b34801561076057600080fd5b5061077b600480360381019061077691906130ee565b611307565b005b34801561078957600080fd5b506107a4600480360381019061079f9190613190565b611449565b6040516107b19190612e72565b60405180910390f35b3480156107c657600080fd5b506107e160048036038101906107dc9190612f78565b6114d0565b005b3480156107ef57600080fd5b5061080a600480360381019061080591906131fc565b611590565b60405161081791906132b1565b60405180910390f35b34801561082c57600080fd5b5061084760048036038101906108429190612f78565b6116a0565b005b606060038054610858906132fb565b80601f0160208091040260200160405190810160405280929190818152602001828054610884906132fb565b80156108d15780601f106108a6576101008083540402835291602001916108d1565b820191906000526020600020905b8154815290600101906020018083116108b457829003601f168201915b5050505050905090565b6000806108e6611a9d565b90506108f3818585611aa5565b600191505092915050565b6000600254905090565b600080610913611a9d565b9050610920858285611c6e565b61092b858585611cfa565b60019150509392505050565b60006012905090565b600d5481565b61094e610937565b600a61095a919061348e565b8161096591906134d9565b600d543461097391906134d9565b146109b3576040517f08c379a00000000000000000000000000000000000000000000000000000000081526004016109aa9061357f565b60405180910390fd5b806109c46109bf610ed8565b610db8565b1015610a05576040517f08c379a00000000000000000000000000000000000000000000000000000000081526004016109fc906135eb565b60405180910390fd5b610a17610a10610ed8565b3383611cfa565b80600c6000828254610a29919061360b565b925050819055507f5e5e995ce3133561afceaa51a9a154d5db228cd7525d34df5185582c18d3df093382604051610a61929190613661565b60405180910390a150565b6000610a76611f79565b905090565b600b5481565b6000600e60009054906101000a900473ffffffffffffffffffffffffffffffffffffffff1673ffffffffffffffffffffffffffffffffffffffff1663e7572230836040518263ffffffff1660e01b8152600401610ade9190612e72565b602060405180830381865afa158015610afb573d6000803e3d6000fd5b505050506040513d601f19601f82011682018060405250810190610b1f919061369f565b9050610b82600e60009054906101000a900473ffffffffffffffffffffffffffffffffffffffff166064600e60149054906101000a900460ff166064610b6591906136cc565b60ff1684610b7391906134d9565b610b7d9190613732565b6108db565b50600e60009054906101000a900473ffffffffffffffffffffffffffffffffffffffff1673ffffffffffffffffffffffffffffffffffffffff1663e0a0cf7483336040518363ffffffff1660e01b8152600401610be0929190613763565b600060405180830381600087803b158015610bfa57600080fd5b505af1158015610c0e573d6000803e3d6000fd5b505050505050565b600080610c21611a9d565b9050610c42818585610c338589611449565b610c3d919061360b565b611aa5565b600191505092915050565b6000438210610c91576040517f08c379a0000000000000000000000000000000000000000000000000000000008152600401610c88906137d8565b60405180910390fd5b610cd9600860008573ffffffffffffffffffffffffffffffffffffffff1673ffffffffffffffffffffffffffffffffffffffff16815260200190815260200160002083612093565b905092915050565b600c5481565b6000600760008373ffffffffffffffffffffffffffffffffffffffff1673ffffffffffffffffffffffffffffffffffffffff16815260200190815260200160002060009054906101000a900473ffffffffffffffffffffffffffffffffffffffff169050919050565b610d61610d5b611a9d565b8261219f565b50565b6000610db1600860008473ffffffffffffffffffffffffffffffffffffffff1673ffffffffffffffffffffffffffffffffffffffff16815260200190815260200160002080549050611a04565b9050919050565b60008060008373ffffffffffffffffffffffffffffffffffffffff1673ffffffffffffffffffffffffffffffffffffffff168152602001908152602001600020549050919050565b610e08611a9d565b73ffffffffffffffffffffffffffffffffffffffff16610e26610ed8565b73ffffffffffffffffffffffffffffffffffffffff1614610e7c576040517f08c379a0000000000000000000000000000000000000000000000000000000008152600401610e7390613844565b60405180910390fd5b610e8660006122b9565b565b6000610ed1600560008473ffffffffffffffffffffffffffffffffffffffff1673ffffffffffffffffffffffffffffffffffffffff16815260200190815260200160002061237f565b9050919050565b6000600a60009054906101000a900473ffffffffffffffffffffffffffffffffffffffff16905090565b6000438210610f46576040517f08c379a0000000000000000000000000000000000000000000000000000000008152600401610f3d906137d8565b60405180910390fd5b610f51600983612093565b9050919050565b606060048054610f67906132fb565b80601f0160208091040260200160405190810160405280929190818152602001828054610f93906132fb565b8015610fe05780601f10610fb557610100808354040283529160200191610fe0565b820191906000526020600020905b815481529060010190602001808311610fc357829003601f168201915b5050505050905090565b600e60149054906101000a900460ff1681565b600080600860008473ffffffffffffffffffffffffffffffffffffffff1673ffffffffffffffffffffffffffffffffffffffff168152602001908152602001600020805490509050600081146110e557600860008473ffffffffffffffffffffffffffffffffffffffff1673ffffffffffffffffffffffffffffffffffffffff1681526020019081526020016000206001826110999190613864565b815481106110aa576110a9613898565b5b9060005260206000200160000160049054906101000a90047bffffffffffffffffffffffffffffffffffffffffffffffffffffffff166110e8565b60005b7bffffffffffffffffffffffffffffffffffffffffffffffffffffffff16915050919050565b600080611119611a9d565b905060006111278286611449565b90508381101561116c576040517f08c379a000000000000000000000000000000000000000000000000000000000815260040161116390613939565b60405180910390fd5b6111798286868403611aa5565b60019250505092915050565b8061118f84610db8565b10156111d0576040517f08c379a00000000000000000000000000000000000000000000000000000000081526004016111c7906135eb565b60405180910390fd5b6111db838383611cfa565b505050565b6000806111eb611a9d565b90506111f8818585611cfa565b600191505092915050565b83421115611246576040517f08c379a000000000000000000000000000000000000000000000000000000000815260040161123d906139a5565b60405180910390fd5b60006112a86112a07fe48329057bfd03d55e49b547132e39cffd9c1820ad7b9d4c5307691425d15adf89898960405160200161128594939291906139c5565b6040516020818303038152906040528051906020012061238d565b8585856123a7565b90506112b3816123d2565b86146112f4576040517f08c379a00000000000000000000000000000000000000000000000000000000081526004016112eb90613a56565b60405180910390fd5b6112fe818861219f565b50505050505050565b8342111561134a576040517f08c379a000000000000000000000000000000000000000000000000000000000815260040161134190613ac2565b60405180910390fd5b60007f6e71edae12b1b97f4d1f60370fef10105fa2faae0126114a169c64845d6126c98888886113798c6123d2565b8960405160200161138f96959493929190613ae2565b60405160208183030381529060405280519060200120905060006113b28261238d565b905060006113c2828787876123a7565b90508973ffffffffffffffffffffffffffffffffffffffff168173ffffffffffffffffffffffffffffffffffffffff1614611432576040517f08c379a000000000000000000000000000000000000000000000000000000000815260040161142990613b8f565b60405180910390fd5b61143d8a8a8a611aa5565b50505050505050505050565b6000600160008473ffffffffffffffffffffffffffffffffffffffff1673ffffffffffffffffffffffffffffffffffffffff16815260200190815260200160002060008373ffffffffffffffffffffffffffffffffffffffff1673ffffffffffffffffffffffffffffffffffffffff16815260200190815260200160002054905092915050565b6114d8611a9d565b73ffffffffffffffffffffffffffffffffffffffff166114f6610ed8565b73ffffffffffffffffffffffffffffffffffffffff161461154c576040517f08c379a000000000000000000000000000000000000000000000000000000000815260040161154390613844565b60405180910390fd5b80600e60006101000a81548173ffffffffffffffffffffffffffffffffffffffff021916908373ffffffffffffffffffffffffffffffffffffffff16021790555050565b611598612c5b565b600860008473ffffffffffffffffffffffffffffffffffffffff1673ffffffffffffffffffffffffffffffffffffffff1681526020019081526020016000208263ffffffff16815481106115ef576115ee613898565b5b906000526020600020016040518060400160405290816000820160009054906101000a900463ffffffff1663ffffffff1663ffffffff1681526020016000820160049054906101000a90047bffffffffffffffffffffffffffffffffffffffffffffffffffffffff167bffffffffffffffffffffffffffffffffffffffffffffffffffffffff167bffffffffffffffffffffffffffffffffffffffffffffffffffffffff1681525050905092915050565b6116a8611a9d565b73ffffffffffffffffffffffffffffffffffffffff166116c6610ed8565b73ffffffffffffffffffffffffffffffffffffffff161461171c576040517f08c379a000000000000000000000000000000000000000000000000000000000815260040161171390613844565b60405180910390fd5b600073ffffffffffffffffffffffffffffffffffffffff168173ffffffffffffffffffffffffffffffffffffffff160361178b576040517f08c379a000000000000000000000000000000000000000000000000000000000815260040161178290613c21565b60405180910390fd5b611794816122b9565b50565b6117a18282611824565b6117a9612430565b7bffffffffffffffffffffffffffffffffffffffffffffffffffffffff166117cf6108fe565b1115611810576040517f08c379a000000000000000000000000000000000000000000000000000000000815260040161180790613cb3565b60405180910390fd5b61181e600961198383612454565b50505050565b600073ffffffffffffffffffffffffffffffffffffffff168273ffffffffffffffffffffffffffffffffffffffff1603611893576040517f08c379a000000000000000000000000000000000000000000000000000000000815260040161188a90613d1f565b60405180910390fd5b61189f600083836126cc565b80600260008282546118b1919061360b565b92505081905550806000808473ffffffffffffffffffffffffffffffffffffffff1673ffffffffffffffffffffffffffffffffffffffff1681526020019081526020016000206000828254611906919061360b565b925050819055508173ffffffffffffffffffffffffffffffffffffffff16600073ffffffffffffffffffffffffffffffffffffffff167fddf252ad1be2c89b69c2b068fc378daa952ba7f163c4a11628f55a4df523b3ef8360405161196b9190612e72565b60405180910390a361197f600083836126d1565b5050565b60008183611991919061360b565b905092915050565b60007bffffffffffffffffffffffffffffffffffffffffffffffffffffffff80168211156119fc576040517f08c379a00000000000000000000000000000000000000000000000000000000081526004016119f390613db1565b60405180910390fd5b819050919050565b600063ffffffff8016821115611a4f576040517f08c379a0000000000000000000000000000000000000000000000000000000008152600401611a4690613e43565b60405180910390fd5b819050919050565b611a62838383611a82565b611a7d611a6e84610ce7565b611a7784610ce7565b836126e1565b505050565b505050565b60008183611a959190613864565b905092915050565b600033905090565b600073ffffffffffffffffffffffffffffffffffffffff168373ffffffffffffffffffffffffffffffffffffffff1603611b14576040517f08c379a0000000000000000000000000000000000000000000000000000000008152600401611b0b90613ed5565b60405180910390fd5b600073ffffffffffffffffffffffffffffffffffffffff168273ffffffffffffffffffffffffffffffffffffffff1603611b83576040517f08c379a0000000000000000000000000000000000000000000000000000000008152600401611b7a90613f67565b60405180910390fd5b80600160008573ffffffffffffffffffffffffffffffffffffffff1673ffffffffffffffffffffffffffffffffffffffff16815260200190815260200160002060008473ffffffffffffffffffffffffffffffffffffffff1673ffffffffffffffffffffffffffffffffffffffff168152602001908152602001600020819055508173ffffffffffffffffffffffffffffffffffffffff168373ffffffffffffffffffffffffffffffffffffffff167f8c5be1e5ebec7d5bd14f71427d1e84f3dd0314c0f7b2291e5b200ac8c7c3b92583604051611c619190612e72565b60405180910390a3505050565b6000611c7a8484611449565b90507fffffffffffffffffffffffffffffffffffffffffffffffffffffffffffffffff8114611cf45781811015611ce6576040517f08c379a0000000000000000000000000000000000000000000000000000000008152600401611cdd90613fd3565b60405180910390fd5b611cf38484848403611aa5565b5b50505050565b600073ffffffffffffffffffffffffffffffffffffffff168373ffffffffffffffffffffffffffffffffffffffff1603611d69576040517f08c379a0000000000000000000000000000000000000000000000000000000008152600401611d6090614065565b60405180910390fd5b600073ffffffffffffffffffffffffffffffffffffffff168273ffffffffffffffffffffffffffffffffffffffff1603611dd8576040517f08c379a0000000000000000000000000000000000000000000000000000000008152600401611dcf906140f7565b60405180910390fd5b611de38383836126cc565b60008060008573ffffffffffffffffffffffffffffffffffffffff1673ffffffffffffffffffffffffffffffffffffffff16815260200190815260200160002054905081811015611e69576040517f08c379a0000000000000000000000000000000000000000000000000000000008152600401611e6090614189565b60405180910390fd5b8181036000808673ffffffffffffffffffffffffffffffffffffffff1673ffffffffffffffffffffffffffffffffffffffff16815260200190815260200160002081905550816000808573ffffffffffffffffffffffffffffffffffffffff1673ffffffffffffffffffffffffffffffffffffffff1681526020019081526020016000206000828254611efc919061360b565b925050819055508273ffffffffffffffffffffffffffffffffffffffff168473ffffffffffffffffffffffffffffffffffffffff167fddf252ad1be2c89b69c2b068fc378daa952ba7f163c4a11628f55a4df523b3ef84604051611f609190612e72565b60405180910390a3611f738484846126d1565b50505050565b60007f000000000000000000000000000000000000000000000000000000000000000073ffffffffffffffffffffffffffffffffffffffff163073ffffffffffffffffffffffffffffffffffffffff16148015611ff557507f000000000000000000000000000000000000000000000000000000000000000046145b15612022577f00000000000000000000000000000000000000000000000000000000000000009050612090565b61208d7f00000000000000000000000000000000000000000000000000000000000000007f00000000000000000000000000000000000000000000000000000000000000007f00000000000000000000000000000000000000000000000000000000000000006128da565b90505b90565b6000808380549050905060005b818110156121125760006120b48284612914565b9050848682815481106120ca576120c9613898565b5b9060005260206000200160000160009054906101000a900463ffffffff1663ffffffff1611156120fc5780925061210c565b600181612109919061360b565b91505b506120a0565b6000821461217457846001836121289190613864565b8154811061213957612138613898565b5b9060005260206000200160000160049054906101000a90047bffffffffffffffffffffffffffffffffffffffffffffffffffffffff16612177565b60005b7bffffffffffffffffffffffffffffffffffffffffffffffffffffffff169250505092915050565b60006121aa83610ce7565b905060006121b784610db8565b905082600760008673ffffffffffffffffffffffffffffffffffffffff1673ffffffffffffffffffffffffffffffffffffffff16815260200190815260200160002060006101000a81548173ffffffffffffffffffffffffffffffffffffffff021916908373ffffffffffffffffffffffffffffffffffffffff1602179055508273ffffffffffffffffffffffffffffffffffffffff168273ffffffffffffffffffffffffffffffffffffffff168573ffffffffffffffffffffffffffffffffffffffff167f3134e8a2e6d97e929a7e54011ea5485d7d196dd5f0ba4d4ef95803e8e3fc257f60405160405180910390a46122b38284836126e1565b50505050565b6000600a60009054906101000a900473ffffffffffffffffffffffffffffffffffffffff16905081600a60006101000a81548173ffffffffffffffffffffffffffffffffffffffff021916908373ffffffffffffffffffffffffffffffffffffffff1602179055508173ffffffffffffffffffffffffffffffffffffffff168173ffffffffffffffffffffffffffffffffffffffff167f8be0079c531659141344cd1fd0a4f28419497f9722a3daafe3b4186f6b6457e060405160405180910390a35050565b600081600001549050919050565b60006123a061239a611f79565b8361293a565b9050919050565b60008060006123b88787878761296d565b915091506123c581612a79565b8192505050949350505050565b600080600560008473ffffffffffffffffffffffffffffffffffffffff1673ffffffffffffffffffffffffffffffffffffffff168152602001908152602001600020905061241f8161237f565b915061242a81612c45565b50919050565b60007bffffffffffffffffffffffffffffffffffffffffffffffffffffffff905090565b600080600085805490509050600081146124c257856001826124769190613864565b8154811061248757612486613898565b5b9060005260206000200160000160049054906101000a90047bffffffffffffffffffffffffffffffffffffffffffffffffffffffff166124c5565b60005b7bffffffffffffffffffffffffffffffffffffffffffffffffffffffff1692506124f383858763ffffffff16565b91506000811180156125465750438660018361250f9190613864565b815481106125205761251f613898565b5b9060005260206000200160000160009054906101000a900463ffffffff1663ffffffff16145b156125d35761255482611999565b866001836125629190613864565b8154811061257357612572613898565b5b9060005260206000200160000160046101000a8154817bffffffffffffffffffffffffffffffffffffffffffffffffffffffff02191690837bffffffffffffffffffffffffffffffffffffffffffffffffffffffff1602179055506126c3565b8560405180604001604052806125e843611a04565b63ffffffff1681526020016125fc85611999565b7bffffffffffffffffffffffffffffffffffffffffffffffffffffffff168152509080600181540180825580915050600190039060005260206000200160009091909190915060008201518160000160006101000a81548163ffffffff021916908363ffffffff16021790555060208201518160000160046101000a8154817bffffffffffffffffffffffffffffffffffffffffffffffffffffffff02191690837bffffffffffffffffffffffffffffffffffffffffffffffffffffffff16021790555050505b50935093915050565b505050565b6126dc838383611a57565b505050565b8173ffffffffffffffffffffffffffffffffffffffff168373ffffffffffffffffffffffffffffffffffffffff161415801561271d5750600081115b156128d557600073ffffffffffffffffffffffffffffffffffffffff168373ffffffffffffffffffffffffffffffffffffffff16146127fb576000806127a4600860008773ffffffffffffffffffffffffffffffffffffffff1673ffffffffffffffffffffffffffffffffffffffff168152602001908152602001600020611a8785612454565b915091508473ffffffffffffffffffffffffffffffffffffffff167fdec2bacdd2f05b59de34da9b523dff8be42e5e38e818c82fdb0bae774387a72483836040516127f09291906141a9565b60405180910390a250505b600073ffffffffffffffffffffffffffffffffffffffff168273ffffffffffffffffffffffffffffffffffffffff16146128d45760008061287d600860008673ffffffffffffffffffffffffffffffffffffffff1673ffffffffffffffffffffffffffffffffffffffff16815260200190815260200160002061198385612454565b915091508373ffffffffffffffffffffffffffffffffffffffff167fdec2bacdd2f05b59de34da9b523dff8be42e5e38e818c82fdb0bae774387a72483836040516128c99291906141a9565b60405180910390a250505b5b505050565b600083838346306040516020016128f59594939291906141d2565b6040516020818303038152906040528051906020012090509392505050565b600060028284186129259190613732565b828416612932919061360b565b905092915050565b6000828260405160200161294f92919061429d565b60405160208183030381529060405280519060200120905092915050565b6000807f7fffffffffffffffffffffffffffffff5d576e7357a4501ddfe92f46681b20a08360001c11156129a8576000600391509150612a70565b601b8560ff16141580156129c05750601c8560ff1614155b156129d2576000600491509150612a70565b6000600187878787604051600081526020016040526040516129f794939291906142d4565b6020604051602081039080840390855afa158015612a19573d6000803e3d6000fd5b505050602060405103519050600073ffffffffffffffffffffffffffffffffffffffff168173ffffffffffffffffffffffffffffffffffffffff1603612a6757600060019250925050612a70565b80600092509250505b94509492505050565b60006004811115612a8d57612a8c614319565b5b816004811115612aa057612a9f614319565b5b0315612c425760016004811115612aba57612ab9614319565b5b816004811115612acd57612acc614319565b5b03612b0d576040517f08c379a0000000000000000000000000000000000000000000000000000000008152600401612b0490614394565b60405180910390fd5b60026004811115612b2157612b20614319565b5b816004811115612b3457612b33614319565b5b03612b74576040517f08c379a0000000000000000000000000000000000000000000000000000000008152600401612b6b90614400565b60405180910390fd5b60036004811115612b8857612b87614319565b5b816004811115612b9b57612b9a614319565b5b03612bdb576040517f08c379a0000000000000000000000000000000000000000000000000000000008152600401612bd290614492565b60405180910390fd5b600480811115612bee57612bed614319565b5b816004811115612c0157612c00614319565b5b03612c41576040517f08c379a0000000000000000000000000000000000000000000000000000000008152600401612c3890614524565b60405180910390fd5b5b50565b6001816000016000828254019250508190555050565b6040518060400160405280600063ffffffff16815260200160007bffffffffffffffffffffffffffffffffffffffffffffffffffffffff1681525090565b600081519050919050565b600082825260208201905092915050565b60005b83811015612cd3578082015181840152602081019050612cb8565b83811115612ce2576000848401525b50505050565b6000601f19601f8301169050919050565b6000612d0482612c99565b612d0e8185612ca4565b9350612d1e818560208601612cb5565b612d2781612ce8565b840191505092915050565b60006020820190508181036000830152612d4c8184612cf9565b905092915050565b600080fd5b600073ffffffffffffffffffffffffffffffffffffffff82169050919050565b6000612d8482612d59565b9050919050565b612d9481612d79565b8114612d9f57600080fd5b50565b600081359050612db181612d8b565b92915050565b6000819050919050565b612dca81612db7565b8114612dd557600080fd5b50565b600081359050612de781612dc1565b92915050565b60008060408385031215612e0457612e03612d54565b5b6000612e1285828601612da2565b9250506020612e2385828601612dd8565b9150509250929050565b60008115159050919050565b612e4281612e2d565b82525050565b6000602082019050612e5d6000830184612e39565b92915050565b612e6c81612db7565b82525050565b6000602082019050612e876000830184612e63565b92915050565b600080600060608486031215612ea657612ea5612d54565b5b6000612eb486828701612da2565b9350506020612ec586828701612da2565b9250506040612ed686828701612dd8565b9150509250925092565b600060ff82169050919050565b612ef681612ee0565b82525050565b6000602082019050612f116000830184612eed565b92915050565b600060208284031215612f2d57612f2c612d54565b5b6000612f3b84828501612dd8565b91505092915050565b6000819050919050565b612f5781612f44565b82525050565b6000602082019050612f726000830184612f4e565b92915050565b600060208284031215612f8e57612f8d612d54565b5b6000612f9c84828501612da2565b91505092915050565b612fae81612d79565b82525050565b6000602082019050612fc96000830184612fa5565b92915050565b600063ffffffff82169050919050565b612fe881612fcf565b82525050565b60006020820190506130036000830184612fdf565b92915050565b61301281612ee0565b811461301d57600080fd5b50565b60008135905061302f81613009565b92915050565b61303e81612f44565b811461304957600080fd5b50565b60008135905061305b81613035565b92915050565b60008060008060008060c0878903121561307e5761307d612d54565b5b600061308c89828a01612da2565b965050602061309d89828a01612dd8565b95505060406130ae89828a01612dd8565b94505060606130bf89828a01613020565b93505060806130d089828a0161304c565b92505060a06130e189828a0161304c565b9150509295509295509295565b600080600080600080600060e0888a03121561310d5761310c612d54565b5b600061311b8a828b01612da2565b975050602061312c8a828b01612da2565b965050604061313d8a828b01612dd8565b955050606061314e8a828b01612dd8565b945050608061315f8a828b01613020565b93505060a06131708a828b0161304c565b92505060c06131818a828b0161304c565b91505092959891949750929550565b600080604083850312156131a7576131a6612d54565b5b60006131b585828601612da2565b92505060206131c685828601612da2565b9150509250929050565b6131d981612fcf565b81146131e457600080fd5b50565b6000813590506131f6816131d0565b92915050565b6000806040838503121561321357613212612d54565b5b600061322185828601612da2565b9250506020613232858286016131e7565b9150509250929050565b61324581612fcf565b82525050565b60007bffffffffffffffffffffffffffffffffffffffffffffffffffffffff82169050919050565b61327c8161324b565b82525050565b604082016000820151613298600085018261323c565b5060208201516132ab6020850182613273565b50505050565b60006040820190506132c66000830184613282565b92915050565b7f4e487b7100000000000000000000000000000000000000000000000000000000600052602260045260246000fd5b6000600282049050600182168061331357607f821691505b602082108103613326576133256132cc565b5b50919050565b7f4e487b7100000000000000000000000000000000000000000000000000000000600052601160045260246000fd5b60008160011c9050919050565b6000808291508390505b60018511156133b25780860481111561338e5761338d61332c565b5b600185161561339d5780820291505b80810290506133ab8561335b565b9450613372565b94509492505050565b6000826133cb5760019050613487565b816133d95760009050613487565b81600181146133ef57600281146133f957613428565b6001915050613487565b60ff84111561340b5761340a61332c565b5b8360020a9150848211156134225761342161332c565b5b50613487565b5060208310610133831016604e8410600b841016171561345d5782820a9050838111156134585761345761332c565b5b613487565b61346a8484846001613368565b925090508184048111156134815761348061332c565b5b81810290505b9392505050565b600061349982612db7565b91506134a483612ee0565b92506134d17fffffffffffffffffffffffffffffffffffffffffffffffffffffffffffffffff84846133bb565b905092915050565b60006134e482612db7565b91506134ef83612db7565b9250817fffffffffffffffffffffffffffffffffffffffffffffffffffffffffffffffff04831182151516156135285761352761332c565b5b828202905092915050565b7f4e6f7420657861637420616d6f756e7400000000000000000000000000000000600082015250565b6000613569601083612ca4565b915061357482613533565b602082019050919050565b600060208201905081810360008301526135988161355c565b9050919050565b7f4e6f7420656e6f75676820746f6b656e73000000000000000000000000000000600082015250565b60006135d5601183612ca4565b91506135e08261359f565b602082019050919050565b60006020820190508181036000830152613604816135c8565b9050919050565b600061361682612db7565b915061362183612db7565b9250827fffffffffffffffffffffffffffffffffffffffffffffffffffffffffffffffff038211156136565761365561332c565b5b828201905092915050565b60006040820190506136766000830185612fa5565b6136836020830184612e63565b9392505050565b60008151905061369981612dc1565b92915050565b6000602082840312156136b5576136b4612d54565b5b60006136c38482850161368a565b91505092915050565b60006136d782612ee0565b91506136e283612ee0565b92508260ff038211156136f8576136f761332c565b5b828201905092915050565b7f4e487b7100000000000000000000000000000000000000000000000000000000600052601260045260246000fd5b600061373d82612db7565b915061374883612db7565b92508261375857613757613703565b5b828204905092915050565b60006040820190506137786000830185612e63565b6137856020830184612fa5565b9392505050565b7f4552433230566f7465733a20626c6f636b206e6f7420796574206d696e656400600082015250565b60006137c2601f83612ca4565b91506137cd8261378c565b602082019050919050565b600060208201905081810360008301526137f1816137b5565b9050919050565b7f4f776e61626c653a2063616c6c6572206973206e6f7420746865206f776e6572600082015250565b600061382e602083612ca4565b9150613839826137f8565b602082019050919050565b6000602082019050818103600083015261385d81613821565b9050919050565b600061386f82612db7565b915061387a83612db7565b92508282101561388d5761388c61332c565b5b828203905092915050565b7f4e487b7100000000000000000000000000000000000000000000000000000000600052603260045260246000fd5b7f45524332303a2064656372656173656420616c6c6f77616e63652062656c6f7760008201527f207a65726f000000000000000000000000000000000000000000000000000000602082015250565b6000613923602583612ca4565b915061392e826138c7565b604082019050919050565b6000602082019050818103600083015261395281613916565b9050919050565b7f4552433230566f7465733a207369676e61747572652065787069726564000000600082015250565b600061398f601d83612ca4565b915061399a82613959565b602082019050919050565b600060208201905081810360008301526139be81613982565b9050919050565b60006080820190506139da6000830187612f4e565b6139e76020830186612fa5565b6139f46040830185612e63565b613a016060830184612e63565b95945050505050565b7f4552433230566f7465733a20696e76616c6964206e6f6e636500000000000000600082015250565b6000613a40601983612ca4565b9150613a4b82613a0a565b602082019050919050565b60006020820190508181036000830152613a6f81613a33565b9050919050565b7f45524332305065726d69743a206578706972656420646561646c696e65000000600082015250565b6000613aac601d83612ca4565b9150613ab782613a76565b602082019050919050565b60006020820190508181036000830152613adb81613a9f565b9050919050565b600060c082019050613af76000830189612f4e565b613b046020830188612fa5565b613b116040830187612fa5565b613b1e6060830186612e63565b613b2b6080830185612e63565b613b3860a0830184612e63565b979650505050505050565b7f45524332305065726d69743a20696e76616c6964207369676e61747572650000600082015250565b6000613b79601e83612ca4565b9150613b8482613b43565b602082019050919050565b60006020820190508181036000830152613ba881613b6c565b9050919050565b7f4f776e61626c653a206e6577206f776e657220697320746865207a65726f206160008201527f6464726573730000000000000000000000000000000000000000000000000000602082015250565b6000613c0b602683612ca4565b9150613c1682613baf565b604082019050919050565b60006020820190508181036000830152613c3a81613bfe565b9050919050565b7f4552433230566f7465733a20746f74616c20737570706c79207269736b73206f60008201527f766572666c6f77696e6720766f74657300000000000000000000000000000000602082015250565b6000613c9d603083612ca4565b9150613ca882613c41565b604082019050919050565b60006020820190508181036000830152613ccc81613c90565b9050919050565b7f45524332303a206d696e7420746f20746865207a65726f206164647265737300600082015250565b6000613d09601f83612ca4565b9150613d1482613cd3565b602082019050919050565b60006020820190508181036000830152613d3881613cfc565b9050919050565b7f53616665436173743a2076616c756520646f65736e27742066697420696e203260008201527f3234206269747300000000000000000000000000000000000000000000000000602082015250565b6000613d9b602783612ca4565b9150613da682613d3f565b604082019050919050565b60006020820190508181036000830152613dca81613d8e565b9050919050565b7f53616665436173743a2076616c756520646f65736e27742066697420696e203360008201527f3220626974730000000000000000000000000000000000000000000000000000602082015250565b6000613e2d602683612ca4565b9150613e3882613dd1565b604082019050919050565b60006020820190508181036000830152613e5c81613e20565b9050919050565b7f45524332303a20617070726f76652066726f6d20746865207a65726f2061646460008201527f7265737300000000000000000000000000000000000000000000000000000000602082015250565b6000613ebf602483612ca4565b9150613eca82613e63565b604082019050919050565b60006020820190508181036000830152613eee81613eb2565b9050919050565b7f45524332303a20617070726f766520746f20746865207a65726f20616464726560008201527f7373000000000000000000000000000000000000000000000000000000000000602082015250565b6000613f51602283612ca4565b9150613f5c82613ef5565b604082019050919050565b60006020820190508181036000830152613f8081613f44565b9050919050565b7f45524332303a20696e73756666696369656e7420616c6c6f77616e6365000000600082015250565b6000613fbd601d83612ca4565b9150613fc882613f87565b602082019050919050565b60006020820190508181036000830152613fec81613fb0565b9050919050565b7f45524332303a207472616e736665722066726f6d20746865207a65726f20616460008201527f6472657373000000000000000000000000000000000000000000000000000000602082015250565b600061404f602583612ca4565b915061405a82613ff3565b604082019050919050565b6000602082019050818103600083015261407e81614042565b9050919050565b7f45524332303a207472616e7366657220746f20746865207a65726f206164647260008201527f6573730000000000000000000000000000000000000000000000000000000000602082015250565b60006140e1602383612ca4565b91506140ec82614085565b604082019050919050565b60006020820190508181036000830152614110816140d4565b9050919050565b7f45524332303a207472616e7366657220616d6f756e742065786365656473206260008201527f616c616e63650000000000000000000000000000000000000000000000000000602082015250565b6000614173602683612ca4565b915061417e82614117565b604082019050919050565b600060208201905081810360008301526141a281614166565b9050919050565b60006040820190506141be6000830185612e63565b6141cb6020830184612e63565b9392505050565b600060a0820190506141e76000830188612f4e565b6141f46020830187612f4e565b6142016040830186612f4e565b61420e6060830185612e63565b61421b6080830184612fa5565b9695505050505050565b600081905092915050565b7f1901000000000000000000000000000000000000000000000000000000000000600082015250565b6000614266600283614225565b915061427182614230565b600282019050919050565b6000819050919050565b61429761429282612f44565b61427c565b82525050565b60006142a882614259565b91506142b48285614286565b6020820191506142c48284614286565b6020820191508190509392505050565b60006080820190506142e96000830187612f4e565b6142f66020830186612eed565b6143036040830185612f4e565b6143106060830184612f4e565b95945050505050565b7f4e487b7100000000000000000000000000000000000000000000000000000000600052602160045260246000fd5b7f45434453413a20696e76616c6964207369676e61747572650000000000000000600082015250565b600061437e601883612ca4565b915061438982614348565b602082019050919050565b600060208201905081810360008301526143ad81614371565b9050919050565b7f45434453413a20696e76616c6964207369676e6174757265206c656e67746800600082015250565b60006143ea601f83612ca4565b91506143f5826143b4565b602082019050919050565b60006020820190508181036000830152614419816143dd565b9050919050565b7f45434453413a20696e76616c6964207369676e6174757265202773272076616c60008201527f7565000000000000000000000000000000000000000000000000000000000000602082015250565b600061447c602283612ca4565b915061448782614420565b604082019050919050565b600060208201905081810360008301526144ab8161446f565b9050919050565b7f45434453413a20696e76616c6964207369676e6174757265202776272076616c60008201527f7565000000000000000000000000000000000000000000000000000000000000602082015250565b600061450e602283612ca4565b9150614519826144b2565b604082019050919050565b6000602082019050818103600083015261453d81614501565b905091905056fea2646970667358221220fe8afc39f8d197a888c81c9595a83301c6b686fad116069eec8ac4134ef6ed5164736f6c634300080e0033",
  "linkReferences": {},
  "deployedLinkReferences": {}
}