{
  "_format": "hh-sol-artifact-1",
  "contractName": "Nude",
  "sourceName": "contracts/Nude.sol",
  "abi": [
    {
      "inputs": [],
      "stateMutability": "nonpayable",
      "type": "constructor"
    },
    {
      "anonymous": false,
      "inputs": [
        {
          "indexed": true,
          "internalType": "address",
          "name": "owner",
          "type": "address"
        },
        {
          "indexed": true,
          "internalType": "address",
          "name": "spender",
          "type": "address"
        },
        {
          "indexed": false,
          "internalType": "uint256",
          "name": "value",
          "type": "uint256"
        }
      ],
      "name": "Approval",
      "type": "event"
    },
    {
      "anonymous": false,
      "inputs": [
        {
          "indexed": false,
          "internalType": "address",
          "name": "_buyer",
          "type": "address"
        },
        {
          "indexed": false,
          "internalType": "uint256",
          "name": "_amount",
          "type": "uint256"
        }
      ],
      "name": "Sell",
      "type": "event"
    },
    {
      "anonymous": false,
      "inputs": [
        {
          "indexed": true,
          "internalType": "address",
          "name": "from",
          "type": "address"
        },
        {
          "indexed": true,
          "internalType": "address",
          "name": "to",
          "type": "address"
        },
        {
          "indexed": false,
          "internalType": "uint256",
          "name": "value",
          "type": "uint256"
        }
      ],
      "name": "Transfer",
      "type": "event"
    },
    {
      "inputs": [
        {
          "internalType": "address",
          "name": "owner",
          "type": "address"
        },
        {
          "internalType": "address",
          "name": "spender",
          "type": "address"
        }
      ],
      "name": "allowance",
      "outputs": [
        {
          "internalType": "uint256",
          "name": "",
          "type": "uint256"
        }
      ],
      "stateMutability": "view",
      "type": "function"
    },
    {
      "inputs": [
        {
          "internalType": "address",
          "name": "spender",
          "type": "address"
        },
        {
          "internalType": "uint256",
          "name": "amount",
          "type": "uint256"
        }
      ],
      "name": "approve",
      "outputs": [
        {
          "internalType": "bool",
          "name": "",
          "type": "bool"
        }
      ],
      "stateMutability": "nonpayable",
      "type": "function"
    },
    {
      "inputs": [
        {
          "internalType": "address",
          "name": "account",
          "type": "address"
        }
      ],
      "name": "balanceOf",
      "outputs": [
        {
          "internalType": "uint256",
          "name": "",
          "type": "uint256"
        }
      ],
      "stateMutability": "view",
      "type": "function"
    },
    {
      "inputs": [
        {
          "internalType": "uint256",
          "name": "_numberOfTokens",
          "type": "uint256"
        }
      ],
      "name": "buyTokens",
      "outputs": [],
      "stateMutability": "payable",
      "type": "function"
    },
    {
      "inputs": [],
      "name": "decimals",
      "outputs": [
        {
          "internalType": "uint8",
          "name": "",
          "type": "uint8"
        }
      ],
      "stateMutability": "view",
      "type": "function"
    },
    {
      "inputs": [
        {
          "internalType": "address",
          "name": "spender",
          "type": "address"
        },
        {
          "internalType": "uint256",
          "name": "subtractedValue",
          "type": "uint256"
        }
      ],
      "name": "decreaseAllowance",
      "outputs": [
        {
          "internalType": "bool",
          "name": "",
          "type": "bool"
        }
      ],
      "stateMutability": "nonpayable",
      "type": "function"
    },
    {
      "inputs": [
        {
          "internalType": "address",
          "name": "spender",
          "type": "address"
        },
        {
          "internalType": "uint256",
          "name": "addedValue",
          "type": "uint256"
        }
      ],
      "name": "increaseAllowance",
      "outputs": [
        {
          "internalType": "bool",
          "name": "",
          "type": "bool"
        }
      ],
      "stateMutability": "nonpayable",
      "type": "function"
    },
    {
      "inputs": [],
      "name": "initialSupply",
      "outputs": [
        {
          "internalType": "uint256",
          "name": "",
          "type": "uint256"
        }
      ],
      "stateMutability": "view",
      "type": "function"
    },
    {
      "inputs": [],
      "name": "name",
      "outputs": [
        {
          "internalType": "string",
          "name": "",
          "type": "string"
        }
      ],
      "stateMutability": "view",
      "type": "function"
    },
    {
      "inputs": [
        {
          "internalType": "uint256",
          "name": "_rate",
          "type": "uint256"
        }
      ],
      "name": "setTokenRate",
      "outputs": [],
      "stateMutability": "nonpayable",
      "type": "function"
    },
    {
      "inputs": [],
      "name": "symbol",
      "outputs": [
        {
          "internalType": "string",
          "name": "",
          "type": "string"
        }
      ],
      "stateMutability": "view",
      "type": "function"
    },
    {
      "inputs": [],
      "name": "tokensSold",
      "outputs": [
        {
          "internalType": "uint256",
          "name": "",
          "type": "uint256"
        }
      ],
      "stateMutability": "view",
      "type": "function"
    },
    {
      "inputs": [],
      "name": "totalSupply",
      "outputs": [
        {
          "internalType": "uint256",
          "name": "",
          "type": "uint256"
        }
      ],
      "stateMutability": "view",
      "type": "function"
    },
    {
      "inputs": [
        {
          "internalType": "address",
          "name": "to",
          "type": "address"
        },
        {
          "internalType": "uint256",
          "name": "amount",
          "type": "uint256"
        }
      ],
      "name": "transfer",
      "outputs": [
        {
          "internalType": "bool",
          "name": "",
          "type": "bool"
        }
      ],
      "stateMutability": "nonpayable",
      "type": "function"
    },
    {
      "inputs": [
        {
          "internalType": "address",
          "name": "from",
          "type": "address"
        },
        {
          "internalType": "address",
          "name": "to",
          "type": "address"
        },
        {
          "internalType": "uint256",
          "name": "amount",
          "type": "uint256"
        }
      ],
      "name": "transferFrom",
      "outputs": [
        {
          "internalType": "bool",
          "name": "",
          "type": "bool"
        }
      ],
      "stateMutability": "nonpayable",
      "type": "function"
    },
    {
      "inputs": [
        {
          "internalType": "address",
          "name": "from",
          "type": "address"
        },
        {
          "internalType": "address",
          "name": "to",
          "type": "address"
        },
        {
          "internalType": "uint256",
          "name": "amount",
          "type": "uint256"
        }
      ],
      "name": "transferTokens",
      "outputs": [],
      "stateMutability": "nonpayable",
      "type": "function"
    }
  ],
  "bytecode": "0x60806040526304277dc9600655600a6008553480156200001e57600080fd5b506040518060400160405280600481526020017f4e756465000000000000000000000000000000000000000000000000000000008152506040518060400160405280600481526020017f4e554445000000000000000000000000000000000000000000000000000000008152508160039080519060200190620000a3929190620002d0565b508060049080519060200190620000bc929190620002d0565b505050620000fd33620000d46200014460201b60201c565b600a620000e291906200051a565b600654620000f191906200056b565b6200014d60201b60201c565b33600560006101000a81548173ffffffffffffffffffffffffffffffffffffffff021916908373ffffffffffffffffffffffffffffffffffffffff1602179055506200073f565b60006012905090565b600073ffffffffffffffffffffffffffffffffffffffff168273ffffffffffffffffffffffffffffffffffffffff161415620001c0576040517f08c379a0000000000000000000000000000000000000000000000000000000008152600401620001b7906200062d565b60405180910390fd5b620001d460008383620002c660201b60201c565b8060026000828254620001e891906200064f565b92505081905550806000808473ffffffffffffffffffffffffffffffffffffffff1673ffffffffffffffffffffffffffffffffffffffff16815260200190815260200160002060008282546200023f91906200064f565b925050819055508173ffffffffffffffffffffffffffffffffffffffff16600073ffffffffffffffffffffffffffffffffffffffff167fddf252ad1be2c89b69c2b068fc378daa952ba7f163c4a11628f55a4df523b3ef83604051620002a69190620006bd565b60405180910390a3620002c260008383620002cb60201b60201c565b5050565b505050565b505050565b828054620002de9062000709565b90600052602060002090601f0160209004810192826200030257600085556200034e565b82601f106200031d57805160ff19168380011785556200034e565b828001600101855582156200034e579182015b828111156200034d57825182559160200191906001019062000330565b5b5090506200035d919062000361565b5090565b5b808211156200037c57600081600090555060010162000362565b5090565b7f4e487b7100000000000000000000000000000000000000000000000000000000600052601160045260246000fd5b60008160011c9050919050565b6000808291508390505b60018511156200040e57808604811115620003e657620003e562000380565b5b6001851615620003f65780820291505b80810290506200040685620003af565b9450620003c6565b94509492505050565b600082620004295760019050620004fc565b81620004395760009050620004fc565b81600181146200045257600281146200045d5762000493565b6001915050620004fc565b60ff84111562000472576200047162000380565b5b8360020a9150848211156200048c576200048b62000380565b5b50620004fc565b5060208310610133831016604e8410600b8410161715620004cd5782820a905083811115620004c757620004c662000380565b5b620004fc565b620004dc8484846001620003bc565b92509050818404811115620004f657620004f562000380565b5b81810290505b9392505050565b6000819050919050565b600060ff82169050919050565b6000620005278262000503565b915062000534836200050d565b9250620005637fffffffffffffffffffffffffffffffffffffffffffffffffffffffffffffffff848462000417565b905092915050565b6000620005788262000503565b9150620005858362000503565b9250817fffffffffffffffffffffffffffffffffffffffffffffffffffffffffffffffff0483118215151615620005c157620005c062000380565b5b828202905092915050565b600082825260208201905092915050565b7f45524332303a206d696e7420746f20746865207a65726f206164647265737300600082015250565b600062000615601f83620005cc565b91506200062282620005dd565b602082019050919050565b60006020820190508181036000830152620006488162000606565b9050919050565b60006200065c8262000503565b9150620006698362000503565b9250827fffffffffffffffffffffffffffffffffffffffffffffffffffffffffffffffff03821115620006a157620006a062000380565b5b828201905092915050565b620006b78162000503565b82525050565b6000602082019050620006d46000830184620006ac565b92915050565b7f4e487b7100000000000000000000000000000000000000000000000000000000600052602260045260246000fd5b600060028204905060018216806200072257607f821691505b60208210811415620007395762000738620006da565b5b50919050565b61194a806200074f6000396000f3fe6080604052600436106100f35760003560e01c8063518ab2a81161008a578063a457c2d711610059578063a457c2d714610333578063a64b6e5f14610370578063a9059cbb14610399578063dd62ed3e146103d6576100f3565b8063518ab2a81461027757806361241c28146102a257806370a08231146102cb57806395d89b4114610308576100f3565b8063313ce567116100c6578063313ce567146101c85780633610724e146101f3578063378dc3dc1461020f578063395093511461023a576100f3565b806306fdde03146100f8578063095ea7b31461012357806318160ddd1461016057806323b872dd1461018b575b600080fd5b34801561010457600080fd5b5061010d610413565b60405161011a9190611001565b60405180910390f35b34801561012f57600080fd5b5061014a600480360381019061014591906110bc565b6104a5565b6040516101579190611117565b60405180910390f35b34801561016c57600080fd5b506101756104c8565b6040516101829190611141565b60405180910390f35b34801561019757600080fd5b506101b260048036038101906101ad919061115c565b6104d2565b6040516101bf9190611117565b60405180910390f35b3480156101d457600080fd5b506101dd610501565b6040516101ea91906111cb565b60405180910390f35b61020d600480360381019061020891906111e6565b61050a565b005b34801561021b57600080fd5b5061022461064f565b6040516102319190611141565b60405180910390f35b34801561024657600080fd5b50610261600480360381019061025c91906110bc565b610655565b60405161026e9190611117565b60405180910390f35b34801561028357600080fd5b5061028c6106ff565b6040516102999190611141565b60405180910390f35b3480156102ae57600080fd5b506102c960048036038101906102c491906111e6565b610705565b005b3480156102d757600080fd5b506102f260048036038101906102ed9190611213565b61079f565b6040516102ff9190611141565b60405180910390f35b34801561031457600080fd5b5061031d6107e7565b60405161032a9190611001565b60405180910390f35b34801561033f57600080fd5b5061035a600480360381019061035591906110bc565b610879565b6040516103679190611117565b60405180910390f35b34801561037c57600080fd5b506103976004803603810190610392919061115c565b610963565b005b3480156103a557600080fd5b506103c060048036038101906103bb91906110bc565b6109be565b6040516103cd9190611117565b60405180910390f35b3480156103e257600080fd5b506103fd60048036038101906103f89190611240565b6109e1565b60405161040a9190611141565b60405180910390f35b606060038054610422906112af565b80601f016020809104026020016040519081016040528092919081815260200182805461044e906112af565b801561049b5780601f106104705761010080835404028352916020019161049b565b820191906000526020600020905b81548152906001019060200180831161047e57829003601f168201915b5050505050905090565b6000806104b0610a68565b90506104bd818585610a70565b600191505092915050565b6000600254905090565b6000806104dd610a68565b90506104ea858285610c3b565b6104f5858585610cc7565b60019150509392505050565b60006012905090565b61051f60085482610f4890919063ffffffff16565b3414610560576040517f08c379a00000000000000000000000000000000000000000000000000000000081526004016105579061132d565b60405180910390fd5b8061058c600560009054906101000a900473ffffffffffffffffffffffffffffffffffffffff1661079f565b10156105cd576040517f08c379a00000000000000000000000000000000000000000000000000000000081526004016105c490611399565b60405180910390fd5b6105fa600560009054906101000a900473ffffffffffffffffffffffffffffffffffffffff163383610cc7565b806007600082825461060c91906113e8565b925050819055507f5e5e995ce3133561afceaa51a9a154d5db228cd7525d34df5185582c18d3df09338260405161064492919061144d565b60405180910390a150565b60065481565b600080610660610a68565b90506106f4818585600160008673ffffffffffffffffffffffffffffffffffffffff1673ffffffffffffffffffffffffffffffffffffffff16815260200190815260200160002060008973ffffffffffffffffffffffffffffffffffffffff1673ffffffffffffffffffffffffffffffffffffffff168152602001908152602001600020546106ef91906113e8565b610a70565b600191505092915050565b60075481565b600560009054906101000a900473ffffffffffffffffffffffffffffffffffffffff1673ffffffffffffffffffffffffffffffffffffffff163373ffffffffffffffffffffffffffffffffffffffff1614610795576040517f08c379a000000000000000000000000000000000000000000000000000000000815260040161078c906114c2565b60405180910390fd5b8060088190555050565b60008060008373ffffffffffffffffffffffffffffffffffffffff1673ffffffffffffffffffffffffffffffffffffffff168152602001908152602001600020549050919050565b6060600480546107f6906112af565b80601f0160208091040260200160405190810160405280929190818152602001828054610822906112af565b801561086f5780601f106108445761010080835404028352916020019161086f565b820191906000526020600020905b81548152906001019060200180831161085257829003601f168201915b5050505050905090565b600080610884610a68565b90506000600160008373ffffffffffffffffffffffffffffffffffffffff1673ffffffffffffffffffffffffffffffffffffffff16815260200190815260200160002060008673ffffffffffffffffffffffffffffffffffffffff1673ffffffffffffffffffffffffffffffffffffffff1681526020019081526020016000205490508381101561094a576040517f08c379a000000000000000000000000000000000000000000000000000000000815260040161094190611554565b60405180910390fd5b6109578286868403610a70565b60019250505092915050565b8061096d8461079f565b10156109ae576040517f08c379a00000000000000000000000000000000000000000000000000000000081526004016109a590611399565b60405180910390fd5b6109b9838383610cc7565b505050565b6000806109c9610a68565b90506109d6818585610cc7565b600191505092915050565b6000600160008473ffffffffffffffffffffffffffffffffffffffff1673ffffffffffffffffffffffffffffffffffffffff16815260200190815260200160002060008373ffffffffffffffffffffffffffffffffffffffff1673ffffffffffffffffffffffffffffffffffffffff16815260200190815260200160002054905092915050565b600033905090565b600073ffffffffffffffffffffffffffffffffffffffff168373ffffffffffffffffffffffffffffffffffffffff161415610ae0576040517f08c379a0000000000000000000000000000000000000000000000000000000008152600401610ad7906115e6565b60405180910390fd5b600073ffffffffffffffffffffffffffffffffffffffff168273ffffffffffffffffffffffffffffffffffffffff161415610b50576040517f08c379a0000000000000000000000000000000000000000000000000000000008152600401610b4790611678565b60405180910390fd5b80600160008573ffffffffffffffffffffffffffffffffffffffff1673ffffffffffffffffffffffffffffffffffffffff16815260200190815260200160002060008473ffffffffffffffffffffffffffffffffffffffff1673ffffffffffffffffffffffffffffffffffffffff168152602001908152602001600020819055508173ffffffffffffffffffffffffffffffffffffffff168373ffffffffffffffffffffffffffffffffffffffff167f8c5be1e5ebec7d5bd14f71427d1e84f3dd0314c0f7b2291e5b200ac8c7c3b92583604051610c2e9190611141565b60405180910390a3505050565b6000610c4784846109e1565b90507fffffffffffffffffffffffffffffffffffffffffffffffffffffffffffffffff8114610cc15781811015610cb3576040517f08c379a0000000000000000000000000000000000000000000000000000000008152600401610caa906116e4565b60405180910390fd5b610cc08484848403610a70565b5b50505050565b600073ffffffffffffffffffffffffffffffffffffffff168373ffffffffffffffffffffffffffffffffffffffff161415610d37576040517f08c379a0000000000000000000000000000000000000000000000000000000008152600401610d2e90611776565b60405180910390fd5b600073ffffffffffffffffffffffffffffffffffffffff168273ffffffffffffffffffffffffffffffffffffffff161415610da7576040517f08c379a0000000000000000000000000000000000000000000000000000000008152600401610d9e90611808565b60405180910390fd5b610db2838383610f5e565b60008060008573ffffffffffffffffffffffffffffffffffffffff1673ffffffffffffffffffffffffffffffffffffffff16815260200190815260200160002054905081811015610e38576040517f08c379a0000000000000000000000000000000000000000000000000000000008152600401610e2f9061189a565b60405180910390fd5b8181036000808673ffffffffffffffffffffffffffffffffffffffff1673ffffffffffffffffffffffffffffffffffffffff16815260200190815260200160002081905550816000808573ffffffffffffffffffffffffffffffffffffffff1673ffffffffffffffffffffffffffffffffffffffff1681526020019081526020016000206000828254610ecb91906113e8565b925050819055508273ffffffffffffffffffffffffffffffffffffffff168473ffffffffffffffffffffffffffffffffffffffff167fddf252ad1be2c89b69c2b068fc378daa952ba7f163c4a11628f55a4df523b3ef84604051610f2f9190611141565b60405180910390a3610f42848484610f63565b50505050565b60008183610f5691906118ba565b905092915050565b505050565b505050565b600081519050919050565b600082825260208201905092915050565b60005b83811015610fa2578082015181840152602081019050610f87565b83811115610fb1576000848401525b50505050565b6000601f19601f8301169050919050565b6000610fd382610f68565b610fdd8185610f73565b9350610fed818560208601610f84565b610ff681610fb7565b840191505092915050565b6000602082019050818103600083015261101b8184610fc8565b905092915050565b600080fd5b600073ffffffffffffffffffffffffffffffffffffffff82169050919050565b600061105382611028565b9050919050565b61106381611048565b811461106e57600080fd5b50565b6000813590506110808161105a565b92915050565b6000819050919050565b61109981611086565b81146110a457600080fd5b50565b6000813590506110b681611090565b92915050565b600080604083850312156110d3576110d2611023565b5b60006110e185828601611071565b92505060206110f2858286016110a7565b9150509250929050565b60008115159050919050565b611111816110fc565b82525050565b600060208201905061112c6000830184611108565b92915050565b61113b81611086565b82525050565b60006020820190506111566000830184611132565b92915050565b60008060006060848603121561117557611174611023565b5b600061118386828701611071565b935050602061119486828701611071565b92505060406111a5868287016110a7565b9150509250925092565b600060ff82169050919050565b6111c5816111af565b82525050565b60006020820190506111e060008301846111bc565b92915050565b6000602082840312156111fc576111fb611023565b5b600061120a848285016110a7565b91505092915050565b60006020828403121561122957611228611023565b5b600061123784828501611071565b91505092915050565b6000806040838503121561125757611256611023565b5b600061126585828601611071565b925050602061127685828601611071565b9150509250929050565b7f4e487b7100000000000000000000000000000000000000000000000000000000600052602260045260246000fd5b600060028204905060018216806112c757607f821691505b602082108114156112db576112da611280565b5b50919050565b7f4e6f7420657861637420616d6f756e7400000000000000000000000000000000600082015250565b6000611317601083610f73565b9150611322826112e1565b602082019050919050565b600060208201905081810360008301526113468161130a565b9050919050565b7f4e6f7420656e6f75676820746f6b656e73000000000000000000000000000000600082015250565b6000611383601183610f73565b915061138e8261134d565b602082019050919050565b600060208201905081810360008301526113b281611376565b9050919050565b7f4e487b7100000000000000000000000000000000000000000000000000000000600052601160045260246000fd5b60006113f382611086565b91506113fe83611086565b9250827fffffffffffffffffffffffffffffffffffffffffffffffffffffffffffffffff03821115611433576114326113b9565b5b828201905092915050565b61144781611048565b82525050565b6000604082019050611462600083018561143e565b61146f6020830184611132565b9392505050565b7f4f6e6c79206f776e65722063616e2073657420746f6b656e2072617465000000600082015250565b60006114ac601d83610f73565b91506114b782611476565b602082019050919050565b600060208201905081810360008301526114db8161149f565b9050919050565b7f45524332303a2064656372656173656420616c6c6f77616e63652062656c6f7760008201527f207a65726f000000000000000000000000000000000000000000000000000000602082015250565b600061153e602583610f73565b9150611549826114e2565b604082019050919050565b6000602082019050818103600083015261156d81611531565b9050919050565b7f45524332303a20617070726f76652066726f6d20746865207a65726f2061646460008201527f7265737300000000000000000000000000000000000000000000000000000000602082015250565b60006115d0602483610f73565b91506115db82611574565b604082019050919050565b600060208201905081810360008301526115ff816115c3565b9050919050565b7f45524332303a20617070726f766520746f20746865207a65726f20616464726560008201527f7373000000000000000000000000000000000000000000000000000000000000602082015250565b6000611662602283610f73565b915061166d82611606565b604082019050919050565b6000602082019050818103600083015261169181611655565b9050919050565b7f45524332303a20696e73756666696369656e7420616c6c6f77616e6365000000600082015250565b60006116ce601d83610f73565b91506116d982611698565b602082019050919050565b600060208201905081810360008301526116fd816116c1565b9050919050565b7f45524332303a207472616e736665722066726f6d20746865207a65726f20616460008201527f6472657373000000000000000000000000000000000000000000000000000000602082015250565b6000611760602583610f73565b915061176b82611704565b604082019050919050565b6000602082019050818103600083015261178f81611753565b9050919050565b7f45524332303a207472616e7366657220746f20746865207a65726f206164647260008201527f6573730000000000000000000000000000000000000000000000000000000000602082015250565b60006117f2602383610f73565b91506117fd82611796565b604082019050919050565b60006020820190508181036000830152611821816117e5565b9050919050565b7f45524332303a207472616e7366657220616d6f756e742065786365656473206260008201527f616c616e63650000000000000000000000000000000000000000000000000000602082015250565b6000611884602683610f73565b915061188f82611828565b604082019050919050565b600060208201905081810360008301526118b381611877565b9050919050565b60006118c582611086565b91506118d083611086565b9250817fffffffffffffffffffffffffffffffffffffffffffffffffffffffffffffffff0483118215151615611909576119086113b9565b5b82820290509291505056fea2646970667358221220fabd4d27cd030fe941b5efbef6576819cb5dee619d1f039bf831c27fef19cf4464736f6c634300080b0033",
  "linkReferences": {},
  "deployedLinkReferences": {}
}